{
  "contractName": "StakingRewardsFactory",
  "abi": [
    {
      "inputs": [
        {
          "internalType": "address",
          "name": "_rewardsToken",
          "type": "address"
        },
        {
          "internalType": "uint256",
          "name": "_stakingRewardsGenesis",
          "type": "uint256"
        }
      ],
      "stateMutability": "nonpayable",
      "type": "constructor"
    },
    {
      "anonymous": false,
      "inputs": [
        {
          "indexed": true,
          "internalType": "address",
          "name": "previousOwner",
          "type": "address"
        },
        {
          "indexed": true,
          "internalType": "address",
          "name": "newOwner",
          "type": "address"
        }
      ],
      "name": "OwnershipTransferred",
      "type": "event"
    },
    {
      "inputs": [],
      "name": "owner",
      "outputs": [
        {
          "internalType": "address",
          "name": "",
          "type": "address"
        }
      ],
      "stateMutability": "view",
      "type": "function",
      "constant": true
    },
    {
      "inputs": [],
      "name": "renounceOwnership",
      "outputs": [],
      "stateMutability": "nonpayable",
      "type": "function"
    },
    {
      "inputs": [],
      "name": "rewardsToken",
      "outputs": [
        {
          "internalType": "address",
          "name": "",
          "type": "address"
        }
      ],
      "stateMutability": "view",
      "type": "function",
      "constant": true
    },
    {
      "inputs": [],
      "name": "stakingRewardsGenesis",
      "outputs": [
        {
          "internalType": "uint256",
          "name": "",
          "type": "uint256"
        }
      ],
      "stateMutability": "view",
      "type": "function",
      "constant": true
    },
    {
      "inputs": [
        {
          "internalType": "address",
          "name": "",
          "type": "address"
        }
      ],
      "name": "stakingRewardsInfoByStakingToken",
      "outputs": [
        {
          "internalType": "address",
          "name": "stakingRewards",
          "type": "address"
        },
        {
          "internalType": "uint256",
          "name": "rewardAmount",
          "type": "uint256"
        },
        {
          "internalType": "uint256",
          "name": "duration",
          "type": "uint256"
        }
      ],
      "stateMutability": "view",
      "type": "function",
      "constant": true
    },
    {
      "inputs": [
        {
          "internalType": "uint256",
          "name": "",
          "type": "uint256"
        }
      ],
      "name": "stakingTokens",
      "outputs": [
        {
          "internalType": "address",
          "name": "",
          "type": "address"
        }
      ],
      "stateMutability": "view",
      "type": "function",
      "constant": true
    },
    {
      "inputs": [
        {
          "internalType": "address",
          "name": "newOwner",
          "type": "address"
        }
      ],
      "name": "transferOwnership",
      "outputs": [],
      "stateMutability": "nonpayable",
      "type": "function"
    },
    {
      "inputs": [
        {
          "internalType": "address",
          "name": "stakingToken",
          "type": "address"
        },
        {
          "internalType": "uint256",
          "name": "rewardAmount",
          "type": "uint256"
        },
        {
          "internalType": "uint256",
          "name": "rewardsDuration",
          "type": "uint256"
        }
      ],
      "name": "deploy",
      "outputs": [],
      "stateMutability": "nonpayable",
      "type": "function"
    },
    {
      "inputs": [
        {
          "internalType": "address",
          "name": "stakingToken",
          "type": "address"
        },
        {
          "internalType": "uint256",
          "name": "rewardAmount",
          "type": "uint256"
        },
        {
          "internalType": "uint256",
          "name": "rewardsDuration",
          "type": "uint256"
        }
      ],
      "name": "update",
      "outputs": [],
      "stateMutability": "nonpayable",
      "type": "function"
    },
    {
      "inputs": [],
      "name": "notifyRewardAmounts",
      "outputs": [],
      "stateMutability": "nonpayable",
      "type": "function"
    },
    {
      "inputs": [
        {
          "internalType": "address",
          "name": "stakingToken",
          "type": "address"
        }
      ],
      "name": "notifyRewardAmount",
      "outputs": [],
      "stateMutability": "nonpayable",
      "type": "function"
    },
    {
      "inputs": [
        {
          "internalType": "address",
          "name": "token",
          "type": "address"
        },
        {
          "internalType": "uint256",
          "name": "amount",
          "type": "uint256"
        }
      ],
      "name": "pullExtraTokens",
      "outputs": [],
      "stateMutability": "nonpayable",
      "type": "function"
    }
  ],
  "bytecode": "0x60806040523480156200001157600080fd5b5060405162005c5238038062005c528339818101604052810190620000379190620001e7565b620000576200004b620000ed60201b60201c565b620000f560201b60201c565b428110156200009d576040517f08c379a0000000000000000000000000000000000000000000000000000000008152600401620000949062000290565b60405180910390fd5b81600160006101000a81548173ffffffffffffffffffffffffffffffffffffffff021916908373ffffffffffffffffffffffffffffffffffffffff16021790555080600281905550505062000335565b600033905090565b60008060009054906101000a900473ffffffffffffffffffffffffffffffffffffffff169050816000806101000a81548173ffffffffffffffffffffffffffffffffffffffff021916908373ffffffffffffffffffffffffffffffffffffffff1602179055508173ffffffffffffffffffffffffffffffffffffffff168173ffffffffffffffffffffffffffffffffffffffff167f8be0079c531659141344cd1fd0a4f28419497f9722a3daafe3b4186f6b6457e060405160405180910390a35050565b600081519050620001ca8162000301565b92915050565b600081519050620001e1816200031b565b92915050565b60008060408385031215620001fb57600080fd5b60006200020b85828601620001b9565b92505060206200021e85828601620001d0565b9150509250929050565b600062000237603483620002b2565b91507f5374616b696e6752657761726473466163746f72793a3a636f6e73747275637460008301527f6f723a2067656e6573697320746f6f20736f6f6e0000000000000000000000006020830152604082019050919050565b60006020820190508181036000830152620002ab8162000228565b9050919050565b600082825260208201905092915050565b6000620002d082620002d7565b9050919050565b600073ffffffffffffffffffffffffffffffffffffffff82169050919050565b6000819050919050565b6200030c81620002c3565b81146200031857600080fd5b50565b6200032681620002f7565b81146200033257600080fd5b50565b61590d80620003456000396000f3fe60806040523480156200001157600080fd5b5060043610620000c45760003560e01c8063a0928c11116200007b578063a0928c1114620001a5578063ae741d8d14620001c7578063cfda547814620001d3578063d09b6d4314620001f3578063d1af0c7d1462000213578063f2fde38b146200023557620000c4565b8063344e5e3414620000c95780636cf8caf814620000ff578063715018a614620001375780637572719e146200014357806381e1629814620001635780638da5cb5b1462000183575b600080fd5b620000e76004803603810190620000e1919062000fe2565b62000255565b604051620000f6919062001370565b60405180910390f35b6200011d600480360381019062000117919062000ef3565b62000295565b6040516200012e93929190620013f7565b60405180910390f35b62000141620002df565b005b6200016160048036038101906200015b919062000f1f565b62000370565b005b6200018160048036038101906200017b919062000ef3565b6200048b565b005b6200018d620007a9565b6040516200019c919062001370565b60405180910390f35b620001af620007d2565b604051620001be919062001544565b60405180910390f35b620001d1620007d8565b005b620001f16004803603810190620001eb919062000f60565b620008bd565b005b6200021160048036038101906200020b919062000f60565b62000b35565b005b6200021d62000caa565b6040516200022c919062001370565b60405180910390f35b6200025360048036038101906200024d919062000ef3565b62000cd0565b005b600381815481106200026657600080fd5b906000526020600020016000915054906101000a900473ffffffffffffffffffffffffffffffffffffffff1681565b60046020528060005260406000206000915090508060000160009054906101000a900473ffffffffffffffffffffffffffffffffffffffff16908060010154908060020154905083565b620002e962000dd4565b73ffffffffffffffffffffffffffffffffffffffff1662000309620007a9565b73ffffffffffffffffffffffffffffffffffffffff161462000362576040517f08c379a000000000000000000000000000000000000000000000000000000000815260040162000359906200149a565b60405180910390fd5b6200036e600062000ddc565b565b6200037a62000dd4565b73ffffffffffffffffffffffffffffffffffffffff166200039a620007a9565b73ffffffffffffffffffffffffffffffffffffffff1614620003f3576040517f08c379a0000000000000000000000000000000000000000000000000000000008152600401620003ea906200149a565b60405180910390fd5b8173ffffffffffffffffffffffffffffffffffffffff1663a9059cbb33836040518363ffffffff1660e01b815260040162000430929190620013ca565b602060405180830381600087803b1580156200044b57600080fd5b505af115801562000460573d6000803e3d6000fd5b505050506040513d601f19601f8201168201806040525081019062000486919062000fb6565b505050565b600254421015620004d3576040517f08c379a0000000000000000000000000000000000000000000000000000000008152600401620004ca9062001500565b60405180910390fd5b6000600460008373ffffffffffffffffffffffffffffffffffffffff1673ffffffffffffffffffffffffffffffffffffffff1681526020019081526020016000209050600073ffffffffffffffffffffffffffffffffffffffff168160000160009054906101000a900473ffffffffffffffffffffffffffffffffffffffff1673ffffffffffffffffffffffffffffffffffffffff161415620005ad576040517f08c379a0000000000000000000000000000000000000000000000000000000008152600401620005a49062001522565b60405180910390fd5b60008160010154118015620005c6575060008160020154115b15620007a5576000816001015490506000826002015490506000836001018190555060008360020181905550600160009054906101000a900473ffffffffffffffffffffffffffffffffffffffff1673ffffffffffffffffffffffffffffffffffffffff1663a9059cbb8460000160009054906101000a900473ffffffffffffffffffffffffffffffffffffffff16846040518363ffffffff1660e01b815260040162000675929190620013ca565b602060405180830381600087803b1580156200069057600080fd5b505af1158015620006a5573d6000803e3d6000fd5b505050506040513d601f19601f82011682018060405250810190620006cb919062000fb6565b6200070d576040517f08c379a00000000000000000000000000000000000000000000000000000000081526004016200070490620014de565b60405180910390fd5b8260000160009054906101000a900473ffffffffffffffffffffffffffffffffffffffff1673ffffffffffffffffffffffffffffffffffffffff1663246132f983836040518363ffffffff1660e01b81526004016200076e92919062001561565b600060405180830381600087803b1580156200078957600080fd5b505af11580156200079e573d6000803e3d6000fd5b5050505050505b5050565b60008060009054906101000a900473ffffffffffffffffffffffffffffffffffffffff16905090565b60025481565b60006003805490501162000823576040517f08c379a00000000000000000000000000000000000000000000000000000000081526004016200081a90620014bc565b60405180910390fd5b60005b600380549050811015620008ba57620008a46003828154811062000873577f4e487b7100000000000000000000000000000000000000000000000000000000600052603260045260246000fd5b9060005260206000200160009054906101000a900473ffffffffffffffffffffffffffffffffffffffff166200048b565b8080620008b190620015e9565b91505062000826565b50565b620008c762000dd4565b73ffffffffffffffffffffffffffffffffffffffff16620008e7620007a9565b73ffffffffffffffffffffffffffffffffffffffff161462000940576040517f08c379a000000000000000000000000000000000000000000000000000000000815260040162000937906200149a565b60405180910390fd5b6000600460008573ffffffffffffffffffffffffffffffffffffffff1673ffffffffffffffffffffffffffffffffffffffff1681526020019081526020016000209050600073ffffffffffffffffffffffffffffffffffffffff168160000160009054906101000a900473ffffffffffffffffffffffffffffffffffffffff1673ffffffffffffffffffffffffffffffffffffffff161462000a19576040517f08c379a000000000000000000000000000000000000000000000000000000000815260040162000a109062001478565b60405180910390fd5b30600160009054906101000a900473ffffffffffffffffffffffffffffffffffffffff168560405162000a4c9062000ea0565b62000a5a939291906200138d565b604051809103906000f08015801562000a77573d6000803e3d6000fd5b508160000160006101000a81548173ffffffffffffffffffffffffffffffffffffffff021916908373ffffffffffffffffffffffffffffffffffffffff1602179055508281600101819055508181600201819055506003849080600181540180825580915050600190039060005260206000200160009091909190916101000a81548173ffffffffffffffffffffffffffffffffffffffff021916908373ffffffffffffffffffffffffffffffffffffffff16021790555050505050565b62000b3f62000dd4565b73ffffffffffffffffffffffffffffffffffffffff1662000b5f620007a9565b73ffffffffffffffffffffffffffffffffffffffff161462000bb8576040517f08c379a000000000000000000000000000000000000000000000000000000000815260040162000baf906200149a565b60405180910390fd5b6000600460008573ffffffffffffffffffffffffffffffffffffffff1673ffffffffffffffffffffffffffffffffffffffff1681526020019081526020016000209050600073ffffffffffffffffffffffffffffffffffffffff168160000160009054906101000a900473ffffffffffffffffffffffffffffffffffffffff1673ffffffffffffffffffffffffffffffffffffffff16141562000c92576040517f08c379a000000000000000000000000000000000000000000000000000000000815260040162000c899062001456565b60405180910390fd5b82816001018190555081816002018190555050505050565b600160009054906101000a900473ffffffffffffffffffffffffffffffffffffffff1681565b62000cda62000dd4565b73ffffffffffffffffffffffffffffffffffffffff1662000cfa620007a9565b73ffffffffffffffffffffffffffffffffffffffff161462000d53576040517f08c379a000000000000000000000000000000000000000000000000000000000815260040162000d4a906200149a565b60405180910390fd5b600073ffffffffffffffffffffffffffffffffffffffff168173ffffffffffffffffffffffffffffffffffffffff16141562000dc6576040517f08c379a000000000000000000000000000000000000000000000000000000000815260040162000dbd9062001434565b60405180910390fd5b62000dd18162000ddc565b50565b600033905090565b60008060009054906101000a900473ffffffffffffffffffffffffffffffffffffffff169050816000806101000a81548173ffffffffffffffffffffffffffffffffffffffff021916908373ffffffffffffffffffffffffffffffffffffffff1602179055508173ffffffffffffffffffffffffffffffffffffffff168173ffffffffffffffffffffffffffffffffffffffff167f8be0079c531659141344cd1fd0a4f28419497f9722a3daafe3b4186f6b6457e060405160405180910390a35050565b61422380620016b583390190565b60008135905062000ebf8162001666565b92915050565b60008151905062000ed68162001680565b92915050565b60008135905062000eed816200169a565b92915050565b60006020828403121562000f0657600080fd5b600062000f168482850162000eae565b91505092915050565b6000806040838503121562000f3357600080fd5b600062000f438582860162000eae565b925050602062000f568582860162000edc565b9150509250929050565b60008060006060848603121562000f7657600080fd5b600062000f868682870162000eae565b935050602062000f998682870162000edc565b925050604062000fac8682870162000edc565b9150509250925092565b60006020828403121562000fc957600080fd5b600062000fd98482850162000ec5565b91505092915050565b60006020828403121562000ff557600080fd5b6000620010058482850162000edc565b91505092915050565b62001019816200159f565b82525050565b60006200102e6026836200158e565b91507f4f776e61626c653a206e6577206f776e657220697320746865207a65726f206160008301527f64647265737300000000000000000000000000000000000000000000000000006020830152604082019050919050565b600062001096602b836200158e565b91507f5374616b696e6752657761726473466163746f72793a3a7570646174653a206e60008301527f6f74206465706c6f7965640000000000000000000000000000000000000000006020830152604082019050919050565b6000620010fe602f836200158e565b91507f5374616b696e6752657761726473466163746f72793a3a6465706c6f793a206160008301527f6c7265616479206465706c6f79656400000000000000000000000000000000006020830152604082019050919050565b6000620011666020836200158e565b91507f4f776e61626c653a2063616c6c6572206973206e6f7420746865206f776e65726000830152602082019050919050565b6000620011a86045836200158e565b91507f5374616b696e6752657761726473466163746f72793a3a6e6f7469667952657760008301527f617264416d6f756e74733a2063616c6c6564206265666f726520616e7920646560208301527f706c6f79730000000000000000000000000000000000000000000000000000006040830152606082019050919050565b600062001236603a836200158e565b91507f5374616b696e6752657761726473466163746f72793a3a6e6f7469667952657760008301527f617264416d6f756e743a207472616e73666572206661696c65640000000000006020830152604082019050919050565b60006200129e6034836200158e565b91507f5374616b696e6752657761726473466163746f72793a3a6e6f7469667952657760008301527f617264416d6f756e743a206e6f742072656164790000000000000000000000006020830152604082019050919050565b6000620013066037836200158e565b91507f5374616b696e6752657761726473466163746f72793a3a6e6f7469667952657760008301527f617264416d6f756e743a206e6f74206465706c6f7965640000000000000000006020830152604082019050919050565b6200136a81620015df565b82525050565b60006020820190506200138760008301846200100e565b92915050565b6000606082019050620013a460008301866200100e565b620013b360208301856200100e565b620013c260408301846200100e565b949350505050565b6000604082019050620013e160008301856200100e565b620013f060208301846200135f565b9392505050565b60006060820190506200140e60008301866200100e565b6200141d60208301856200135f565b6200142c60408301846200135f565b949350505050565b600060208201905081810360008301526200144f816200101f565b9050919050565b60006020820190508181036000830152620014718162001087565b9050919050565b600060208201905081810360008301526200149381620010ef565b9050919050565b60006020820190508181036000830152620014b58162001157565b9050919050565b60006020820190508181036000830152620014d78162001199565b9050919050565b60006020820190508181036000830152620014f98162001227565b9050919050565b600060208201905081810360008301526200151b816200128f565b9050919050565b600060208201905081810360008301526200153d81620012f7565b9050919050565b60006020820190506200155b60008301846200135f565b92915050565b60006040820190506200157860008301856200135f565b6200158760208301846200135f565b9392505050565b600082825260208201905092915050565b6000620015ac82620015bf565b9050919050565b60008115159050919050565b600073ffffffffffffffffffffffffffffffffffffffff82169050919050565b6000819050919050565b6000620015f682620015df565b91507fffffffffffffffffffffffffffffffffffffffffffffffffffffffffffffffff8214156200162c576200162b62001637565b5b600182019050919050565b7f4e487b7100000000000000000000000000000000000000000000000000000000600052601160045260246000fd5b62001671816200159f565b81146200167d57600080fd5b50565b6200168b81620015b3565b81146200169757600080fd5b50565b620016a581620015df565b8114620016b157600080fd5b5056fe6080604052600060045560006005553480156200001b57600080fd5b506040516200422338038062004223833981810160405281019062000041919062000143565b6001808190555081600260006101000a81548173ffffffffffffffffffffffffffffffffffffffff021916908373ffffffffffffffffffffffffffffffffffffffff16021790555080600360006101000a81548173ffffffffffffffffffffffffffffffffffffffff021916908373ffffffffffffffffffffffffffffffffffffffff160217905550826000806101000a81548173ffffffffffffffffffffffffffffffffffffffff021916908373ffffffffffffffffffffffffffffffffffffffff160217905550620d2f00601581905550426013819055506000601481905550505050620001e7565b6000815190506200013d81620001cd565b92915050565b6000806000606084860312156200015957600080fd5b600062000169868287016200012c565b93505060206200017c868287016200012c565b92505060406200018f868287016200012c565b9150509250925092565b6000620001a682620001ad565b9050919050565b600073ffffffffffffffffffffffffffffffffffffffff82169050919050565b620001d88162000199565b8114620001e457600080fd5b50565b61402c80620001f76000396000f3fe608060405234801561001057600080fd5b50600436106102055760003560e01c806372f702f31161011a578063a694fc3a116100ad578063d657ae0c1161007c578063d657ae0c146105e1578063df136d65146105ff578063e5a93d451461061d578063e9fad8ee14610627578063ebe2b12b1461063157610205565b8063a694fc3a1461056b578063c8f33c9114610587578063cd3daf9d146105a5578063d1af0c7d146105c357610205565b80638b876347116100e95780638b876347146104e3578063947a36fb146105135780639e034f74146105315780639f4216e81461053b57610205565b806372f702f31461046d5780637b0a47ee1461048b5780637b4638e7146104a957806380faa57d146104c557610205565b80633d18b9121161019d57806361bc221a1161016c57806361bc221a146103a057806362ffb238146103be5780636e04ff0d146103ee5780636e94d5071461041f57806370a082311461043d57610205565b80633d18b9121461033e5780633f3b3b27146103485780633fc6df6e146103665780634585e33b1461038457610205565b806318160ddd116101d957806318160ddd146102b85780631e9d48cf146102d6578063246132f9146103065780632e1a7d4d1461032257610205565b80628cc2621461020a5780630700037d1461023a5780630d9789b21461026a57806317a950ac14610288575b600080fd5b610224600480360381019061021f9190613262565b61064f565b6040516102319190613cbe565b60405180910390f35b610254600480360381019061024f9190613262565b61076d565b6040516102619190613cbe565b60405180910390f35b610272610785565b60405161027f9190613cbe565b60405180910390f35b6102a2600480360381019061029d9190613262565b6107cc565b6040516102af9190613cbe565b60405180910390f35b6102c0610815565b6040516102cd9190613cbe565b60405180910390f35b6102f060048036038101906102eb9190613262565b61081f565b6040516102fd91906139d6565b60405180910390f35b610320600480360381019061031b919061339a565b610852565b005b61033c600480360381019061033791906132f9565b610c0a565b005b610346610f34565b005b610350611271565b60405161035d9190613cbe565b60405180910390f35b61036e611277565b60405161037b91906139d6565b60405180910390f35b61039e600480360381019061039991906132b4565b61129b565b005b6103a8611534565b6040516103b59190613cbe565b60405180910390f35b6103d860048036038101906103d39190613262565b61153a565b6040516103e59190613cbe565b60405180910390f35b610408600480360381019061040391906132b4565b611552565b604051610416929190613a51565b60405180910390f35b6104276115b8565b6040516104349190613cbe565b60405180910390f35b61045760048036038101906104529190613262565b6115ff565b6040516104649190613cbe565b60405180910390f35b610475611648565b6040516104829190613a81565b60405180910390f35b61049361166e565b6040516104a09190613cbe565b60405180910390f35b6104c360048036038101906104be919061334b565b611674565b005b6104cd611966565b6040516104da9190613cbe565b60405180910390f35b6104fd60048036038101906104f89190613262565b611979565b60405161050a9190613cbe565b60405180910390f35b61051b611991565b6040516105289190613cbe565b60405180910390f35b610539611997565b005b610555600480360381019061055091906132f9565b611dc0565b60405161056291906139d6565b60405180910390f35b610585600480360381019061058091906132f9565b611dff565b005b61058f612115565b60405161059c9190613cbe565b60405180910390f35b6105ad61211b565b6040516105ba9190613cbe565b60405180910390f35b6105cb6121a9565b6040516105d89190613a81565b60405180910390f35b6105e96121cf565b6040516105f69190613cbe565b60405180910390f35b6106076121d9565b6040516106149190613cbe565b60405180910390f35b6106256121df565b005b61062f612467565b005b6106396124b9565b6040516106469190613cbe565b60405180910390f35b6000610766600960008473ffffffffffffffffffffffffffffffffffffffff1673ffffffffffffffffffffffffffffffffffffffff16815260200190815260200160002054610758670de0b6b3a764000061074a6106fc600860008973ffffffffffffffffffffffffffffffffffffffff1673ffffffffffffffffffffffffffffffffffffffff168152602001908152602001600020546106ee61211b565b6124bf90919063ffffffff16565b600f60008973ffffffffffffffffffffffffffffffffffffffff1673ffffffffffffffffffffffffffffffffffffffff168152602001908152602001600020546124d590919063ffffffff16565b6124eb90919063ffffffff16565b61250190919063ffffffff16565b9050919050565b60096020528060005260406000206000915090505481565b6000601260003373ffffffffffffffffffffffffffffffffffffffff1673ffffffffffffffffffffffffffffffffffffffff16815260200190815260200160002054905090565b6000601060008373ffffffffffffffffffffffffffffffffffffffff1673ffffffffffffffffffffffffffffffffffffffff168152602001908152602001600020549050919050565b6000600e54905090565b600b6020528060005260406000206000915054906101000a900473ffffffffffffffffffffffffffffffffffffffff1681565b60008054906101000a900473ffffffffffffffffffffffffffffffffffffffff1673ffffffffffffffffffffffffffffffffffffffff163373ffffffffffffffffffffffffffffffffffffffff16146108e0576040517f08c379a00000000000000000000000000000000000000000000000000000000081526004016108d790613c3e565b60405180910390fd5b60006108ea61211b565b6007819055506108f8611966565b600681905550600073ffffffffffffffffffffffffffffffffffffffff168173ffffffffffffffffffffffffffffffffffffffff16146109c55761093b8161064f565b600960008373ffffffffffffffffffffffffffffffffffffffff1673ffffffffffffffffffffffffffffffffffffffff16815260200190815260200160002081905550600754600860008373ffffffffffffffffffffffffffffffffffffffff1673ffffffffffffffffffffffffffffffffffffffff168152602001908152602001600020819055505b6004546109db834261250190919063ffffffff16565b1015610a1c576040517f08c379a0000000000000000000000000000000000000000000000000000000008152600401610a1390613b7e565b60405180910390fd5b6004544210610a4357610a3882846124eb90919063ffffffff16565b600581905550610aa3565b6000610a5a426004546124bf90919063ffffffff16565b90506000610a73600554836124d590919063ffffffff16565b9050610a9a84610a8c838861250190919063ffffffff16565b6124eb90919063ffffffff16565b60058190555050505b6000600260009054906101000a900473ffffffffffffffffffffffffffffffffffffffff1673ffffffffffffffffffffffffffffffffffffffff166370a08231306040518263ffffffff1660e01b8152600401610b0091906139d6565b60206040518083038186803b158015610b1857600080fd5b505afa158015610b2c573d6000803e3d6000fd5b505050506040513d601f19601f82011682018060405250810190610b509190613322565b9050610b6583826124eb90919063ffffffff16565b6005541115610ba9576040517f08c379a0000000000000000000000000000000000000000000000000000000008152600401610ba090613bbe565b60405180910390fd5b42600681905550610bc3834261250190919063ffffffff16565b6004819055507f6c07ee05dcf262f13abf9d87b846ee789d2f90fe991d495acd7d7fc109ee1f5584600454604051610bfc929190613cd9565b60405180910390a150505050565b60026001541415610c50576040517f08c379a0000000000000000000000000000000000000000000000000000000008152600401610c4790613c9e565b60405180910390fd5b600260018190555033610c6161211b565b600781905550610c6f611966565b600681905550600073ffffffffffffffffffffffffffffffffffffffff168173ffffffffffffffffffffffffffffffffffffffff1614610d3c57610cb28161064f565b600960008373ffffffffffffffffffffffffffffffffffffffff1673ffffffffffffffffffffffffffffffffffffffff16815260200190815260200160002081905550600754600860008373ffffffffffffffffffffffffffffffffffffffff1673ffffffffffffffffffffffffffffffffffffffff168152602001908152602001600020819055505b60008211610d7f576040517f08c379a0000000000000000000000000000000000000000000000000000000008152600401610d7690613b9e565b60405180910390fd5b601160003373ffffffffffffffffffffffffffffffffffffffff1673ffffffffffffffffffffffffffffffffffffffff168152602001908152602001600020544211610e00576040517f08c379a0000000000000000000000000000000000000000000000000000000008152600401610df790613c5e565b60405180910390fd5b600a60003373ffffffffffffffffffffffffffffffffffffffff1673ffffffffffffffffffffffffffffffffffffffff16815260200190815260200160002054421015610e82576040517f08c379a0000000000000000000000000000000000000000000000000000000008152600401610e7990613b3e565b60405180910390fd5b610e8e33836000612517565b610edb3383600360009054906101000a900473ffffffffffffffffffffffffffffffffffffffff1673ffffffffffffffffffffffffffffffffffffffff16612a0e9092919063ffffffff16565b3373ffffffffffffffffffffffffffffffffffffffff167f7084f5476618d8e60b11ef0d7d3f06914655adb8793e28ff7f018d4c76d505d583604051610f219190613cbe565b60405180910390a2506001808190555050565b60026001541415610f7a576040517f08c379a0000000000000000000000000000000000000000000000000000000008152600401610f7190613c9e565b60405180910390fd5b600260018190555033610f8b61211b565b600781905550610f99611966565b600681905550600073ffffffffffffffffffffffffffffffffffffffff168173ffffffffffffffffffffffffffffffffffffffff161461106657610fdc8161064f565b600960008373ffffffffffffffffffffffffffffffffffffffff1673ffffffffffffffffffffffffffffffffffffffff16815260200190815260200160002081905550600754600860008373ffffffffffffffffffffffffffffffffffffffff1673ffffffffffffffffffffffffffffffffffffffff168152602001908152602001600020819055505b6000600960003373ffffffffffffffffffffffffffffffffffffffff1673ffffffffffffffffffffffffffffffffffffffff168152602001908152602001600020549050601260003373ffffffffffffffffffffffffffffffffffffffff1673ffffffffffffffffffffffffffffffffffffffff16815260200190815260200160002054421161112b576040517f08c379a000000000000000000000000000000000000000000000000000000000815260040161112290613ade565b60405180910390fd5b6000811115611266576000600960003373ffffffffffffffffffffffffffffffffffffffff1673ffffffffffffffffffffffffffffffffffffffff168152602001908152602001600020819055506111c63382600260009054906101000a900473ffffffffffffffffffffffffffffffffffffffff1673ffffffffffffffffffffffffffffffffffffffff16612a0e9092919063ffffffff16565b610258426111d49190613d45565b601260003373ffffffffffffffffffffffffffffffffffffffff1673ffffffffffffffffffffffffffffffffffffffff168152602001908152602001600020819055503373ffffffffffffffffffffffffffffffffffffffff167fe2403640ba68fed3a2f88b7557551d1993f84b99bb10ff833f0cf8db0c5e04868260405161125d9190613cbe565b60405180910390a25b505060018081905550565b60135481565b60008054906101000a900473ffffffffffffffffffffffffffffffffffffffff1681565b601554601354426112ac9190613e26565b116112ec576040517f08c379a00000000000000000000000000000000000000000000000000000000081526004016112e390613afe565b60405180910390fd5b4260138190555060016014546113029190613d45565b6014819055506000600c80548060200260200160405190810160405280929190818152602001828054801561138c57602002820191906000526020600020905b8160009054906101000a900473ffffffffffffffffffffffffffffffffffffffff1673ffffffffffffffffffffffffffffffffffffffff1681526020019060010190808311611342575b50505050509050600061139d61211b565b905060005b825181101561152d5760008382815181106113e6577f4e487b7100000000000000000000000000000000000000000000000000000000600052603260045260246000fd5b602002602001015190506000600960008373ffffffffffffffffffffffffffffffffffffffff1673ffffffffffffffffffffffffffffffffffffffff168152602001908152602001600020541415806114ca57506000600f60008373ffffffffffffffffffffffffffffffffffffffff1673ffffffffffffffffffffffffffffffffffffffff16815260200190815260200160002054141580156114c95750600860008273ffffffffffffffffffffffffffffffffffffffff1673ffffffffffffffffffffffffffffffffffffffff168152602001908152602001600020548314155b5b156115195761151884838151811061150b577f4e487b7100000000000000000000000000000000000000000000000000000000600052603260045260246000fd5b6020026020010151612a94565b5b50808061152590613ef9565b9150506113a2565b5050505050565b60145481565b600a6020528060005260406000206000915090505481565b60006060601554601354426115679190613e26565b11915083838080601f016020809104026020016040519081016040528093929190818152602001838380828437600081840152601f19601f8201169050808301925050505050505090509250929050565b6000601160003373ffffffffffffffffffffffffffffffffffffffff1673ffffffffffffffffffffffffffffffffffffffff16815260200190815260200160002054905090565b6000600f60008373ffffffffffffffffffffffffffffffffffffffff1673ffffffffffffffffffffffffffffffffffffffff168152602001908152602001600020549050919050565b600360009054906101000a900473ffffffffffffffffffffffffffffffffffffffff1681565b60055481565b600260015414156116ba576040517f08c379a00000000000000000000000000000000000000000000000000000000081526004016116b190613c9e565b60405180910390fd5b6002600181905550816116cb61211b565b6007819055506116d9611966565b600681905550600073ffffffffffffffffffffffffffffffffffffffff168173ffffffffffffffffffffffffffffffffffffffff16146117a65761171c8161064f565b600960008373ffffffffffffffffffffffffffffffffffffffff1673ffffffffffffffffffffffffffffffffffffffff16815260200190815260200160002081905550600754600860008373ffffffffffffffffffffffffffffffffffffffff1673ffffffffffffffffffffffffffffffffffffffff168152602001908152602001600020819055505b600084116117e9576040517f08c379a00000000000000000000000000000000000000000000000000000000081526004016117e090613abe565b60405180910390fd5b6000600f60008573ffffffffffffffffffffffffffffffffffffffff1673ffffffffffffffffffffffffffffffffffffffff16815260200190815260200160002054111561186c576040517f08c379a000000000000000000000000000000000000000000000000000000000815260040161186390613bfe565b60405180910390fd5b61187883856001612517565b81600a60008573ffffffffffffffffffffffffffffffffffffffff1673ffffffffffffffffffffffffffffffffffffffff1681526020019081526020016000208190555061190b333086600360009054906101000a900473ffffffffffffffffffffffffffffffffffffffff1673ffffffffffffffffffffffffffffffffffffffff16612e0e909392919063ffffffff16565b8273ffffffffffffffffffffffffffffffffffffffff167f9e71bc8eea02a63969f509818f2dafb9254532904319f9dbda79b67bd34a5f3d856040516119519190613cbe565b60405180910390a25060018081905550505050565b600061197442600454612e97565b905090565b60086020528060005260406000206000915090505481565b60155481565b600260015414156119dd576040517f08c379a00000000000000000000000000000000000000000000000000000000081526004016119d490613c9e565b60405180910390fd5b60026001819055506000600f60003373ffffffffffffffffffffffffffffffffffffffff1673ffffffffffffffffffffffffffffffffffffffff1681526020019081526020016000205411611a67576040517f08c379a0000000000000000000000000000000000000000000000000000000008152600401611a5e90613bde565b60405180910390fd5b3373ffffffffffffffffffffffffffffffffffffffff16600b60003373ffffffffffffffffffffffffffffffffffffffff1673ffffffffffffffffffffffffffffffffffffffff16815260200190815260200160002060009054906101000a900473ffffffffffffffffffffffffffffffffffffffff1673ffffffffffffffffffffffffffffffffffffffff1614611b34576040517f08c379a0000000000000000000000000000000000000000000000000000000008152600401611b2b90613b5e565b60405180910390fd5b6000600c805480602002602001604051908101604052809291908181526020018280548015611bb857602002820191906000526020600020905b8160009054906101000a900473ffffffffffffffffffffffffffffffffffffffff1673ffffffffffffffffffffffffffffffffffffffff1681526020019060010190808311611b6e575b5050505050905060005b8151811015611d9e573373ffffffffffffffffffffffffffffffffffffffff16828281518110611c1b577f4e487b7100000000000000000000000000000000000000000000000000000000600052603260045260246000fd5b602002602001015173ffffffffffffffffffffffffffffffffffffffff161415611d8b578160018351611c4e9190613e26565b81518110611c85577f4e487b7100000000000000000000000000000000000000000000000000000000600052603260045260246000fd5b6020026020010151828281518110611cc6577f4e487b7100000000000000000000000000000000000000000000000000000000600052603260045260246000fd5b602002602001019073ffffffffffffffffffffffffffffffffffffffff16908173ffffffffffffffffffffffffffffffffffffffff16815250506000600b60003373ffffffffffffffffffffffffffffffffffffffff1673ffffffffffffffffffffffffffffffffffffffff16815260200190815260200160002060006101000a81548173ffffffffffffffffffffffffffffffffffffffff021916908373ffffffffffffffffffffffffffffffffffffffff16021790555060018251038252611d9e565b8080611d9690613ef9565b915050611bc2565b5080600c9080519060200190611db592919061311d565b505060018081905550565b600c8181548110611dd057600080fd5b906000526020600020016000915054906101000a900473ffffffffffffffffffffffffffffffffffffffff1681565b60026001541415611e45576040517f08c379a0000000000000000000000000000000000000000000000000000000008152600401611e3c90613c9e565b60405180910390fd5b600260018190555033611e5661211b565b600781905550611e64611966565b600681905550600073ffffffffffffffffffffffffffffffffffffffff168173ffffffffffffffffffffffffffffffffffffffff1614611f3157611ea78161064f565b600960008373ffffffffffffffffffffffffffffffffffffffff1673ffffffffffffffffffffffffffffffffffffffff16815260200190815260200160002081905550600754600860008373ffffffffffffffffffffffffffffffffffffffff1673ffffffffffffffffffffffffffffffffffffffff168152602001908152602001600020819055505b60008211611f74576040517f08c379a0000000000000000000000000000000000000000000000000000000008152600401611f6b90613abe565b60405180910390fd5b611f8033836001612517565b611fcf333084600360009054906101000a900473ffffffffffffffffffffffffffffffffffffffff1673ffffffffffffffffffffffffffffffffffffffff16612e0e909392919063ffffffff16565b6001601160003373ffffffffffffffffffffffffffffffffffffffff1673ffffffffffffffffffffffffffffffffffffffff1681526020019081526020016000205410156120bc576276a700426120269190613d45565b601160003373ffffffffffffffffffffffffffffffffffffffff1673ffffffffffffffffffffffffffffffffffffffff168152602001908152602001600020819055506276a700426120789190613d45565b601260003373ffffffffffffffffffffffffffffffffffffffff1673ffffffffffffffffffffffffffffffffffffffff168152602001908152602001600020819055505b3373ffffffffffffffffffffffffffffffffffffffff167f9e71bc8eea02a63969f509818f2dafb9254532904319f9dbda79b67bd34a5f3d836040516121029190613cbe565b60405180910390a2506001808190555050565b60065481565b600080600e5414156121315760075490506121a6565b6121a3612192600e54612184670de0b6b3a764000061217660055461216860065461215a611966565b6124bf90919063ffffffff16565b6124d590919063ffffffff16565b6124d590919063ffffffff16565b6124eb90919063ffffffff16565b60075461250190919063ffffffff16565b90505b90565b600260009054906101000a900473ffffffffffffffffffffffffffffffffffffffff1681565b6000600d54905090565b60075481565b60026001541415612225576040517f08c379a000000000000000000000000000000000000000000000000000000000815260040161221c90613c9e565b60405180910390fd5b60026001819055506000600f60003373ffffffffffffffffffffffffffffffffffffffff1673ffffffffffffffffffffffffffffffffffffffff16815260200190815260200160002054116122af576040517f08c379a00000000000000000000000000000000000000000000000000000000081526004016122a690613bde565b60405180910390fd5b3373ffffffffffffffffffffffffffffffffffffffff16600b60003373ffffffffffffffffffffffffffffffffffffffff1673ffffffffffffffffffffffffffffffffffffffff16815260200190815260200160002060009054906101000a900473ffffffffffffffffffffffffffffffffffffffff1673ffffffffffffffffffffffffffffffffffffffff16141561237d576040517f08c379a000000000000000000000000000000000000000000000000000000000815260040161237490613b5e565b60405180910390fd5b33600b60003373ffffffffffffffffffffffffffffffffffffffff1673ffffffffffffffffffffffffffffffffffffffff16815260200190815260200160002060006101000a81548173ffffffffffffffffffffffffffffffffffffffff021916908373ffffffffffffffffffffffffffffffffffffffff160217905550600c339080600181540180825580915050600190039060005260206000200160009091909190916101000a81548173ffffffffffffffffffffffffffffffffffffffff021916908373ffffffffffffffffffffffffffffffffffffffff16021790555060018081905550565b6124af601060003373ffffffffffffffffffffffffffffffffffffffff1673ffffffffffffffffffffffffffffffffffffffff16815260200190815260200160002054610c0a565b6124b7610f34565b565b60045481565b600081836124cd9190613e26565b905092915050565b600081836124e39190613dcc565b905092915050565b600081836124f99190613d9b565b905092915050565b6000818361250f9190613d45565b905092915050565b80156125d25761253282600d5461250190919063ffffffff16565b600d8190555061258a82601060008673ffffffffffffffffffffffffffffffffffffffff1673ffffffffffffffffffffffffffffffffffffffff1681526020019081526020016000205461250190919063ffffffff16565b601060008573ffffffffffffffffffffffffffffffffffffffff1673ffffffffffffffffffffffffffffffffffffffff16815260200190815260200160002081905550612683565b6125e782600d546124bf90919063ffffffff16565b600d8190555061263f82601060008673ffffffffffffffffffffffffffffffffffffffff1673ffffffffffffffffffffffffffffffffffffffff168152602001908152602001600020546124bf90919063ffffffff16565b601060008573ffffffffffffffffffffffffffffffffffffffff1673ffffffffffffffffffffffffffffffffffffffff168152602001908152602001600020819055505b600063b2d05e00601060008673ffffffffffffffffffffffffffffffffffffffff1673ffffffffffffffffffffffffffffffffffffffff16815260200190815260200160002054106126d85760649050612871565b6359682f00601060008673ffffffffffffffffffffffffffffffffffffffff1673ffffffffffffffffffffffffffffffffffffffff168152602001908152602001600020541015801561276d575063b2d05e00601060008673ffffffffffffffffffffffffffffffffffffffff1673ffffffffffffffffffffffffffffffffffffffff16815260200190815260200160002054105b1561277b57604b9050612870565b631dcd6500601060008673ffffffffffffffffffffffffffffffffffffffff1673ffffffffffffffffffffffffffffffffffffffff168152602001908152602001600020541015801561281057506359682f00601060008673ffffffffffffffffffffffffffffffffffffffff1673ffffffffffffffffffffffffffffffffffffffff16815260200190815260200160002054105b1561281e57603f905061286f565b631dcd6500601060008673ffffffffffffffffffffffffffffffffffffffff1673ffffffffffffffffffffffffffffffffffffffff16815260200190815260200160002054101561286e57603290505b5b5b5b600060646128c783601060008973ffffffffffffffffffffffffffffffffffffffff1673ffffffffffffffffffffffffffffffffffffffff168152602001908152602001600020546124d590919063ffffffff16565b6128d19190613d9b565b9050821561295057600061292d600f60008873ffffffffffffffffffffffffffffffffffffffff1673ffffffffffffffffffffffffffffffffffffffff16815260200190815260200160002054836124bf90919063ffffffff16565b905061294481600e5461250190919063ffffffff16565b600e81905550506129c3565b60006129a482600f60008973ffffffffffffffffffffffffffffffffffffffff1673ffffffffffffffffffffffffffffffffffffffff168152602001908152602001600020546124bf90919063ffffffff16565b90506129bb81600e546124bf90919063ffffffff16565b600e81905550505b80600f60008773ffffffffffffffffffffffffffffffffffffffff1673ffffffffffffffffffffffffffffffffffffffff168152602001908152602001600020819055505050505050565b612a8f8363a9059cbb60e01b8484604051602401612a2d929190613a28565b604051602081830303815290604052907bffffffffffffffffffffffffffffffffffffffffffffffffffffffff19166020820180517bffffffffffffffffffffffffffffffffffffffffffffffffffffffff8381831617835250505050612eb0565b505050565b60026001541415612ada576040517f08c379a0000000000000000000000000000000000000000000000000000000008152600401612ad190613c9e565b60405180910390fd5b600260018190555080612aeb61211b565b600781905550612af9611966565b600681905550600073ffffffffffffffffffffffffffffffffffffffff168173ffffffffffffffffffffffffffffffffffffffff1614612bc657612b3c8161064f565b600960008373ffffffffffffffffffffffffffffffffffffffff1673ffffffffffffffffffffffffffffffffffffffff16815260200190815260200160002081905550600754600860008373ffffffffffffffffffffffffffffffffffffffff1673ffffffffffffffffffffffffffffffffffffffff168152602001908152602001600020819055505b6000612bd18361064f565b905060008111612c16576040517f08c379a0000000000000000000000000000000000000000000000000000000008152600401612c0d90613abe565b60405180910390fd5b6000612c218461064f565b1115612e0257612c3383826001612517565b6001601160008573ffffffffffffffffffffffffffffffffffffffff1673ffffffffffffffffffffffffffffffffffffffff168152602001908152602001600020541015612d20576276a70042612c8a9190613d45565b601160008573ffffffffffffffffffffffffffffffffffffffff1673ffffffffffffffffffffffffffffffffffffffff168152602001908152602001600020819055506276a70042612cdc9190613d45565b601260008573ffffffffffffffffffffffffffffffffffffffff1673ffffffffffffffffffffffffffffffffffffffff168152602001908152602001600020819055505b6000600960008573ffffffffffffffffffffffffffffffffffffffff1673ffffffffffffffffffffffffffffffffffffffff168152602001908152602001600020819055508273ffffffffffffffffffffffffffffffffffffffff167fe2403640ba68fed3a2f88b7557551d1993f84b99bb10ff833f0cf8db0c5e048682604051612dab9190613cbe565b60405180910390a28273ffffffffffffffffffffffffffffffffffffffff167f9e71bc8eea02a63969f509818f2dafb9254532904319f9dbda79b67bd34a5f3d82604051612df99190613cbe565b60405180910390a25b50506001808190555050565b612e91846323b872dd60e01b858585604051602401612e2f939291906139f1565b604051602081830303815290604052907bffffffffffffffffffffffffffffffffffffffffffffffffffffffff19166020820180517bffffffffffffffffffffffffffffffffffffffffffffffffffffffff8381831617835250505050612eb0565b50505050565b6000818310612ea65781612ea8565b825b905092915050565b6000612f12826040518060400160405280602081526020017f5361666545524332303a206c6f772d6c6576656c2063616c6c206661696c65648152508573ffffffffffffffffffffffffffffffffffffffff16612f779092919063ffffffff16565b9050600081511115612f725780806020019051810190612f32919061328b565b612f71576040517f08c379a0000000000000000000000000000000000000000000000000000000008152600401612f6890613c7e565b60405180910390fd5b5b505050565b6060612f868484600085612f8f565b90509392505050565b606082471015612fd4576040517f08c379a0000000000000000000000000000000000000000000000000000000008152600401612fcb90613b1e565b60405180910390fd5b612fdd856130a3565b61301c576040517f08c379a000000000000000000000000000000000000000000000000000000000815260040161301390613c1e565b60405180910390fd5b6000808673ffffffffffffffffffffffffffffffffffffffff16858760405161304591906139bf565b60006040518083038185875af1925050503d8060008114613082576040519150601f19603f3d011682016040523d82523d6000602084013e613087565b606091505b50915091506130978282866130b6565b92505050949350505050565b600080823b905060008111915050919050565b606083156130c657829050613116565b6000835111156130d95782518084602001fd5b816040517f08c379a000000000000000000000000000000000000000000000000000000000815260040161310d9190613a9c565b60405180910390fd5b9392505050565b828054828255906000526020600020908101928215613196579160200282015b828111156131955782518260006101000a81548173ffffffffffffffffffffffffffffffffffffffff021916908373ffffffffffffffffffffffffffffffffffffffff1602179055509160200191906001019061313d565b5b5090506131a391906131a7565b5090565b5b808211156131c05760008160009055506001016131a8565b5090565b6000813590506131d381613fb1565b92915050565b6000815190506131e881613fc8565b92915050565b60008083601f84011261320057600080fd5b8235905067ffffffffffffffff81111561321957600080fd5b60208301915083600182028301111561323157600080fd5b9250929050565b60008135905061324781613fdf565b92915050565b60008151905061325c81613fdf565b92915050565b60006020828403121561327457600080fd5b6000613282848285016131c4565b91505092915050565b60006020828403121561329d57600080fd5b60006132ab848285016131d9565b91505092915050565b600080602083850312156132c757600080fd5b600083013567ffffffffffffffff8111156132e157600080fd5b6132ed858286016131ee565b92509250509250929050565b60006020828403121561330b57600080fd5b600061331984828501613238565b91505092915050565b60006020828403121561333457600080fd5b60006133428482850161324d565b91505092915050565b60008060006060848603121561336057600080fd5b600061336e86828701613238565b935050602061337f868287016131c4565b925050604061339086828701613238565b9150509250925092565b600080604083850312156133ad57600080fd5b60006133bb85828601613238565b92505060206133cc85828601613238565b9150509250929050565b6133df81613e5a565b82525050565b6133ee81613e6c565b82525050565b60006133ff82613d02565b6134098185613d18565b9350613419818560208601613ec6565b61342281613fa0565b840191505092915050565b600061343882613d02565b6134428185613d29565b9350613452818560208601613ec6565b80840191505092915050565b61346781613ea2565b82525050565b600061347882613d0d565b6134828185613d34565b9350613492818560208601613ec6565b61349b81613fa0565b840191505092915050565b60006134b3600e83613d34565b91507f43616e6e6f74207374616b6520300000000000000000000000000000000000006000830152602082019050919050565b60006134f3602c83613d34565b91507f43616e6e6f74207769746864726177206265666f7265206c6f636b696e67207260008301527f657761726420706572696f6400000000000000000000000000000000000000006020830152604082019050919050565b6000613559602283613d34565b91507f4175746f20636f6d706f756e6420696e74657276616c206e6f7420726561636860008301527f65640000000000000000000000000000000000000000000000000000000000006020830152604082019050919050565b60006135bf602683613d34565b91507f416464726573733a20696e73756666696369656e742062616c616e636520666f60008301527f722063616c6c00000000000000000000000000000000000000000000000000006020830152604082019050919050565b6000613625602483613d34565b91507f556e61626c6520746f20776974686472617720696e206c6f636b696e6720706560008301527f72696f64000000000000000000000000000000000000000000000000000000006020830152604082019050919050565b600061368b601c83613d34565b91507f416c726561647920616464656420696e20636f6d706f756e64696e67000000006000830152602082019050919050565b60006136cb601d83613d34565b91507f43616e6e6f7420726564756365206578697374696e6720706572696f640000006000830152602082019050919050565b600061370b601183613d34565b91507f43616e6e6f7420776974686472617720300000000000000000000000000000006000830152602082019050919050565b600061374b601883613d34565b91507f50726f76696465642072657761726420746f6f206869676800000000000000006000830152602082019050919050565b600061378b600c83613d34565b91507f4e6f742061207374616b657200000000000000000000000000000000000000006000830152602082019050919050565b60006137cb601683613d34565b91507f416c7265616479207374616b65642062792075736572000000000000000000006000830152602082019050919050565b600061380b601d83613d34565b91507f416464726573733a2063616c6c20746f206e6f6e2d636f6e74726163740000006000830152602082019050919050565b600061384b602a83613d34565b91507f43616c6c6572206973206e6f742052657761726473446973747269627574696f60008301527f6e20636f6e7472616374000000000000000000000000000000000000000000006020830152604082019050919050565b60006138b1603083613d34565b91507f43616e6e6f74207769746864726177206265666f72652036206d6f6e7468206660008301527f726f6d20696e6974616c207374616b65000000000000000000000000000000006020830152604082019050919050565b6000613917602a83613d34565b91507f5361666545524332303a204552433230206f7065726174696f6e20646964206e60008301527f6f742073756363656564000000000000000000000000000000000000000000006020830152604082019050919050565b600061397d601f83613d34565b91507f5265656e7472616e637947756172643a207265656e7472616e742063616c6c006000830152602082019050919050565b6139b981613e98565b82525050565b60006139cb828461342d565b915081905092915050565b60006020820190506139eb60008301846133d6565b92915050565b6000606082019050613a0660008301866133d6565b613a1360208301856133d6565b613a2060408301846139b0565b949350505050565b6000604082019050613a3d60008301856133d6565b613a4a60208301846139b0565b9392505050565b6000604082019050613a6660008301856133e5565b8181036020830152613a7881846133f4565b90509392505050565b6000602082019050613a96600083018461345e565b92915050565b60006020820190508181036000830152613ab6818461346d565b905092915050565b60006020820190508181036000830152613ad7816134a6565b9050919050565b60006020820190508181036000830152613af7816134e6565b9050919050565b60006020820190508181036000830152613b178161354c565b9050919050565b60006020820190508181036000830152613b37816135b2565b9050919050565b60006020820190508181036000830152613b5781613618565b9050919050565b60006020820190508181036000830152613b778161367e565b9050919050565b60006020820190508181036000830152613b97816136be565b9050919050565b60006020820190508181036000830152613bb7816136fe565b9050919050565b60006020820190508181036000830152613bd78161373e565b9050919050565b60006020820190508181036000830152613bf78161377e565b9050919050565b60006020820190508181036000830152613c17816137be565b9050919050565b60006020820190508181036000830152613c37816137fe565b9050919050565b60006020820190508181036000830152613c578161383e565b9050919050565b60006020820190508181036000830152613c77816138a4565b9050919050565b60006020820190508181036000830152613c978161390a565b9050919050565b60006020820190508181036000830152613cb781613970565b9050919050565b6000602082019050613cd360008301846139b0565b92915050565b6000604082019050613cee60008301856139b0565b613cfb60208301846139b0565b9392505050565b600081519050919050565b600081519050919050565b600082825260208201905092915050565b600081905092915050565b600082825260208201905092915050565b6000613d5082613e98565b9150613d5b83613e98565b9250827fffffffffffffffffffffffffffffffffffffffffffffffffffffffffffffffff03821115613d9057613d8f613f42565b5b828201905092915050565b6000613da682613e98565b9150613db183613e98565b925082613dc157613dc0613f71565b5b828204905092915050565b6000613dd782613e98565b9150613de283613e98565b9250817fffffffffffffffffffffffffffffffffffffffffffffffffffffffffffffffff0483118215151615613e1b57613e1a613f42565b5b828202905092915050565b6000613e3182613e98565b9150613e3c83613e98565b925082821015613e4f57613e4e613f42565b5b828203905092915050565b6000613e6582613e78565b9050919050565b60008115159050919050565b600073ffffffffffffffffffffffffffffffffffffffff82169050919050565b6000819050919050565b6000613ead82613eb4565b9050919050565b6000613ebf82613e78565b9050919050565b60005b83811015613ee4578082015181840152602081019050613ec9565b83811115613ef3576000848401525b50505050565b6000613f0482613e98565b91507fffffffffffffffffffffffffffffffffffffffffffffffffffffffffffffffff821415613f3757613f36613f42565b5b600182019050919050565b7f4e487b7100000000000000000000000000000000000000000000000000000000600052601160045260246000fd5b7f4e487b7100000000000000000000000000000000000000000000000000000000600052601260045260246000fd5b6000601f19601f8301169050919050565b613fba81613e5a565b8114613fc557600080fd5b50565b613fd181613e6c565b8114613fdc57600080fd5b50565b613fe881613e98565b8114613ff357600080fd5b5056fea2646970667358221220c946b176d27aabd9d7761cf219f6c9f0f066ccb0b26869d948464122f976900764736f6c63430008000033a2646970667358221220d0f1e30e0d7c6929fff7e702cc4aedd799072622cd62a94ae14c92ff0551c49d64736f6c63430008000033",
  "immutableReferences": {},
  "source": "// SPDX-License-Identifier: MIT\r\npragma solidity ^0.8.0;\r\n\r\nimport \"@openzeppelin/contracts/token/ERC20/IERC20.sol\";\r\nimport \"@openzeppelin/contracts/access/Ownable.sol\";\r\nimport \"@openzeppelin/contracts/utils/math/SafeMath.sol\";\r\nimport \"@openzeppelin/contracts/utils/math/Math.sol\";\r\nimport \"@openzeppelin/contracts/utils/Address.sol\";\r\nimport \"@openzeppelin/contracts/token/ERC20/utils/SafeERC20.sol\";\r\nimport \"@openzeppelin/contracts/security/ReentrancyGuard.sol\";\r\nimport \"./IStakingRewards.sol\";\r\nimport \"./RewardsDistributionRecipient.sol\";\r\nimport \"./KeeperCompatibleInterface.sol\";\r\n\r\ncontract StakingRewards is\r\n  IStakingRewards,\r\n  RewardsDistributionRecipient,\r\n  ReentrancyGuard,\r\n  KeeperCompatibleInterface\r\n{\r\n  using SafeMath for uint256;\r\n  using SafeERC20 for IERC20;\r\n\r\n  /* ========== STATE VARIABLES ========== */\r\n\r\n  IERC20 public rewardsToken;\r\n  IERC20 public stakingToken;\r\n  uint256 public periodFinish = 0;\r\n  uint256 public rewardRate = 0;\r\n  uint256 public lastUpdateTime;\r\n  uint256 public rewardPerTokenStored;\r\n\r\n  mapping(address => uint256) public userRewardPerTokenPaid;\r\n  mapping(address => uint256) public rewards;\r\n  mapping(address => uint256) public _lockingTimeStamp;\r\n  mapping(address => address) public checkUser;\r\n  address[] public userList;\r\n\r\n  uint256 private _actualtotalSupply; //  actual total amount staked\r\n  uint256 private _totalSupply; // weight total Stake amount according to tier\r\n\r\n  mapping(address => uint256) private _balances; // weight Stake amount\r\n  mapping(address => uint256) private _actualbalances; // actual amount staked\r\n\r\n  mapping(address => uint256) private _userLockPeriod; // allow unstake after 3 months from firstStake timestamp\r\n  mapping(address => uint256) private _userRewardLockPeriod; // claim reward every 3 months\r\n\r\n  uint256 public lastTimeStamp;\r\n\r\n  /**\r\n   * Public counter variable\r\n   */\r\n  uint256 public counter;\r\n\r\n  uint256 public interval;\r\n\r\n  /* ========== CONSTRUCTOR ========== */\r\n\r\n  constructor(\r\n    address _rewardsDistribution,\r\n    address _rewardsToken,\r\n    address _stakingToken\r\n  ) {\r\n    rewardsToken = IERC20(_rewardsToken);\r\n    stakingToken = IERC20(_stakingToken);\r\n    rewardsDistribution = _rewardsDistribution;\r\n\r\n    interval = 864000;         // 10 day check interval\r\n    lastTimeStamp = block.timestamp;\r\n\r\n    counter = 0;\r\n  }\r\n\r\n  /* ========== VIEWS ========== */\r\n  function userLockPeriod() external view override returns (uint256) {\r\n    return _userLockPeriod[msg.sender];\r\n  }\r\n\r\n  function userRewardLockPeriod() external view override returns (uint256) {\r\n    return _userRewardLockPeriod[msg.sender];\r\n  }\r\n\r\n  function totalSupply() external view override returns (uint256) {\r\n    return _totalSupply;\r\n  }\r\n\r\n  function balanceOf(address account) external view override returns (uint256) {\r\n    return _balances[account];\r\n  }\r\n\r\n  function actualTotalSupply() external view returns (uint256) {\r\n    return _actualtotalSupply;\r\n  }\r\n\r\n  function actualBalanceOf(address account) external view returns (uint256) {\r\n    return _actualbalances[account];\r\n  }\r\n\r\n  function lastTimeRewardApplicable() public view override returns (uint256) {\r\n    return Math.min(block.timestamp, periodFinish);\r\n  }\r\n\r\n  function rewardPerToken() public view override returns (uint256) {\r\n    if (_totalSupply == 0) {\r\n      return rewardPerTokenStored;\r\n    }\r\n    return\r\n      rewardPerTokenStored.add(\r\n        lastTimeRewardApplicable()\r\n          .sub(lastUpdateTime)\r\n          .mul(rewardRate)\r\n          .mul(1e18)\r\n          .div(_totalSupply)\r\n      );\r\n  }\r\n\r\n  function earned(address account) public view override returns (uint256) {\r\n    return\r\n      _balances[account]\r\n        .mul(rewardPerToken().sub(userRewardPerTokenPaid[account]))\r\n        .div(1e18)\r\n        .add(rewards[account]);\r\n  }\r\n\r\n  /* ========== MUTATIVE FUNCTIONS ========== */\r\n\r\n  function stake(uint256 amount)\r\n    external\r\n    override\r\n    nonReentrant\r\n    updateReward(msg.sender)\r\n  {\r\n    require(amount > 0, \"Cannot stake 0\");\r\n\r\n    _updateBalance(msg.sender, amount, true);\r\n\r\n    stakingToken.safeTransferFrom(msg.sender, address(this), amount);\r\n\r\n    // update at inital stake\r\n    if (_userLockPeriod[msg.sender] < 1) {\r\n      _userLockPeriod[msg.sender] = block.timestamp + 90 days; // for withdraw locking\r\n      _userRewardLockPeriod[msg.sender] = block.timestamp + 90 days; // for reward locking\r\n    }\r\n\r\n    emit Staked(msg.sender, amount);\r\n  }\r\n\r\n  function stakeComponding(address uaddress)\r\n    internal\r\n    nonReentrant\r\n    updateReward(uaddress)\r\n  {\r\n    uint256 rewardAmt = earned(uaddress);\r\n    require(rewardAmt > 0, \"Cannot stake 0\");\r\n    if (earned(uaddress) > 0) {\r\n      _updateBalance(uaddress, rewardAmt, true);\r\n\r\n      // stakingToken.safeTransferFrom(uaddress, address(this), amount);\r\n\r\n      // update at inital stake\r\n      if (_userLockPeriod[uaddress] < 1) {\r\n        _userLockPeriod[uaddress] = block.timestamp + 90 days; // for withdraw locking\r\n        _userRewardLockPeriod[uaddress] = block.timestamp + 90 days; // for reward locking\r\n      }\r\n\r\n      rewards[uaddress] = 0; // setting user reward to zero since its added to stake\r\n      emit RewardPaid(uaddress, rewardAmt);\r\n\r\n      emit Staked(uaddress, rewardAmt);\r\n    }\r\n  }\r\n\r\n  function stakeTransferWithBalance(\r\n    uint256 amount,\r\n    address useraddress,\r\n    uint256 lockingPeriod\r\n  ) external nonReentrant updateReward(useraddress) {\r\n    require(amount > 0, \"Cannot stake 0\");\r\n    require(_balances[useraddress] <= 0, \"Already staked by user\");\r\n\r\n    _updateBalance(useraddress, amount, true);\r\n\r\n    _lockingTimeStamp[useraddress] = lockingPeriod; // setting user locking ts\r\n\r\n    stakingToken.safeTransferFrom(msg.sender, address(this), amount);\r\n    emit Staked(useraddress, amount);\r\n  }\r\n\r\n  function withdraw(uint256 amount)\r\n    public\r\n    override\r\n    nonReentrant\r\n    updateReward(msg.sender)\r\n  {\r\n    require(amount > 0, \"Cannot withdraw 0\");\r\n    require(\r\n      block.timestamp > _userLockPeriod[msg.sender],\r\n      \"Cannot withdraw before 6 month from inital stake\"\r\n    );\r\n    require(\r\n      block.timestamp >= _lockingTimeStamp[msg.sender],\r\n      \"Unable to withdraw in locking period\"\r\n    );\r\n\r\n    _updateBalance(msg.sender, amount, false);\r\n\r\n    stakingToken.safeTransfer(msg.sender, amount);\r\n    emit Withdrawn(msg.sender, amount);\r\n  }\r\n\r\n  function _updateBalance(\r\n    address userAddress,\r\n    uint256 amount,\r\n    bool isAdd\r\n  ) internal {\r\n    if (isAdd) {\r\n      _actualtotalSupply = _actualtotalSupply.add(amount);\r\n      _actualbalances[userAddress] = _actualbalances[userAddress].add(amount);\r\n    } else {\r\n      _actualtotalSupply = _actualtotalSupply.sub(amount);\r\n      _actualbalances[userAddress] = _actualbalances[userAddress].sub(amount);\r\n    }\r\n\r\n    uint256 yield;\r\n\r\n    if (_actualbalances[userAddress] >= 3000000000) {\r\n      yield = 100;\r\n    } else if (\r\n      _actualbalances[userAddress] >= 1500000000 &&\r\n      _actualbalances[userAddress] < 3000000000\r\n    ) {\r\n      yield = 75;\r\n    } else if (\r\n      _actualbalances[userAddress] >= 500000000 &&\r\n      _actualbalances[userAddress] < 1500000000\r\n    ) {\r\n      yield = 63;\r\n    } else if (_actualbalances[userAddress] < 500000000) {\r\n      yield = 50;\r\n    }\r\n\r\n    uint256 newBalance = _actualbalances[userAddress].mul(yield) / 100;\r\n\r\n    if (isAdd) {\r\n      uint256 changedBalance = newBalance.sub(_balances[userAddress]);\r\n      _totalSupply = _totalSupply.add(changedBalance);\r\n    } else {\r\n      uint256 changedBalance = _balances[userAddress].sub(newBalance);\r\n      _totalSupply = _totalSupply.sub(changedBalance);\r\n    }\r\n\r\n    _balances[userAddress] = newBalance;\r\n  }\r\n\r\n  function getReward() public override nonReentrant updateReward(msg.sender) {\r\n    uint256 reward = rewards[msg.sender];\r\n    require(\r\n      block.timestamp > _userRewardLockPeriod[msg.sender],\r\n      \"Cannot withdraw before locking reward period\"\r\n    );\r\n    if (reward > 0) {\r\n      rewards[msg.sender] = 0;\r\n      rewardsToken.safeTransfer(msg.sender, reward);\r\n      _userRewardLockPeriod[msg.sender] = block.timestamp + 10 minutes; // reward lock timestamp\r\n      emit RewardPaid(msg.sender, reward);\r\n    }\r\n  }\r\n\r\n  function enrollComponding() public nonReentrant {\r\n    require(_balances[msg.sender] > 0, \"Not a staker\");\r\n    require(\r\n      checkUser[msg.sender] != msg.sender,\r\n      \"Already added in compounding\"\r\n    );\r\n\r\n    checkUser[msg.sender] = msg.sender;\r\n    userList.push(msg.sender);\r\n  }\r\n\r\n  function leaveComponding() public nonReentrant {\r\n    require(_balances[msg.sender] > 0, \"Not a staker\");\r\n    require(\r\n      checkUser[msg.sender] == msg.sender,\r\n      \"Already added in compounding\"\r\n    );\r\n\r\n    address[] memory tempUserList = userList;\r\n    for (uint256 i = 0; i < tempUserList.length; i++) {\r\n      if (tempUserList[i] == msg.sender) {\r\n        tempUserList[i] = tempUserList[tempUserList.length - 1];\r\n        checkUser[msg.sender] = address(0);\r\n        assembly {\r\n          mstore(tempUserList, sub(mload(tempUserList), 1))\r\n        }\r\n        break;\r\n      }\r\n    }\r\n\r\n    userList = tempUserList;\r\n  }\r\n\r\n  function exit() external override {\r\n    withdraw(_actualbalances[msg.sender]);\r\n    getReward();\r\n  }\r\n\r\n  function checkUpkeep(bytes calldata checkData)\r\n    external\r\n    view\r\n    override\r\n    returns (bool upkeepNeeded, bytes memory performData)\r\n  {\r\n    upkeepNeeded = (block.timestamp - lastTimeStamp) > interval;\r\n\r\n    // We don't use the checkData in this example\r\n    // checkData was defined when the Upkeep was registered\r\n    performData = checkData;\r\n  }\r\n\r\n  function performUpkeep(bytes calldata performData) external override {\r\n    require(\r\n      (block.timestamp - lastTimeStamp) > interval,\r\n      \"Auto compound interval not reached\"\r\n    );\r\n\r\n    lastTimeStamp = block.timestamp;\r\n    counter = counter + 1;\r\n\r\n    address[] memory tempUserList = userList;\r\n    uint256 currentRewardPerToken = rewardPerToken();\r\n\r\n    for (uint256 i = 0; i < tempUserList.length; i++) {\r\n      address user = tempUserList[i];\r\n\r\n      if (\r\n        rewards[user] != 0 ||\r\n        (_balances[user] != 0 &&\r\n          currentRewardPerToken != userRewardPerTokenPaid[user])\r\n      ) {\r\n        stakeComponding(tempUserList[i]);\r\n      }\r\n    }\r\n    // We don't use the performData in this example\r\n    // performData is generated by the Keeper's call to your `checkUpkeep` function\r\n    performData;\r\n  }\r\n\r\n  /* ========== RESTRICTED FUNCTIONS ========== */\r\n\r\n  function notifyRewardAmount(uint256 reward, uint256 rewardsDuration)\r\n    external\r\n    override\r\n    onlyRewardsDistribution\r\n    updateReward(address(0))\r\n  {\r\n    require(\r\n      block.timestamp.add(rewardsDuration) >= periodFinish,\r\n      \"Cannot reduce existing period\"\r\n    );\r\n\r\n    if (block.timestamp >= periodFinish) {\r\n      rewardRate = reward.div(rewardsDuration);\r\n    } else {\r\n      uint256 remaining = periodFinish.sub(block.timestamp);\r\n      uint256 leftover = remaining.mul(rewardRate);\r\n      rewardRate = reward.add(leftover).div(rewardsDuration);\r\n    }\r\n\r\n    // Ensure the provided reward amount is not more than the balance in the contract.\r\n    // This keeps the reward rate in the right range, preventing overflows due to\r\n    // very high values of rewardRate in the earned and rewardsPerToken functions;\r\n    // Reward + leftover must be less than 2^256 / 10^18 to avoid overflow.\r\n    uint256 balance = rewardsToken.balanceOf(address(this));\r\n    require(\r\n      rewardRate <= balance.div(rewardsDuration),\r\n      \"Provided reward too high\"\r\n    );\r\n\r\n    lastUpdateTime = block.timestamp;\r\n    periodFinish = block.timestamp.add(rewardsDuration);\r\n    emit RewardAdded(reward, periodFinish);\r\n  }\r\n\r\n  /* ========== MODIFIERS ========== */\r\n\r\n  modifier updateReward(address account) {\r\n    rewardPerTokenStored = rewardPerToken();\r\n    lastUpdateTime = lastTimeRewardApplicable();\r\n    if (account != address(0)) {\r\n      rewards[account] = earned(account);\r\n      userRewardPerTokenPaid[account] = rewardPerTokenStored;\r\n    }\r\n    _;\r\n  }\r\n\r\n  /* ========== EVENTS ========== */\r\n\r\n  event RewardAdded(uint256 reward, uint256 periodFinish);\r\n  event Staked(address indexed user, uint256 amount);\r\n  event Withdrawn(address indexed user, uint256 amount);\r\n  event RewardPaid(address indexed user, uint256 reward);\r\n}\r\n\r\ninterface IUniswapV2ERC20 {\r\n  function permit(\r\n    address owner,\r\n    address spender,\r\n    uint256 value,\r\n    uint256 deadline,\r\n    uint8 v,\r\n    bytes32 r,\r\n    bytes32 s\r\n  ) external;\r\n}\r\n\r\ncontract StakingRewardsFactory is Ownable {\r\n  // immutables\r\n  address public rewardsToken;\r\n  uint256 public stakingRewardsGenesis;\r\n\r\n  // the staking tokens for which the rewards contract has been deployed\r\n  address[] public stakingTokens;\r\n\r\n  // info about rewards for a particular staking token\r\n  struct StakingRewardsInfo {\r\n    address stakingRewards;\r\n    uint256 rewardAmount;\r\n    uint256 duration;\r\n  }\r\n\r\n  // rewards info by staking token\r\n  mapping(address => StakingRewardsInfo)\r\n    public stakingRewardsInfoByStakingToken;\r\n\r\n  constructor(address _rewardsToken, uint256 _stakingRewardsGenesis) Ownable() {\r\n    require(\r\n      _stakingRewardsGenesis >= block.timestamp,\r\n      \"StakingRewardsFactory::constructor: genesis too soon\"\r\n    );\r\n\r\n    rewardsToken = _rewardsToken;\r\n    stakingRewardsGenesis = _stakingRewardsGenesis;\r\n  }\r\n\r\n  ///// permissioned functions\r\n\r\n  // deploy a staking reward contract for the staking token, and store the reward amount\r\n  // the reward will be distributed to the staking reward contract no sooner than the genesis\r\n  function deploy(\r\n    address stakingToken,\r\n    uint256 rewardAmount,\r\n    uint256 rewardsDuration\r\n  ) public onlyOwner {\r\n    StakingRewardsInfo storage info = stakingRewardsInfoByStakingToken[\r\n      stakingToken\r\n    ];\r\n    require(\r\n      info.stakingRewards == address(0),\r\n      \"StakingRewardsFactory::deploy: already deployed\"\r\n    );\r\n\r\n    info.stakingRewards = address(\r\n      new StakingRewards(\r\n        /*_rewardsDistribution=*/\r\n        address(this),\r\n        rewardsToken,\r\n        stakingToken\r\n      )\r\n    );\r\n    info.rewardAmount = rewardAmount;\r\n    info.duration = rewardsDuration;\r\n    stakingTokens.push(stakingToken);\r\n  }\r\n\r\n  function update(\r\n    address stakingToken,\r\n    uint256 rewardAmount,\r\n    uint256 rewardsDuration\r\n  ) public onlyOwner {\r\n    StakingRewardsInfo storage info = stakingRewardsInfoByStakingToken[\r\n      stakingToken\r\n    ];\r\n    require(\r\n      info.stakingRewards != address(0),\r\n      \"StakingRewardsFactory::update: not deployed\"\r\n    );\r\n\r\n    info.rewardAmount = rewardAmount;\r\n    info.duration = rewardsDuration;\r\n  }\r\n\r\n  ///// permissionless functions\r\n\r\n  // call notifyRewardAmount for all staking tokens.\r\n  function notifyRewardAmounts() public {\r\n    require(\r\n      stakingTokens.length > 0,\r\n      \"StakingRewardsFactory::notifyRewardAmounts: called before any deploys\"\r\n    );\r\n    for (uint256 i = 0; i < stakingTokens.length; i++) {\r\n      notifyRewardAmount(stakingTokens[i]);\r\n    }\r\n  }\r\n\r\n  // notify reward amount for an individual staking token.\r\n  // this is a fallback in case the notifyRewardAmounts costs too much gas to call for all contracts\r\n  function notifyRewardAmount(address stakingToken) public {\r\n    require(\r\n      block.timestamp >= stakingRewardsGenesis,\r\n      \"StakingRewardsFactory::notifyRewardAmount: not ready\"\r\n    );\r\n\r\n    StakingRewardsInfo storage info = stakingRewardsInfoByStakingToken[\r\n      stakingToken\r\n    ];\r\n    require(\r\n      info.stakingRewards != address(0),\r\n      \"StakingRewardsFactory::notifyRewardAmount: not deployed\"\r\n    );\r\n\r\n    if (info.rewardAmount > 0 && info.duration > 0) {\r\n      uint256 rewardAmount = info.rewardAmount;\r\n      uint256 duration = info.duration;\r\n      info.rewardAmount = 0;\r\n      info.duration = 0;\r\n\r\n      require(\r\n        IERC20(rewardsToken).transfer(info.stakingRewards, rewardAmount),\r\n        \"StakingRewardsFactory::notifyRewardAmount: transfer failed\"\r\n      );\r\n      StakingRewards(info.stakingRewards).notifyRewardAmount(\r\n        rewardAmount,\r\n        duration\r\n      );\r\n    }\r\n  }\r\n\r\n  function pullExtraTokens(address token, uint256 amount) external onlyOwner {\r\n    IERC20(token).transfer(msg.sender, amount);\r\n  }\r\n}\r\n",
  "sourcePath": "D:/Working Dir/autonio/niox-staking-contract/contracts/StakingRewardsFactory.sol",
  "compiler": {
    "name": "solc",
    "version": "0.8.0+commit.c7dfd78e.Emscripten.clang"
  },
  "schemaVersion": "3.3.3",
  "updatedAt": "2021-09-27T13:20:45.708Z",
  "networkType": "ethereum",
  "devdoc": {
    "kind": "dev",
    "methods": {
      "owner()": {
        "details": "Returns the address of the current owner."
      },
      "renounceOwnership()": {
        "details": "Leaves the contract without owner. It will not be possible to call `onlyOwner` functions anymore. Can only be called by the current owner. NOTE: Renouncing ownership will leave the contract without an owner, thereby removing any functionality that is only available to the owner."
      },
      "transferOwnership(address)": {
        "details": "Transfers ownership of the contract to a new account (`newOwner`). Can only be called by the current owner."
      }
    },
    "version": 1
  },
  "userdoc": {
    "kind": "user",
    "methods": {},
    "version": 1
  }
}