{
  "contractName": "StakingRewards",
  "abi": [
    {
      "inputs": [
        {
          "internalType": "address",
          "name": "_rewardsDistribution",
          "type": "address"
        },
        {
          "internalType": "address",
          "name": "_rewardsToken",
          "type": "address"
        },
        {
          "internalType": "address",
          "name": "_stakingToken",
          "type": "address"
        }
      ],
      "stateMutability": "nonpayable",
      "type": "constructor"
    },
    {
      "anonymous": false,
      "inputs": [
        {
          "indexed": false,
          "internalType": "uint256",
          "name": "reward",
          "type": "uint256"
        },
        {
          "indexed": false,
          "internalType": "uint256",
          "name": "periodFinish",
          "type": "uint256"
        }
      ],
      "name": "RewardAdded",
      "type": "event"
    },
    {
      "anonymous": false,
      "inputs": [
        {
          "indexed": true,
          "internalType": "address",
          "name": "user",
          "type": "address"
        },
        {
          "indexed": false,
          "internalType": "uint256",
          "name": "reward",
          "type": "uint256"
        }
      ],
      "name": "RewardPaid",
      "type": "event"
    },
    {
      "anonymous": false,
      "inputs": [
        {
          "indexed": true,
          "internalType": "address",
          "name": "user",
          "type": "address"
        },
        {
          "indexed": false,
          "internalType": "uint256",
          "name": "amount",
          "type": "uint256"
        }
      ],
      "name": "Staked",
      "type": "event"
    },
    {
      "anonymous": false,
      "inputs": [
        {
          "indexed": true,
          "internalType": "address",
          "name": "user",
          "type": "address"
        },
        {
          "indexed": false,
          "internalType": "uint256",
          "name": "amount",
          "type": "uint256"
        }
      ],
      "name": "Withdrawn",
      "type": "event"
    },
    {
      "inputs": [
        {
          "internalType": "address",
          "name": "",
          "type": "address"
        }
      ],
      "name": "checkUser",
      "outputs": [
        {
          "internalType": "address",
          "name": "",
          "type": "address"
        }
      ],
      "stateMutability": "view",
      "type": "function"
    },
    {
      "inputs": [],
      "name": "counter",
      "outputs": [
        {
          "internalType": "uint256",
          "name": "",
          "type": "uint256"
        }
      ],
      "stateMutability": "view",
      "type": "function"
    },
    {
      "inputs": [],
      "name": "interval",
      "outputs": [
        {
          "internalType": "uint256",
          "name": "",
          "type": "uint256"
        }
      ],
      "stateMutability": "view",
      "type": "function"
    },
    {
      "inputs": [],
      "name": "lastTimeStamp",
      "outputs": [
        {
          "internalType": "uint256",
          "name": "",
          "type": "uint256"
        }
      ],
      "stateMutability": "view",
      "type": "function"
    },
    {
      "inputs": [],
      "name": "lastUpdateTime",
      "outputs": [
        {
          "internalType": "uint256",
          "name": "",
          "type": "uint256"
        }
      ],
      "stateMutability": "view",
      "type": "function"
    },
    {
      "inputs": [],
      "name": "periodFinish",
      "outputs": [
        {
          "internalType": "uint256",
          "name": "",
          "type": "uint256"
        }
      ],
      "stateMutability": "view",
      "type": "function"
    },
    {
      "inputs": [],
      "name": "rewardPerTokenStored",
      "outputs": [
        {
          "internalType": "uint256",
          "name": "",
          "type": "uint256"
        }
      ],
      "stateMutability": "view",
      "type": "function"
    },
    {
      "inputs": [],
      "name": "rewardRate",
      "outputs": [
        {
          "internalType": "uint256",
          "name": "",
          "type": "uint256"
        }
      ],
      "stateMutability": "view",
      "type": "function"
    },
    {
      "inputs": [
        {
          "internalType": "address",
          "name": "",
          "type": "address"
        }
      ],
      "name": "rewards",
      "outputs": [
        {
          "internalType": "uint256",
          "name": "",
          "type": "uint256"
        }
      ],
      "stateMutability": "view",
      "type": "function"
    },
    {
      "inputs": [],
      "name": "rewardsDistribution",
      "outputs": [
        {
          "internalType": "address",
          "name": "",
          "type": "address"
        }
      ],
      "stateMutability": "view",
      "type": "function"
    },
    {
      "inputs": [],
      "name": "rewardsToken",
      "outputs": [
        {
          "internalType": "contract IERC20",
          "name": "",
          "type": "address"
        }
      ],
      "stateMutability": "view",
      "type": "function"
    },
    {
      "inputs": [],
      "name": "stakingToken",
      "outputs": [
        {
          "internalType": "contract IERC20",
          "name": "",
          "type": "address"
        }
      ],
      "stateMutability": "view",
      "type": "function"
    },
    {
      "inputs": [
        {
          "internalType": "uint256",
          "name": "",
          "type": "uint256"
        }
      ],
      "name": "userList",
      "outputs": [
        {
          "internalType": "address",
          "name": "",
          "type": "address"
        }
      ],
      "stateMutability": "view",
      "type": "function"
    },
    {
      "inputs": [
        {
          "internalType": "address",
          "name": "",
          "type": "address"
        }
      ],
      "name": "userRewardPerTokenPaid",
      "outputs": [
        {
          "internalType": "uint256",
          "name": "",
          "type": "uint256"
        }
      ],
      "stateMutability": "view",
      "type": "function"
    },
    {
      "inputs": [],
      "name": "userLockPeriod",
      "outputs": [
        {
          "internalType": "uint256",
          "name": "",
          "type": "uint256"
        }
      ],
      "stateMutability": "view",
      "type": "function"
    },
    {
      "inputs": [],
      "name": "userRewardLockPeriod",
      "outputs": [
        {
          "internalType": "uint256",
          "name": "",
          "type": "uint256"
        }
      ],
      "stateMutability": "view",
      "type": "function"
    },
    {
      "inputs": [],
      "name": "totalSupply",
      "outputs": [
        {
          "internalType": "uint256",
          "name": "",
          "type": "uint256"
        }
      ],
      "stateMutability": "view",
      "type": "function"
    },
    {
      "inputs": [
        {
          "internalType": "address",
          "name": "account",
          "type": "address"
        }
      ],
      "name": "balanceOf",
      "outputs": [
        {
          "internalType": "uint256",
          "name": "",
          "type": "uint256"
        }
      ],
      "stateMutability": "view",
      "type": "function"
    },
    {
      "inputs": [],
      "name": "actualTotalSupply",
      "outputs": [
        {
          "internalType": "uint256",
          "name": "",
          "type": "uint256"
        }
      ],
      "stateMutability": "view",
      "type": "function"
    },
    {
      "inputs": [
        {
          "internalType": "address",
          "name": "account",
          "type": "address"
        }
      ],
      "name": "actualBalanceOf",
      "outputs": [
        {
          "internalType": "uint256",
          "name": "",
          "type": "uint256"
        }
      ],
      "stateMutability": "view",
      "type": "function"
    },
    {
      "inputs": [],
      "name": "lastTimeRewardApplicable",
      "outputs": [
        {
          "internalType": "uint256",
          "name": "",
          "type": "uint256"
        }
      ],
      "stateMutability": "view",
      "type": "function"
    },
    {
      "inputs": [],
      "name": "rewardPerToken",
      "outputs": [
        {
          "internalType": "uint256",
          "name": "",
          "type": "uint256"
        }
      ],
      "stateMutability": "view",
      "type": "function"
    },
    {
      "inputs": [
        {
          "internalType": "address",
          "name": "account",
          "type": "address"
        }
      ],
      "name": "earned",
      "outputs": [
        {
          "internalType": "uint256",
          "name": "",
          "type": "uint256"
        }
      ],
      "stateMutability": "view",
      "type": "function"
    },
    {
      "inputs": [
        {
          "internalType": "uint256",
          "name": "amount",
          "type": "uint256"
        }
      ],
      "name": "stake",
      "outputs": [],
      "stateMutability": "nonpayable",
      "type": "function"
    },
    {
      "inputs": [
        {
          "internalType": "uint256",
          "name": "amount",
          "type": "uint256"
        }
      ],
      "name": "withdraw",
      "outputs": [],
      "stateMutability": "nonpayable",
      "type": "function"
    },
    {
      "inputs": [],
      "name": "getReward",
      "outputs": [],
      "stateMutability": "nonpayable",
      "type": "function"
    },
    {
      "inputs": [],
      "name": "enrollComponding",
      "outputs": [],
      "stateMutability": "nonpayable",
      "type": "function"
    },
    {
      "inputs": [],
      "name": "leaveComponding",
      "outputs": [],
      "stateMutability": "nonpayable",
      "type": "function"
    },
    {
      "inputs": [],
      "name": "exit",
      "outputs": [],
      "stateMutability": "nonpayable",
      "type": "function"
    },
    {
      "inputs": [
        {
          "internalType": "bytes",
          "name": "checkData",
          "type": "bytes"
        }
      ],
      "name": "checkUpkeep",
      "outputs": [
        {
          "internalType": "bool",
          "name": "upkeepNeeded",
          "type": "bool"
        },
        {
          "internalType": "bytes",
          "name": "performData",
          "type": "bytes"
        }
      ],
      "stateMutability": "view",
      "type": "function"
    },
    {
      "inputs": [
        {
          "internalType": "bytes",
          "name": "performData",
          "type": "bytes"
        }
      ],
      "name": "performUpkeep",
      "outputs": [],
      "stateMutability": "nonpayable",
      "type": "function"
    },
    {
      "inputs": [
        {
          "internalType": "uint256",
          "name": "reward",
          "type": "uint256"
        },
        {
          "internalType": "uint256",
          "name": "rewardsDuration",
          "type": "uint256"
        }
      ],
      "name": "notifyRewardAmount",
      "outputs": [],
      "stateMutability": "nonpayable",
      "type": "function"
    }
  ],
  "bytecode": "0x60806040526000600455600060055534801561001a57600080fd5b506040516141d83803806141d88339818101604052606081101561003d57600080fd5b810190808051906020019092919080519060200190929190805190602001909291905050506001808190555081600260006101000a81548173ffffffffffffffffffffffffffffffffffffffff021916908373ffffffffffffffffffffffffffffffffffffffff16021790555080600360006101000a81548173ffffffffffffffffffffffffffffffffffffffff021916908373ffffffffffffffffffffffffffffffffffffffff160217905550826000806101000a81548173ffffffffffffffffffffffffffffffffffffffff021916908373ffffffffffffffffffffffffffffffffffffffff16021790555061012c601481905550426012819055506000601381905550505050614083806101556000396000f3fe608060405234801561001057600080fd5b50600436106101ef5760003560e01c806372f702f31161010f578063c8f33c91116100a2578063df136d6511610071578063df136d6514610874578063e5a93d4514610892578063e9fad8ee1461089c578063ebe2b12b146108a6576101ef565b8063c8f33c91146107e6578063cd3daf9d14610804578063d1af0c7d14610822578063d657ae0c14610856576101ef565b8063947a36fb116100de578063947a36fb146107385780639e034f74146107565780639f4216e814610760578063a694fc3a146107b8576101ef565b806372f702f3146106705780637b0a47ee146106a457806380faa57d146106c25780638b876347146106e0576101ef565b80633d18b9121161018757806361bc221a1161015657806361bc221a146104e15780636e04ff0d146104ff5780636e94d507146105fa57806370a0823114610618576101ef565b80633d18b9121461040c5780633f3b3b27146104165780633fc6df6e146104345780634585e33b14610468576101ef565b806318160ddd116101c357806318160ddd1461031a5780631e9d48cf14610338578063246132f9146103a65780632e1a7d4d146103de576101ef565b80628cc262146101f45780630700037d1461024c5780630d9789b2146102a457806317a950ac146102c2575b600080fd5b6102366004803603602081101561020a57600080fd5b81019080803573ffffffffffffffffffffffffffffffffffffffff1690602001909291905050506108c4565b6040518082815260200191505060405180910390f35b61028e6004803603602081101561026257600080fd5b81019080803573ffffffffffffffffffffffffffffffffffffffff1690602001909291905050506109e2565b6040518082815260200191505060405180910390f35b6102ac6109fa565b6040518082815260200191505060405180910390f35b610304600480360360208110156102d857600080fd5b81019080803573ffffffffffffffffffffffffffffffffffffffff169060200190929190505050610a41565b6040518082815260200191505060405180910390f35b610322610a8a565b6040518082815260200191505060405180910390f35b61037a6004803603602081101561034e57600080fd5b81019080803573ffffffffffffffffffffffffffffffffffffffff169060200190929190505050610a94565b604051808273ffffffffffffffffffffffffffffffffffffffff16815260200191505060405180910390f35b6103dc600480360360408110156103bc57600080fd5b810190808035906020019092919080359060200190929190505050610ac7565b005b61040a600480360360208110156103f457600080fd5b8101908080359060200190929190505050610f1a565b005b6104146117b7565b005b61041e611b34565b6040518082815260200191505060405180910390f35b61043c611b3a565b604051808273ffffffffffffffffffffffffffffffffffffffff16815260200191505060405180910390f35b6104df6004803603602081101561047e57600080fd5b810190808035906020019064010000000081111561049b57600080fd5b8201836020820111156104ad57600080fd5b803590602001918460018302840111640100000000831117156104cf57600080fd5b9091929391929390505050611b5e565b005b6104e9611c1c565b6040518082815260200191505060405180910390f35b6105766004803603602081101561051557600080fd5b810190808035906020019064010000000081111561053257600080fd5b82018360208201111561054457600080fd5b8035906020019184600183028401116401000000008311171561056657600080fd5b9091929391929390505050611c22565b60405180831515815260200180602001828103825283818151815260200191508051906020019080838360005b838110156105be5780820151818401526020810190506105a3565b50505050905090810190601f1680156105eb5780820380516001836020036101000a031916815260200191505b50935050505060405180910390f35b610602611c7f565b6040518082815260200191505060405180910390f35b61065a6004803603602081101561062e57600080fd5b81019080803573ffffffffffffffffffffffffffffffffffffffff169060200190929190505050611cc6565b6040518082815260200191505060405180910390f35b610678611d0f565b604051808273ffffffffffffffffffffffffffffffffffffffff16815260200191505060405180910390f35b6106ac611d35565b6040518082815260200191505060405180910390f35b6106ca611d3b565b6040518082815260200191505060405180910390f35b610722600480360360208110156106f657600080fd5b81019080803573ffffffffffffffffffffffffffffffffffffffff169060200190929190505050611d4e565b6040518082815260200191505060405180910390f35b610740611d66565b6040518082815260200191505060405180910390f35b61075e611d6c565b005b61078c6004803603602081101561077657600080fd5b810190808035906020019092919050505061218d565b604051808273ffffffffffffffffffffffffffffffffffffffff16815260200191505060405180910390f35b6107e4600480360360208110156107ce57600080fd5b81019080803590602001909291905050506121cc565b005b6107ee612aac565b6040518082815260200191505060405180910390f35b61080c612ab2565b6040518082815260200191505060405180910390f35b61082a612b40565b604051808273ffffffffffffffffffffffffffffffffffffffff16815260200191505060405180910390f35b61085e612b66565b6040518082815260200191505060405180910390f35b61087c612b70565b6040518082815260200191505060405180910390f35b61089a612b76565b005b6108a4612e97565b005b6108ae612ee9565b6040518082815260200191505060405180910390f35b60006109db600960008473ffffffffffffffffffffffffffffffffffffffff1673ffffffffffffffffffffffffffffffffffffffff168152602001908152602001600020546109cd670de0b6b3a76400006109bf610971600860008973ffffffffffffffffffffffffffffffffffffffff1673ffffffffffffffffffffffffffffffffffffffff16815260200190815260200160002054610963612ab2565b612eef90919063ffffffff16565b600e60008973ffffffffffffffffffffffffffffffffffffffff1673ffffffffffffffffffffffffffffffffffffffff16815260200190815260200160002054612f7290919063ffffffff16565b612ff890919063ffffffff16565b61308190919063ffffffff16565b9050919050565b60096020528060005260406000206000915090505481565b6000601160003373ffffffffffffffffffffffffffffffffffffffff1673ffffffffffffffffffffffffffffffffffffffff16815260200190815260200160002054905090565b6000600f60008373ffffffffffffffffffffffffffffffffffffffff1673ffffffffffffffffffffffffffffffffffffffff168152602001908152602001600020549050919050565b6000600d54905090565b600a6020528060005260406000206000915054906101000a900473ffffffffffffffffffffffffffffffffffffffff1681565b60008054906101000a900473ffffffffffffffffffffffffffffffffffffffff1673ffffffffffffffffffffffffffffffffffffffff163373ffffffffffffffffffffffffffffffffffffffff1614610b6b576040517f08c379a000000000000000000000000000000000000000000000000000000000815260040180806020018281038252602a815260200180613fca602a913960400191505060405180910390fd5b6000610b75612ab2565b600781905550610b83611d3b565b600681905550600073ffffffffffffffffffffffffffffffffffffffff168173ffffffffffffffffffffffffffffffffffffffff1614610c5057610bc6816108c4565b600960008373ffffffffffffffffffffffffffffffffffffffff1673ffffffffffffffffffffffffffffffffffffffff16815260200190815260200160002081905550600754600860008373ffffffffffffffffffffffffffffffffffffffff1673ffffffffffffffffffffffffffffffffffffffff168152602001908152602001600020819055505b600454610c66834261308190919063ffffffff16565b1015610cda576040517f08c379a000000000000000000000000000000000000000000000000000000000815260040180806020018281038252601d8152602001807f43616e6e6f7420726564756365206578697374696e6720706572696f6400000081525060200191505060405180910390fd5b6004544210610d0157610cf68284612ff890919063ffffffff16565b600581905550610d61565b6000610d1842600454612eef90919063ffffffff16565b90506000610d3160055483612f7290919063ffffffff16565b9050610d5884610d4a838861308190919063ffffffff16565b612ff890919063ffffffff16565b60058190555050505b6000600260009054906101000a900473ffffffffffffffffffffffffffffffffffffffff1673ffffffffffffffffffffffffffffffffffffffff166370a08231306040518263ffffffff1660e01b8152600401808273ffffffffffffffffffffffffffffffffffffffff16815260200191505060206040518083038186803b158015610dec57600080fd5b505afa158015610e00573d6000803e3d6000fd5b505050506040513d6020811015610e1657600080fd5b81019080805190602001909291905050509050610e3c8382612ff890919063ffffffff16565b6005541115610eb3576040517f08c379a00000000000000000000000000000000000000000000000000000000081526004018080602001828103825260188152602001807f50726f76696465642072657761726420746f6f2068696768000000000000000081525060200191505060405180910390fd5b42600681905550610ecd834261308190919063ffffffff16565b6004819055507f6c07ee05dcf262f13abf9d87b846ee789d2f90fe991d495acd7d7fc109ee1f5584600454604051808381526020018281526020019250505060405180910390a150505050565b60026001541415610f93576040517f08c379a000000000000000000000000000000000000000000000000000000000815260040180806020018281038252601f8152602001807f5265656e7472616e637947756172643a207265656e7472616e742063616c6c0081525060200191505060405180910390fd5b600260018190555033610fa4612ab2565b600781905550610fb2611d3b565b600681905550600073ffffffffffffffffffffffffffffffffffffffff168173ffffffffffffffffffffffffffffffffffffffff161461107f57610ff5816108c4565b600960008373ffffffffffffffffffffffffffffffffffffffff1673ffffffffffffffffffffffffffffffffffffffff16815260200190815260200160002081905550600754600860008373ffffffffffffffffffffffffffffffffffffffff1673ffffffffffffffffffffffffffffffffffffffff168152602001908152602001600020819055505b600082116110f5576040517f08c379a00000000000000000000000000000000000000000000000000000000081526004018080602001828103825260118152602001807f43616e6e6f74207769746864726177203000000000000000000000000000000081525060200191505060405180910390fd5b601060003373ffffffffffffffffffffffffffffffffffffffff1673ffffffffffffffffffffffffffffffffffffffff16815260200190815260200160002054421161118c576040517f08c379a0000000000000000000000000000000000000000000000000000000008152600401808060200182810382526030815260200180613ff46030913960400191505060405180910390fd5b6111a182600c54612eef90919063ffffffff16565b600c819055506111f982600f60003373ffffffffffffffffffffffffffffffffffffffff1673ffffffffffffffffffffffffffffffffffffffff16815260200190815260200160002054612eef90919063ffffffff16565b600f60003373ffffffffffffffffffffffffffffffffffffffff1673ffffffffffffffffffffffffffffffffffffffff1681526020019081526020016000208190555063b2d05e00600f60003373ffffffffffffffffffffffffffffffffffffffff1673ffffffffffffffffffffffffffffffffffffffff168152602001908152602001600020541061133b5761129b82600d54612eef90919063ffffffff16565b600d819055506112f382600e60003373ffffffffffffffffffffffffffffffffffffffff1673ffffffffffffffffffffffffffffffffffffffff16815260200190815260200160002054612eef90919063ffffffff16565b600e60003373ffffffffffffffffffffffffffffffffffffffff1673ffffffffffffffffffffffffffffffffffffffff16815260200190815260200160002081905550611711565b6359682f00600f60003373ffffffffffffffffffffffffffffffffffffffff1673ffffffffffffffffffffffffffffffffffffffff16815260200190815260200160002054101580156113d0575063b2d05e00600f60003373ffffffffffffffffffffffffffffffffffffffff1673ffffffffffffffffffffffffffffffffffffffff16815260200190815260200160002054105b1561149d576000604b606484816113e357fe5b040290506113fc81600d54612eef90919063ffffffff16565b600d8190555061145481600e60003373ffffffffffffffffffffffffffffffffffffffff1673ffffffffffffffffffffffffffffffffffffffff16815260200190815260200160002054612eef90919063ffffffff16565b600e60003373ffffffffffffffffffffffffffffffffffffffff1673ffffffffffffffffffffffffffffffffffffffff1681526020019081526020016000208190555050611710565b631dcd6500600f60003373ffffffffffffffffffffffffffffffffffffffff1673ffffffffffffffffffffffffffffffffffffffff168152602001908152602001600020541015801561153257506359682f00600f60003373ffffffffffffffffffffffffffffffffffffffff1673ffffffffffffffffffffffffffffffffffffffff16815260200190815260200160002054105b156115ff576000603f6064848161154557fe5b0402905061155e81600d54612eef90919063ffffffff16565b600d819055506115b681600e60003373ffffffffffffffffffffffffffffffffffffffff1673ffffffffffffffffffffffffffffffffffffffff16815260200190815260200160002054612eef90919063ffffffff16565b600e60003373ffffffffffffffffffffffffffffffffffffffff1673ffffffffffffffffffffffffffffffffffffffff168152602001908152602001600020819055505061170f565b631dcd6500600f60003373ffffffffffffffffffffffffffffffffffffffff1673ffffffffffffffffffffffffffffffffffffffff16815260200190815260200160002054101561170e57600060326064848161165857fe5b0402905061167181600d54612eef90919063ffffffff16565b600d819055506116c981600e60003373ffffffffffffffffffffffffffffffffffffffff1673ffffffffffffffffffffffffffffffffffffffff16815260200190815260200160002054612eef90919063ffffffff16565b600e60003373ffffffffffffffffffffffffffffffffffffffff1673ffffffffffffffffffffffffffffffffffffffff16815260200190815260200160002081905550505b5b5b5b61175e3383600360009054906101000a900473ffffffffffffffffffffffffffffffffffffffff1673ffffffffffffffffffffffffffffffffffffffff166131099092919063ffffffff16565b3373ffffffffffffffffffffffffffffffffffffffff167f7084f5476618d8e60b11ef0d7d3f06914655adb8793e28ff7f018d4c76d505d5836040518082815260200191505060405180910390a2506001808190555050565b60026001541415611830576040517f08c379a000000000000000000000000000000000000000000000000000000000815260040180806020018281038252601f8152602001807f5265656e7472616e637947756172643a207265656e7472616e742063616c6c0081525060200191505060405180910390fd5b600260018190555033611841612ab2565b60078190555061184f611d3b565b600681905550600073ffffffffffffffffffffffffffffffffffffffff168173ffffffffffffffffffffffffffffffffffffffff161461191c57611892816108c4565b600960008373ffffffffffffffffffffffffffffffffffffffff1673ffffffffffffffffffffffffffffffffffffffff16815260200190815260200160002081905550600754600860008373ffffffffffffffffffffffffffffffffffffffff1673ffffffffffffffffffffffffffffffffffffffff168152602001908152602001600020819055505b6000600960003373ffffffffffffffffffffffffffffffffffffffff1673ffffffffffffffffffffffffffffffffffffffff168152602001908152602001600020549050601160003373ffffffffffffffffffffffffffffffffffffffff1673ffffffffffffffffffffffffffffffffffffffff1681526020019081526020016000205442116119f7576040517f08c379a000000000000000000000000000000000000000000000000000000000815260040180806020018281038252602c815260200180613f57602c913960400191505060405180910390fd5b6000811115611b29576000600960003373ffffffffffffffffffffffffffffffffffffffff1673ffffffffffffffffffffffffffffffffffffffff16815260200190815260200160002081905550611a923382600260009054906101000a900473ffffffffffffffffffffffffffffffffffffffff1673ffffffffffffffffffffffffffffffffffffffff166131099092919063ffffffff16565b6102584201601160003373ffffffffffffffffffffffffffffffffffffffff1673ffffffffffffffffffffffffffffffffffffffff168152602001908152602001600020819055503373ffffffffffffffffffffffffffffffffffffffff167fe2403640ba68fed3a2f88b7557551d1993f84b99bb10ff833f0cf8db0c5e0486826040518082815260200191505060405180910390a25b505060018081905550565b60125481565b60008054906101000a900473ffffffffffffffffffffffffffffffffffffffff1681565b4260128190555060016013540160138190555060005b600b80549050811015611c17576000611bc3600b8381548110611b9357fe5b9060005260206000200160009054906101000a900473ffffffffffffffffffffffffffffffffffffffff166108c4565b1115611c0a57611c09600b8281548110611bd957fe5b9060005260206000200160009054906101000a900473ffffffffffffffffffffffffffffffffffffffff166131ab565b5b8080600101915050611b74565b505050565b60135481565b60006060601454601254420311915083838080601f016020809104026020016040519081016040528093929190818152602001838380828437600081840152601f19601f8201169050808301925050505050505090509250929050565b6000601060003373ffffffffffffffffffffffffffffffffffffffff1673ffffffffffffffffffffffffffffffffffffffff16815260200190815260200160002054905090565b6000600e60008373ffffffffffffffffffffffffffffffffffffffff1673ffffffffffffffffffffffffffffffffffffffff168152602001908152602001600020549050919050565b600360009054906101000a900473ffffffffffffffffffffffffffffffffffffffff1681565b60055481565b6000611d4942600454613aee565b905090565b60086020528060005260406000206000915090505481565b60145481565b60026001541415611de5576040517f08c379a000000000000000000000000000000000000000000000000000000000815260040180806020018281038252601f8152602001807f5265656e7472616e637947756172643a207265656e7472616e742063616c6c0081525060200191505060405180910390fd5b60026001819055506000600e60003373ffffffffffffffffffffffffffffffffffffffff1673ffffffffffffffffffffffffffffffffffffffff1681526020019081526020016000205411611ea2576040517f08c379a000000000000000000000000000000000000000000000000000000000815260040180806020018281038252600c8152602001807f4e6f742061207374616b6572000000000000000000000000000000000000000081525060200191505060405180910390fd5b3373ffffffffffffffffffffffffffffffffffffffff16600a60003373ffffffffffffffffffffffffffffffffffffffff1673ffffffffffffffffffffffffffffffffffffffff16815260200190815260200160002060009054906101000a900473ffffffffffffffffffffffffffffffffffffffff1673ffffffffffffffffffffffffffffffffffffffff1614611fa2576040517f08c379a000000000000000000000000000000000000000000000000000000000815260040180806020018281038252601c8152602001807f416c726561647920616464656420696e20636f6d706f756e64696e670000000081525060200191505060405180910390fd5b60005b600b80549050811015612183573373ffffffffffffffffffffffffffffffffffffffff16600b8281548110611fd657fe5b9060005260206000200160009054906101000a900473ffffffffffffffffffffffffffffffffffffffff1673ffffffffffffffffffffffffffffffffffffffff16141561217657600b6001600b80549050038154811061203257fe5b9060005260206000200160009054906101000a900473ffffffffffffffffffffffffffffffffffffffff16600b828154811061206a57fe5b9060005260206000200160006101000a81548173ffffffffffffffffffffffffffffffffffffffff021916908373ffffffffffffffffffffffffffffffffffffffff1602179055506000600a60003373ffffffffffffffffffffffffffffffffffffffff1673ffffffffffffffffffffffffffffffffffffffff16815260200190815260200160002060006101000a81548173ffffffffffffffffffffffffffffffffffffffff021916908373ffffffffffffffffffffffffffffffffffffffff160217905550600b80548061213c57fe5b6001900381819060005260206000200160006101000a81549073ffffffffffffffffffffffffffffffffffffffff02191690559055612183565b8080600101915050611fa5565b5060018081905550565b600b818154811061219d57600080fd5b906000526020600020016000915054906101000a900473ffffffffffffffffffffffffffffffffffffffff1681565b60026001541415612245576040517f08c379a000000000000000000000000000000000000000000000000000000000815260040180806020018281038252601f8152602001807f5265656e7472616e637947756172643a207265656e7472616e742063616c6c0081525060200191505060405180910390fd5b600260018190555033612256612ab2565b600781905550612264611d3b565b600681905550600073ffffffffffffffffffffffffffffffffffffffff168173ffffffffffffffffffffffffffffffffffffffff1614612331576122a7816108c4565b600960008373ffffffffffffffffffffffffffffffffffffffff1673ffffffffffffffffffffffffffffffffffffffff16815260200190815260200160002081905550600754600860008373ffffffffffffffffffffffffffffffffffffffff1673ffffffffffffffffffffffffffffffffffffffff168152602001908152602001600020819055505b600082116123a7576040517f08c379a000000000000000000000000000000000000000000000000000000000815260040180806020018281038252600e8152602001807f43616e6e6f74207374616b65203000000000000000000000000000000000000081525060200191505060405180910390fd5b6123bc82600c5461308190919063ffffffff16565b600c8190555061241482600f60003373ffffffffffffffffffffffffffffffffffffffff1673ffffffffffffffffffffffffffffffffffffffff1681526020019081526020016000205461308190919063ffffffff16565b600f60003373ffffffffffffffffffffffffffffffffffffffff1673ffffffffffffffffffffffffffffffffffffffff1681526020019081526020016000208190555063b2d05e00600f60003373ffffffffffffffffffffffffffffffffffffffff1673ffffffffffffffffffffffffffffffffffffffff1681526020019081526020016000205410612556576124f382600e60003373ffffffffffffffffffffffffffffffffffffffff1673ffffffffffffffffffffffffffffffffffffffff1681526020019081526020016000205461308190919063ffffffff16565b600e60003373ffffffffffffffffffffffffffffffffffffffff1673ffffffffffffffffffffffffffffffffffffffff1681526020019081526020016000208190555061254b82600d5461308190919063ffffffff16565b600d8190555061292c565b6359682f00600f60003373ffffffffffffffffffffffffffffffffffffffff1673ffffffffffffffffffffffffffffffffffffffff16815260200190815260200160002054101580156125eb575063b2d05e00600f60003373ffffffffffffffffffffffffffffffffffffffff1673ffffffffffffffffffffffffffffffffffffffff16815260200190815260200160002054105b156126b8576000604b606484816125fe57fe5b0402905061265481600e60003373ffffffffffffffffffffffffffffffffffffffff1673ffffffffffffffffffffffffffffffffffffffff1681526020019081526020016000205461308190919063ffffffff16565b600e60003373ffffffffffffffffffffffffffffffffffffffff1673ffffffffffffffffffffffffffffffffffffffff168152602001908152602001600020819055506126ac81600d5461308190919063ffffffff16565b600d819055505061292b565b631dcd6500600f60003373ffffffffffffffffffffffffffffffffffffffff1673ffffffffffffffffffffffffffffffffffffffff168152602001908152602001600020541015801561274d57506359682f00600f60003373ffffffffffffffffffffffffffffffffffffffff1673ffffffffffffffffffffffffffffffffffffffff16815260200190815260200160002054105b1561281a576000603f6064848161276057fe5b040290506127b681600e60003373ffffffffffffffffffffffffffffffffffffffff1673ffffffffffffffffffffffffffffffffffffffff1681526020019081526020016000205461308190919063ffffffff16565b600e60003373ffffffffffffffffffffffffffffffffffffffff1673ffffffffffffffffffffffffffffffffffffffff1681526020019081526020016000208190555061280e81600d5461308190919063ffffffff16565b600d819055505061292a565b631dcd6500600f60003373ffffffffffffffffffffffffffffffffffffffff1673ffffffffffffffffffffffffffffffffffffffff16815260200190815260200160002054101561292957600060326064848161287357fe5b040290506128c981600e60003373ffffffffffffffffffffffffffffffffffffffff1673ffffffffffffffffffffffffffffffffffffffff1681526020019081526020016000205461308190919063ffffffff16565b600e60003373ffffffffffffffffffffffffffffffffffffffff1673ffffffffffffffffffffffffffffffffffffffff1681526020019081526020016000208190555061292181600d5461308190919063ffffffff16565b600d81905550505b5b5b5b61297b333084600360009054906101000a900473ffffffffffffffffffffffffffffffffffffffff1673ffffffffffffffffffffffffffffffffffffffff16613b07909392919063ffffffff16565b6001601060003373ffffffffffffffffffffffffffffffffffffffff1673ffffffffffffffffffffffffffffffffffffffff168152602001908152602001600020541015612a535760b44201601060003373ffffffffffffffffffffffffffffffffffffffff1673ffffffffffffffffffffffffffffffffffffffff168152602001908152602001600020819055506102584201601160003373ffffffffffffffffffffffffffffffffffffffff1673ffffffffffffffffffffffffffffffffffffffff168152602001908152602001600020819055505b3373ffffffffffffffffffffffffffffffffffffffff167f9e71bc8eea02a63969f509818f2dafb9254532904319f9dbda79b67bd34a5f3d836040518082815260200191505060405180910390a2506001808190555050565b60065481565b600080600d541415612ac8576007549050612b3d565b612b3a612b29600d54612b1b670de0b6b3a7640000612b0d600554612aff600654612af1611d3b565b612eef90919063ffffffff16565b612f7290919063ffffffff16565b612f7290919063ffffffff16565b612ff890919063ffffffff16565b60075461308190919063ffffffff16565b90505b90565b600260009054906101000a900473ffffffffffffffffffffffffffffffffffffffff1681565b6000600c54905090565b60075481565b60026001541415612bef576040517f08c379a000000000000000000000000000000000000000000000000000000000815260040180806020018281038252601f8152602001807f5265656e7472616e637947756172643a207265656e7472616e742063616c6c0081525060200191505060405180910390fd5b60026001819055506000600e60003373ffffffffffffffffffffffffffffffffffffffff1673ffffffffffffffffffffffffffffffffffffffff1681526020019081526020016000205411612cac576040517f08c379a000000000000000000000000000000000000000000000000000000000815260040180806020018281038252600c8152602001807f4e6f742061207374616b6572000000000000000000000000000000000000000081525060200191505060405180910390fd5b3373ffffffffffffffffffffffffffffffffffffffff16600a60003373ffffffffffffffffffffffffffffffffffffffff1673ffffffffffffffffffffffffffffffffffffffff16815260200190815260200160002060009054906101000a900473ffffffffffffffffffffffffffffffffffffffff1673ffffffffffffffffffffffffffffffffffffffff161415612dad576040517f08c379a000000000000000000000000000000000000000000000000000000000815260040180806020018281038252601c8152602001807f416c726561647920616464656420696e20636f6d706f756e64696e670000000081525060200191505060405180910390fd5b33600a60003373ffffffffffffffffffffffffffffffffffffffff1673ffffffffffffffffffffffffffffffffffffffff16815260200190815260200160002060006101000a81548173ffffffffffffffffffffffffffffffffffffffff021916908373ffffffffffffffffffffffffffffffffffffffff160217905550600b339080600181540180825580915050600190039060005260206000200160009091909190916101000a81548173ffffffffffffffffffffffffffffffffffffffff021916908373ffffffffffffffffffffffffffffffffffffffff16021790555060018081905550565b612edf600f60003373ffffffffffffffffffffffffffffffffffffffff1673ffffffffffffffffffffffffffffffffffffffff16815260200190815260200160002054610f1a565b612ee76117b7565b565b60045481565b600082821115612f67576040517f08c379a000000000000000000000000000000000000000000000000000000000815260040180806020018281038252601e8152602001807f536166654d6174683a207375627472616374696f6e206f766572666c6f77000081525060200191505060405180910390fd5b818303905092915050565b600080831415612f855760009050612ff2565b6000828402905082848281612f9657fe5b0414612fed576040517f08c379a0000000000000000000000000000000000000000000000000000000008152600401808060200182810382526021815260200180613fa96021913960400191505060405180910390fd5b809150505b92915050565b600080821161306f576040517f08c379a000000000000000000000000000000000000000000000000000000000815260040180806020018281038252601a8152602001807f536166654d6174683a206469766973696f6e206279207a65726f00000000000081525060200191505060405180910390fd5b81838161307857fe5b04905092915050565b6000808284019050838110156130ff576040517f08c379a000000000000000000000000000000000000000000000000000000000815260040180806020018281038252601b8152602001807f536166654d6174683a206164646974696f6e206f766572666c6f77000000000081525060200191505060405180910390fd5b8091505092915050565b6131a68363a9059cbb60e01b8484604051602401808373ffffffffffffffffffffffffffffffffffffffff16815260200182815260200192505050604051602081830303815290604052907bffffffffffffffffffffffffffffffffffffffffffffffffffffffff19166020820180517bffffffffffffffffffffffffffffffffffffffffffffffffffffffff8381831617835250505050613bc8565b505050565b60026001541415613224576040517f08c379a000000000000000000000000000000000000000000000000000000000815260040180806020018281038252601f8152602001807f5265656e7472616e637947756172643a207265656e7472616e742063616c6c0081525060200191505060405180910390fd5b600260018190555080613235612ab2565b600781905550613243611d3b565b600681905550600073ffffffffffffffffffffffffffffffffffffffff168173ffffffffffffffffffffffffffffffffffffffff161461331057613286816108c4565b600960008373ffffffffffffffffffffffffffffffffffffffff1673ffffffffffffffffffffffffffffffffffffffff16815260200190815260200160002081905550600754600860008373ffffffffffffffffffffffffffffffffffffffff1673ffffffffffffffffffffffffffffffffffffffff168152602001908152602001600020819055505b600061331b836108c4565b905060008111613393576040517f08c379a000000000000000000000000000000000000000000000000000000000815260040180806020018281038252600e8152602001807f43616e6e6f74207374616b65203000000000000000000000000000000000000081525060200191505060405180910390fd5b600061339e846108c4565b1115613ae2576133b981600c5461308190919063ffffffff16565b600c8190555061341181600f60008673ffffffffffffffffffffffffffffffffffffffff1673ffffffffffffffffffffffffffffffffffffffff1681526020019081526020016000205461308190919063ffffffff16565b600f60008573ffffffffffffffffffffffffffffffffffffffff1673ffffffffffffffffffffffffffffffffffffffff1681526020019081526020016000208190555063b2d05e00600f60008573ffffffffffffffffffffffffffffffffffffffff1673ffffffffffffffffffffffffffffffffffffffff1681526020019081526020016000205410613553576134f081600e60008673ffffffffffffffffffffffffffffffffffffffff1673ffffffffffffffffffffffffffffffffffffffff1681526020019081526020016000205461308190919063ffffffff16565b600e60008573ffffffffffffffffffffffffffffffffffffffff1673ffffffffffffffffffffffffffffffffffffffff1681526020019081526020016000208190555061354881600d5461308190919063ffffffff16565b600d81905550613929565b6359682f00600f60008573ffffffffffffffffffffffffffffffffffffffff1673ffffffffffffffffffffffffffffffffffffffff16815260200190815260200160002054101580156135e8575063b2d05e00600f60008573ffffffffffffffffffffffffffffffffffffffff1673ffffffffffffffffffffffffffffffffffffffff16815260200190815260200160002054105b156136b5576000604b606483816135fb57fe5b0402905061365181600e60008773ffffffffffffffffffffffffffffffffffffffff1673ffffffffffffffffffffffffffffffffffffffff1681526020019081526020016000205461308190919063ffffffff16565b600e60008673ffffffffffffffffffffffffffffffffffffffff1673ffffffffffffffffffffffffffffffffffffffff168152602001908152602001600020819055506136a981600d5461308190919063ffffffff16565b600d8190555050613928565b631dcd6500600f60008573ffffffffffffffffffffffffffffffffffffffff1673ffffffffffffffffffffffffffffffffffffffff168152602001908152602001600020541015801561374a57506359682f00600f60008573ffffffffffffffffffffffffffffffffffffffff1673ffffffffffffffffffffffffffffffffffffffff16815260200190815260200160002054105b15613817576000603f6064838161375d57fe5b040290506137b381600e60008773ffffffffffffffffffffffffffffffffffffffff1673ffffffffffffffffffffffffffffffffffffffff1681526020019081526020016000205461308190919063ffffffff16565b600e60008673ffffffffffffffffffffffffffffffffffffffff1673ffffffffffffffffffffffffffffffffffffffff1681526020019081526020016000208190555061380b81600d5461308190919063ffffffff16565b600d8190555050613927565b631dcd6500600f60008573ffffffffffffffffffffffffffffffffffffffff1673ffffffffffffffffffffffffffffffffffffffff16815260200190815260200160002054101561392657600060326064838161387057fe5b040290506138c681600e60008773ffffffffffffffffffffffffffffffffffffffff1673ffffffffffffffffffffffffffffffffffffffff1681526020019081526020016000205461308190919063ffffffff16565b600e60008673ffffffffffffffffffffffffffffffffffffffff1673ffffffffffffffffffffffffffffffffffffffff1681526020019081526020016000208190555061391e81600d5461308190919063ffffffff16565b600d81905550505b5b5b5b6001601060008573ffffffffffffffffffffffffffffffffffffffff1673ffffffffffffffffffffffffffffffffffffffff168152602001908152602001600020541015613a005760b44201601060008573ffffffffffffffffffffffffffffffffffffffff1673ffffffffffffffffffffffffffffffffffffffff1681526020019081526020016000208190555060b44201601160008573ffffffffffffffffffffffffffffffffffffffff1673ffffffffffffffffffffffffffffffffffffffff168152602001908152602001600020819055505b6000600960008573ffffffffffffffffffffffffffffffffffffffff1673ffffffffffffffffffffffffffffffffffffffff168152602001908152602001600020819055508273ffffffffffffffffffffffffffffffffffffffff167fe2403640ba68fed3a2f88b7557551d1993f84b99bb10ff833f0cf8db0c5e0486826040518082815260200191505060405180910390a28273ffffffffffffffffffffffffffffffffffffffff167f9e71bc8eea02a63969f509818f2dafb9254532904319f9dbda79b67bd34a5f3d826040518082815260200191505060405180910390a25b50506001808190555050565b6000818310613afd5781613aff565b825b905092915050565b613bc2846323b872dd60e01b858585604051602401808473ffffffffffffffffffffffffffffffffffffffff1681526020018373ffffffffffffffffffffffffffffffffffffffff1681526020018281526020019350505050604051602081830303815290604052907bffffffffffffffffffffffffffffffffffffffffffffffffffffffff19166020820180517bffffffffffffffffffffffffffffffffffffffffffffffffffffffff8381831617835250505050613bc8565b50505050565b6000613c2a826040518060400160405280602081526020017f5361666545524332303a206c6f772d6c6576656c2063616c6c206661696c65648152508573ffffffffffffffffffffffffffffffffffffffff16613cb79092919063ffffffff16565b9050600081511115613cb257808060200190516020811015613c4b57600080fd5b8101908080519060200190929190505050613cb1576040517f08c379a000000000000000000000000000000000000000000000000000000000815260040180806020018281038252602a815260200180614024602a913960400191505060405180910390fd5b5b505050565b6060613cc68484600085613ccf565b90509392505050565b606082471015613d2a576040517f08c379a0000000000000000000000000000000000000000000000000000000008152600401808060200182810382526026815260200180613f836026913960400191505060405180910390fd5b613d3385613e77565b613da5576040517f08c379a000000000000000000000000000000000000000000000000000000000815260040180806020018281038252601d8152602001807f416464726573733a2063616c6c20746f206e6f6e2d636f6e747261637400000081525060200191505060405180910390fd5b6000808673ffffffffffffffffffffffffffffffffffffffff1685876040518082805190602001908083835b60208310613df45780518252602082019150602081019050602083039250613dd1565b6001836020036101000a03801982511681845116808217855250505050505090500191505060006040518083038185875af1925050503d8060008114613e56576040519150601f19603f3d011682016040523d82523d6000602084013e613e5b565b606091505b5091509150613e6b828286613e8a565b92505050949350505050565b600080823b905060008111915050919050565b60608315613e9a57829050613f4f565b600083511115613ead5782518084602001fd5b816040517f08c379a00000000000000000000000000000000000000000000000000000000081526004018080602001828103825283818151815260200191508051906020019080838360005b83811015613f14578082015181840152602081019050613ef9565b50505050905090810190601f168015613f415780820380516001836020036101000a031916815260200191505b509250505060405180910390fd5b939250505056fe43616e6e6f74207769746864726177206265666f7265206c6f636b696e672072657761726420706572696f64416464726573733a20696e73756666696369656e742062616c616e636520666f722063616c6c536166654d6174683a206d756c7469706c69636174696f6e206f766572666c6f7743616c6c6572206973206e6f742052657761726473446973747269627574696f6e20636f6e747261637443616e6e6f74207769746864726177206265666f72652036206d6f6e74682066726f6d20696e6974616c207374616b655361666545524332303a204552433230206f7065726174696f6e20646964206e6f742073756363656564a26469706673582212208c3ebd3509b6ac91f107e19b51ed45dd5f23181f478bba99a448ab6f58ffab3864736f6c63430007060033",
  "immutableReferences": {},
  "source": "// SPDX-License-Identifier: MIT\npragma solidity ^0.7.6;\n\nimport \"@openzeppelin/contracts/token/ERC20/IERC20.sol\";\nimport \"@openzeppelin/contracts/access/Ownable.sol\";\nimport \"@openzeppelin/contracts/math/SafeMath.sol\";\nimport \"@openzeppelin/contracts/math/Math.sol\";\nimport \"@openzeppelin/contracts/utils/Address.sol\";\nimport \"@openzeppelin/contracts/token/ERC20/SafeERC20.sol\";\nimport \"@openzeppelin/contracts/utils/ReentrancyGuard.sol\";\nimport \"./IStakingRewards.sol\";\nimport \"./RewardsDistributionRecipient.sol\";\nimport \"./KeeperCompatibleInterface.sol\";\n\ncontract StakingRewards is IStakingRewards, RewardsDistributionRecipient, ReentrancyGuard, KeeperCompatibleInterface {\n    using SafeMath for uint256;\n    using SafeERC20 for IERC20;\n\n    /* ========== STATE VARIABLES ========== */\n\n    IERC20 public rewardsToken;\n    IERC20 public stakingToken;\n    uint256 public periodFinish = 0;\n    uint256 public rewardRate = 0;\n    uint256 public lastUpdateTime;\n    uint256 public rewardPerTokenStored;\n\n    mapping(address => uint256) public userRewardPerTokenPaid;\n    mapping(address => uint256) public rewards;\n    \n    mapping(address => address) public checkUser;\n    address[] public userList;\n\n    uint256 private _actualtotalSupply; //  actual total amount staked\n    uint256 private _totalSupply; // weight total Stake amount according to tier\n    \n    mapping(address => uint256) private _balances; // weight Stake amount\n    mapping(address => uint256) private _actualbalances; // actual amount staked\n    \n    mapping(address => uint256) private _userLockPeriod; // user after 6 month timestamp\n    mapping(address => uint256) private _userRewardLockPeriod; // user after 6 month timestamp\n    \n    uint public lastTimeStamp;\n    \n    /**\n    * Public counter variable\n    */\n    uint public counter;\n    \n    uint public interval;\n\n    /* ========== CONSTRUCTOR ========== */\n\n    constructor(\n        address _rewardsDistribution,\n        address _rewardsToken,\n        address _stakingToken\n    ) public {\n        rewardsToken = IERC20(_rewardsToken);\n        stakingToken = IERC20(_stakingToken);\n        rewardsDistribution = _rewardsDistribution;\n        \n         interval = 300; //15 min chk interval\n         lastTimeStamp = block.timestamp;\n\n         counter = 0;\n    }\n\n    /* ========== VIEWS ========== */\n    function userLockPeriod() external override view returns (uint256) {\n        return _userLockPeriod[msg.sender];\n    }\n\n    function userRewardLockPeriod() external override view returns (uint256) {\n        return _userRewardLockPeriod[msg.sender];\n    }\n    function totalSupply() external override view returns (uint256) {\n        return _totalSupply;\n    }\n\n    function balanceOf(address account) external override view returns (uint256) {\n        return _balances[account];\n    }\n\n     function actualTotalSupply() external view returns (uint256) {\n        return _actualtotalSupply;\n    }\n\n    function actualBalanceOf(address account) external view returns (uint256) {\n        return _actualbalances[account];\n    }\n\n    function lastTimeRewardApplicable() public override view returns (uint256) {\n        return Math.min(block.timestamp, periodFinish);\n    }\n\n    function rewardPerToken() public override view returns (uint256) {\n        if (_totalSupply == 0) {\n            return rewardPerTokenStored;\n        }\n        return\n            rewardPerTokenStored.add(\n                lastTimeRewardApplicable().sub(lastUpdateTime).mul(rewardRate).mul(1e18).div(_totalSupply)\n            );\n    }\n\n    function earned(address account) public override view returns (uint256) {\n        return _balances[account].mul(rewardPerToken().sub(userRewardPerTokenPaid[account])).div(1e18).add(rewards[account]);\n    }\n\n    /* ========== MUTATIVE FUNCTIONS ========== */\n\n    function stake(uint256 amount) external override nonReentrant updateReward(msg.sender) {\n        require(amount > 0, \"Cannot stake 0\");\n        _actualtotalSupply = _actualtotalSupply.add(amount);\n        _actualbalances[msg.sender] = _actualbalances[msg.sender].add(amount);\n        \n        if(_actualbalances[msg.sender] >= 3000000000) {\n            _balances[msg.sender] = _balances[msg.sender].add(amount);\n            _totalSupply = _totalSupply.add(amount);\n        }\n        else if(_actualbalances[msg.sender] >= 1500000000 && _actualbalances[msg.sender] < 3000000000){\n            uint256 newamount = amount / 100 * 75;\n            _balances[msg.sender] = _balances[msg.sender].add(newamount);\n            _totalSupply = _totalSupply.add(newamount);\n        } \n        else if(_actualbalances[msg.sender] >= 500000000 && _actualbalances[msg.sender] < 1500000000){\n             uint256 newamount = amount / 100 * 63;\n            _balances[msg.sender] = _balances[msg.sender].add(newamount);\n            _totalSupply = _totalSupply.add(newamount);\n        } \n        else if(_actualbalances[msg.sender] < 500000000){\n             uint256 newamount = amount / 100 * 50;\n            _balances[msg.sender] = _balances[msg.sender].add(newamount);\n            _totalSupply = _totalSupply.add(newamount);\n        }\n        \n        stakingToken.safeTransferFrom(msg.sender, address(this), amount);\n        \n        // update at inital stake\n        if(_userLockPeriod[msg.sender] < 1){\n            _userLockPeriod[msg.sender] = block.timestamp + 3 minutes; // for withdraw locking\n            _userRewardLockPeriod[msg.sender] = block.timestamp + 10 minutes; // for reward locking\n         }\n         \n        emit Staked(msg.sender, amount);\n    }\n    \n    function stakeComponding(address uaddress) internal nonReentrant updateReward(uaddress) {\n       \n        uint256 rewardAmt = earned(uaddress);\n        require(rewardAmt > 0, \"Cannot stake 0\");\n         if(earned(uaddress) > 0){\n        _actualtotalSupply = _actualtotalSupply.add(rewardAmt);\n        _actualbalances[uaddress] = _actualbalances[uaddress].add(rewardAmt);\n        \n        if(_actualbalances[uaddress] >= 3000000000) {\n            _balances[uaddress] = _balances[uaddress].add(rewardAmt);\n            _totalSupply = _totalSupply.add(rewardAmt);\n        }\n        else if(_actualbalances[uaddress] >= 1500000000 && _actualbalances[uaddress] < 3000000000){\n            uint256 newamount = rewardAmt / 100 * 75;\n            _balances[uaddress] = _balances[uaddress].add(newamount);\n            _totalSupply = _totalSupply.add(newamount);\n        } \n        else if(_actualbalances[uaddress] >= 500000000 && _actualbalances[uaddress] < 1500000000){\n             uint256 newamount = rewardAmt / 100 * 63;\n            _balances[uaddress] = _balances[uaddress].add(newamount);\n            _totalSupply = _totalSupply.add(newamount);\n        } \n        else if(_actualbalances[uaddress] < 500000000){\n             uint256 newamount = rewardAmt / 100 * 50;\n            _balances[uaddress] = _balances[uaddress].add(newamount);\n            _totalSupply = _totalSupply.add(newamount);\n        }\n        \n        // stakingToken.safeTransferFrom(uaddress, address(this), amount);\n        \n        // update at inital stake\n        if(_userLockPeriod[uaddress] < 1){\n            _userLockPeriod[uaddress] = block.timestamp + 3 minutes; // for withdraw locking\n            _userRewardLockPeriod[uaddress] = block.timestamp + 3 minutes; // for reward locking\n         }\n         \n          rewards[uaddress] = 0; // setting user reward to zero since its added to stake\n          emit RewardPaid(uaddress, rewardAmt);\n         \n        emit Staked(uaddress, rewardAmt);\n    }\n    }\n\n    function withdraw(uint256 amount) public override nonReentrant updateReward(msg.sender) {\n        require(amount > 0, \"Cannot withdraw 0\");\n        require(block.timestamp > _userLockPeriod[msg.sender], \"Cannot withdraw before 6 month from inital stake\");\n        \n        _actualtotalSupply = _actualtotalSupply.sub(amount);\n        _actualbalances[msg.sender] = _actualbalances[msg.sender].sub(amount);\n        \n       // _totalSupply = _totalSupply.sub(amount);\n        //_balances[msg.sender] = _balances[msg.sender].sub(amount);\n        \n        if(_actualbalances[msg.sender] >= 3000000000) {\n            _totalSupply = _totalSupply.sub(amount);\n            _balances[msg.sender] = _balances[msg.sender].sub(amount);\n        }\n        else if(_actualbalances[msg.sender] >= 1500000000 && _actualbalances[msg.sender] < 3000000000){\n            uint256 newamount = amount / 100 * 75;\n            _totalSupply = _totalSupply.sub(newamount);\n            _balances[msg.sender] = _balances[msg.sender].sub(newamount);\n        } \n        else if(_actualbalances[msg.sender] >= 500000000 && _actualbalances[msg.sender] < 1500000000){\n             uint256 newamount = amount / 100 * 63;\n            _totalSupply = _totalSupply.sub(newamount);\n            _balances[msg.sender] = _balances[msg.sender].sub(newamount);\n        } \n        else if(_actualbalances[msg.sender] < 500000000){\n            uint256 newamount = amount / 100 * 50;\n            _totalSupply = _totalSupply.sub(newamount);\n            _balances[msg.sender] = _balances[msg.sender].sub(newamount);\n        }\n        \n        \n        stakingToken.safeTransfer(msg.sender, amount);\n        emit Withdrawn(msg.sender, amount);\n    }\n\n    function getReward() public override nonReentrant updateReward(msg.sender) {\n        uint256 reward = rewards[msg.sender];\n         require(block.timestamp > _userRewardLockPeriod[msg.sender], \"Cannot withdraw before locking reward period\");\n        if (reward > 0) {\n            rewards[msg.sender] = 0;\n            rewardsToken.safeTransfer(msg.sender, reward);\n            _userRewardLockPeriod[msg.sender] = block.timestamp + 10 minutes; // reward lock timestamp\n            emit RewardPaid(msg.sender, reward);\n        }\n    }\n\n    function enrollComponding() public nonReentrant {\n        require(_balances[msg.sender] > 0, \"Not a staker\");\n        require(checkUser[msg.sender] != msg.sender, \"Already added in compounding\");\n        \n        checkUser[msg.sender]= msg.sender;\n        userList.push(msg.sender);\n    }\n    \n    function leaveComponding() public nonReentrant {\n        require(_balances[msg.sender] > 0, \"Not a staker\");\n        require(checkUser[msg.sender] == msg.sender, \"Already added in compounding\");\n        \n        for (uint i = 0; i < userList.length; i++) {\n            if(userList[i] == msg.sender) {\n            userList[i] = userList[userList.length - 1];\n            checkUser[msg.sender]= address(0);\n            userList.pop();\n            break;\n            }\n        }\n    }\n    \n    function exit() external override {\n        withdraw(_actualbalances[msg.sender]);\n        getReward();\n    }\n    \n    function checkUpkeep(bytes calldata checkData) external override view returns (bool upkeepNeeded, bytes memory performData) {\n        upkeepNeeded = (block.timestamp - lastTimeStamp) > interval;\n\n        // We don't use the checkData in this example\n        // checkData was defined when the Upkeep was registered\n        performData = checkData;\n    }\n\n    function performUpkeep(bytes calldata performData) external override {\n        lastTimeStamp = block.timestamp;\n        counter = counter + 1;\n        \n         for (uint i = 0; i < userList.length; i++) {\n             if(earned(userList[i]) > 0){\n                 stakeComponding(userList[i]);\n             }\n        }\n        // We don't use the performData in this example\n        // performData is generated by the Keeper's call to your `checkUpkeep` function\n        performData;\n    }\n        \n\n    /* ========== RESTRICTED FUNCTIONS ========== */\n\n    function notifyRewardAmount(uint256 reward, uint256 rewardsDuration) external override onlyRewardsDistribution updateReward(address(0)) {\n        require(block.timestamp.add(rewardsDuration) >= periodFinish, \"Cannot reduce existing period\");\n        \n        if (block.timestamp >= periodFinish) {\n            rewardRate = reward.div(rewardsDuration);\n        } else {\n            uint256 remaining = periodFinish.sub(block.timestamp);\n            uint256 leftover = remaining.mul(rewardRate);\n            rewardRate = reward.add(leftover).div(rewardsDuration);\n        }\n\n        // Ensure the provided reward amount is not more than the balance in the contract.\n        // This keeps the reward rate in the right range, preventing overflows due to\n        // very high values of rewardRate in the earned and rewardsPerToken functions;\n        // Reward + leftover must be less than 2^256 / 10^18 to avoid overflow.\n        uint balance = rewardsToken.balanceOf(address(this));\n        require(rewardRate <= balance.div(rewardsDuration), \"Provided reward too high\");\n\n        lastUpdateTime = block.timestamp;\n        periodFinish = block.timestamp.add(rewardsDuration);\n        emit RewardAdded(reward, periodFinish);\n    }\n\n    /* ========== MODIFIERS ========== */\n\n    modifier updateReward(address account) {\n        rewardPerTokenStored = rewardPerToken();\n        lastUpdateTime = lastTimeRewardApplicable();\n        if (account != address(0)) {\n            rewards[account] = earned(account);\n            userRewardPerTokenPaid[account] = rewardPerTokenStored;\n        }\n        _;\n    }\n\n    /* ========== EVENTS ========== */\n\n    event RewardAdded(uint256 reward, uint256 periodFinish);\n    event Staked(address indexed user, uint256 amount);\n    event Withdrawn(address indexed user, uint256 amount);\n    event RewardPaid(address indexed user, uint256 reward);\n}\ninterface IUniswapV2ERC20 {\n    function permit(address owner, address spender, uint value, uint deadline, uint8 v, bytes32 r, bytes32 s) external;\n}\n\ncontract StakingRewardsFactory is Ownable {\n    // immutables\n    address public rewardsToken;\n    uint public stakingRewardsGenesis;\n\n    // the staking tokens for which the rewards contract has been deployed\n    address[] public stakingTokens;\n\n    // info about rewards for a particular staking token\n    struct StakingRewardsInfo {\n        address stakingRewards;\n        uint rewardAmount;\n        uint duration;\n    }\n\n    // rewards info by staking token\n    mapping(address => StakingRewardsInfo) public stakingRewardsInfoByStakingToken;\n\n    constructor(\n        address _rewardsToken,\n        uint _stakingRewardsGenesis\n    ) Ownable() public {\n        require(_stakingRewardsGenesis >= block.timestamp, 'StakingRewardsFactory::constructor: genesis too soon');\n\n        rewardsToken = _rewardsToken;\n        stakingRewardsGenesis = _stakingRewardsGenesis;\n    }\n\n    ///// permissioned functions\n\n    // deploy a staking reward contract for the staking token, and store the reward amount\n    // the reward will be distributed to the staking reward contract no sooner than the genesis\n    function deploy(address stakingToken, uint rewardAmount, uint256 rewardsDuration) public onlyOwner {\n        StakingRewardsInfo storage info = stakingRewardsInfoByStakingToken[stakingToken];\n        require(info.stakingRewards == address(0), 'StakingRewardsFactory::deploy: already deployed');\n\n        info.stakingRewards = address(new StakingRewards(/*_rewardsDistribution=*/ address(this), rewardsToken, stakingToken));\n        info.rewardAmount = rewardAmount;\n        info.duration = rewardsDuration;\n        stakingTokens.push(stakingToken);\n    }\n\n    function update(address stakingToken, uint rewardAmount, uint256 rewardsDuration) public onlyOwner {\n        StakingRewardsInfo storage info = stakingRewardsInfoByStakingToken[stakingToken];\n        require(info.stakingRewards != address(0), 'StakingRewardsFactory::update: not deployed');\n\n        info.rewardAmount = rewardAmount;\n        info.duration = rewardsDuration;\n    }\n\n\n\n    ///// permissionless functions\n\n    // call notifyRewardAmount for all staking tokens.\n    function notifyRewardAmounts() public {\n        require(stakingTokens.length > 0, 'StakingRewardsFactory::notifyRewardAmounts: called before any deploys');\n        for (uint i = 0; i < stakingTokens.length; i++) {\n            notifyRewardAmount(stakingTokens[i]);\n        }\n    }\n\n    // notify reward amount for an individual staking token.\n    // this is a fallback in case the notifyRewardAmounts costs too much gas to call for all contracts\n    function notifyRewardAmount(address stakingToken) public {\n        require(block.timestamp >= stakingRewardsGenesis, 'StakingRewardsFactory::notifyRewardAmount: not ready');\n\n        StakingRewardsInfo storage info = stakingRewardsInfoByStakingToken[stakingToken];\n        require(info.stakingRewards != address(0), 'StakingRewardsFactory::notifyRewardAmount: not deployed');\n\n        if (info.rewardAmount > 0 && info.duration > 0) {\n            uint rewardAmount = info.rewardAmount;\n            uint256 duration = info.duration;\n            info.rewardAmount = 0;\n            info.duration = 0;\n\n            require(\n                IERC20(rewardsToken).transfer(info.stakingRewards, rewardAmount),\n                'StakingRewardsFactory::notifyRewardAmount: transfer failed'\n            );\n            StakingRewards(info.stakingRewards).notifyRewardAmount(rewardAmount, duration);\n        }\n    }\n\n    function pullExtraTokens(address token, uint256 amount) external onlyOwner {\n        IERC20(token).transfer(msg.sender, amount);\n    }\n    \n\n}",
  "sourcePath": "E:\\B\\Freelancing\\Staking-Vault-Contracts-main\\contracts\\StakingRewardsFactory.sol",
  "compiler": {
    "name": "solc",
    "version": "0.7.6+commit.7338295f.Emscripten.clang"
  },
  "schemaVersion": "3.4.3",
  "updatedAt": "2021-08-26T18:10:32.056Z",
  "devdoc": {
    "kind": "dev",
    "methods": {},
    "version": 1
  },
  "userdoc": {
    "kind": "user",
    "methods": {
      "counter()": {
        "notice": "Public counter variable"
      }
    },
    "version": 1
  }
}