{
  "contractName": "StakingRewardsFactory",
  "abi": [
    {
      "inputs": [
        {
          "internalType": "address",
          "name": "_rewardsToken",
          "type": "address"
        },
        {
          "internalType": "uint256",
          "name": "_stakingRewardsGenesis",
          "type": "uint256"
        }
      ],
      "stateMutability": "nonpayable",
      "type": "constructor"
    },
    {
      "anonymous": false,
      "inputs": [
        {
          "indexed": true,
          "internalType": "address",
          "name": "previousOwner",
          "type": "address"
        },
        {
          "indexed": true,
          "internalType": "address",
          "name": "newOwner",
          "type": "address"
        }
      ],
      "name": "OwnershipTransferred",
      "type": "event"
    },
    {
      "inputs": [],
      "name": "owner",
      "outputs": [
        {
          "internalType": "address",
          "name": "",
          "type": "address"
        }
      ],
      "stateMutability": "view",
      "type": "function"
    },
    {
      "inputs": [],
      "name": "renounceOwnership",
      "outputs": [],
      "stateMutability": "nonpayable",
      "type": "function"
    },
    {
      "inputs": [],
      "name": "rewardsToken",
      "outputs": [
        {
          "internalType": "address",
          "name": "",
          "type": "address"
        }
      ],
      "stateMutability": "view",
      "type": "function"
    },
    {
      "inputs": [],
      "name": "stakingRewardsGenesis",
      "outputs": [
        {
          "internalType": "uint256",
          "name": "",
          "type": "uint256"
        }
      ],
      "stateMutability": "view",
      "type": "function"
    },
    {
      "inputs": [
        {
          "internalType": "address",
          "name": "",
          "type": "address"
        }
      ],
      "name": "stakingRewardsInfoByStakingToken",
      "outputs": [
        {
          "internalType": "address",
          "name": "stakingRewards",
          "type": "address"
        },
        {
          "internalType": "uint256",
          "name": "rewardAmount",
          "type": "uint256"
        },
        {
          "internalType": "uint256",
          "name": "duration",
          "type": "uint256"
        }
      ],
      "stateMutability": "view",
      "type": "function"
    },
    {
      "inputs": [
        {
          "internalType": "uint256",
          "name": "",
          "type": "uint256"
        }
      ],
      "name": "stakingTokens",
      "outputs": [
        {
          "internalType": "address",
          "name": "",
          "type": "address"
        }
      ],
      "stateMutability": "view",
      "type": "function"
    },
    {
      "inputs": [
        {
          "internalType": "address",
          "name": "newOwner",
          "type": "address"
        }
      ],
      "name": "transferOwnership",
      "outputs": [],
      "stateMutability": "nonpayable",
      "type": "function"
    },
    {
      "inputs": [
        {
          "internalType": "address",
          "name": "stakingToken",
          "type": "address"
        },
        {
          "internalType": "uint256",
          "name": "rewardAmount",
          "type": "uint256"
        },
        {
          "internalType": "uint256",
          "name": "rewardsDuration",
          "type": "uint256"
        }
      ],
      "name": "deploy",
      "outputs": [],
      "stateMutability": "nonpayable",
      "type": "function"
    },
    {
      "inputs": [
        {
          "internalType": "address",
          "name": "stakingToken",
          "type": "address"
        },
        {
          "internalType": "uint256",
          "name": "rewardAmount",
          "type": "uint256"
        },
        {
          "internalType": "uint256",
          "name": "rewardsDuration",
          "type": "uint256"
        }
      ],
      "name": "update",
      "outputs": [],
      "stateMutability": "nonpayable",
      "type": "function"
    },
    {
      "inputs": [],
      "name": "notifyRewardAmounts",
      "outputs": [],
      "stateMutability": "nonpayable",
      "type": "function"
    },
    {
      "inputs": [
        {
          "internalType": "address",
          "name": "stakingToken",
          "type": "address"
        }
      ],
      "name": "notifyRewardAmount",
      "outputs": [],
      "stateMutability": "nonpayable",
      "type": "function"
    },
    {
      "inputs": [
        {
          "internalType": "address",
          "name": "token",
          "type": "address"
        },
        {
          "internalType": "uint256",
          "name": "amount",
          "type": "uint256"
        }
      ],
      "name": "pullExtraTokens",
      "outputs": [],
      "stateMutability": "nonpayable",
      "type": "function"
    }
  ],
  "bytecode": "0x60806040523480156200001157600080fd5b5060405162005a9238038062005a928339818101604052810190620000379190620001e7565b620000576200004b620000ed60201b60201c565b620000f560201b60201c565b428110156200009d576040517f08c379a0000000000000000000000000000000000000000000000000000000008152600401620000949062000290565b60405180910390fd5b81600160006101000a81548173ffffffffffffffffffffffffffffffffffffffff021916908373ffffffffffffffffffffffffffffffffffffffff16021790555080600281905550505062000335565b600033905090565b60008060009054906101000a900473ffffffffffffffffffffffffffffffffffffffff169050816000806101000a81548173ffffffffffffffffffffffffffffffffffffffff021916908373ffffffffffffffffffffffffffffffffffffffff1602179055508173ffffffffffffffffffffffffffffffffffffffff168173ffffffffffffffffffffffffffffffffffffffff167f8be0079c531659141344cd1fd0a4f28419497f9722a3daafe3b4186f6b6457e060405160405180910390a35050565b600081519050620001ca8162000301565b92915050565b600081519050620001e1816200031b565b92915050565b60008060408385031215620001fb57600080fd5b60006200020b85828601620001b9565b92505060206200021e85828601620001d0565b9150509250929050565b600062000237603483620002b2565b91507f5374616b696e6752657761726473466163746f72793a3a636f6e73747275637460008301527f6f723a2067656e6573697320746f6f20736f6f6e0000000000000000000000006020830152604082019050919050565b60006020820190508181036000830152620002ab8162000228565b9050919050565b600082825260208201905092915050565b6000620002d082620002d7565b9050919050565b600073ffffffffffffffffffffffffffffffffffffffff82169050919050565b6000819050919050565b6200030c81620002c3565b81146200031857600080fd5b50565b6200032681620002f7565b81146200033257600080fd5b50565b61574d80620003456000396000f3fe60806040523480156200001157600080fd5b5060043610620000c45760003560e01c8063a0928c11116200007b578063a0928c1114620001a5578063ae741d8d14620001c7578063cfda547814620001d3578063d09b6d4314620001f3578063d1af0c7d1462000213578063f2fde38b146200023557620000c4565b8063344e5e3414620000c95780636cf8caf814620000ff578063715018a614620001375780637572719e146200014357806381e1629814620001635780638da5cb5b1462000183575b600080fd5b620000e76004803603810190620000e1919062000fe2565b62000255565b604051620000f6919062001370565b60405180910390f35b6200011d600480360381019062000117919062000ef3565b62000295565b6040516200012e93929190620013f7565b60405180910390f35b62000141620002df565b005b6200016160048036038101906200015b919062000f1f565b62000370565b005b6200018160048036038101906200017b919062000ef3565b6200048b565b005b6200018d620007a9565b6040516200019c919062001370565b60405180910390f35b620001af620007d2565b604051620001be919062001544565b60405180910390f35b620001d1620007d8565b005b620001f16004803603810190620001eb919062000f60565b620008bd565b005b6200021160048036038101906200020b919062000f60565b62000b35565b005b6200021d62000caa565b6040516200022c919062001370565b60405180910390f35b6200025360048036038101906200024d919062000ef3565b62000cd0565b005b600381815481106200026657600080fd5b906000526020600020016000915054906101000a900473ffffffffffffffffffffffffffffffffffffffff1681565b60046020528060005260406000206000915090508060000160009054906101000a900473ffffffffffffffffffffffffffffffffffffffff16908060010154908060020154905083565b620002e962000dd4565b73ffffffffffffffffffffffffffffffffffffffff1662000309620007a9565b73ffffffffffffffffffffffffffffffffffffffff161462000362576040517f08c379a000000000000000000000000000000000000000000000000000000000815260040162000359906200149a565b60405180910390fd5b6200036e600062000ddc565b565b6200037a62000dd4565b73ffffffffffffffffffffffffffffffffffffffff166200039a620007a9565b73ffffffffffffffffffffffffffffffffffffffff1614620003f3576040517f08c379a0000000000000000000000000000000000000000000000000000000008152600401620003ea906200149a565b60405180910390fd5b8173ffffffffffffffffffffffffffffffffffffffff1663a9059cbb33836040518363ffffffff1660e01b815260040162000430929190620013ca565b602060405180830381600087803b1580156200044b57600080fd5b505af115801562000460573d6000803e3d6000fd5b505050506040513d601f19601f8201168201806040525081019062000486919062000fb6565b505050565b600254421015620004d3576040517f08c379a0000000000000000000000000000000000000000000000000000000008152600401620004ca9062001500565b60405180910390fd5b6000600460008373ffffffffffffffffffffffffffffffffffffffff1673ffffffffffffffffffffffffffffffffffffffff1681526020019081526020016000209050600073ffffffffffffffffffffffffffffffffffffffff168160000160009054906101000a900473ffffffffffffffffffffffffffffffffffffffff1673ffffffffffffffffffffffffffffffffffffffff161415620005ad576040517f08c379a0000000000000000000000000000000000000000000000000000000008152600401620005a49062001522565b60405180910390fd5b60008160010154118015620005c6575060008160020154115b15620007a5576000816001015490506000826002015490506000836001018190555060008360020181905550600160009054906101000a900473ffffffffffffffffffffffffffffffffffffffff1673ffffffffffffffffffffffffffffffffffffffff1663a9059cbb8460000160009054906101000a900473ffffffffffffffffffffffffffffffffffffffff16846040518363ffffffff1660e01b815260040162000675929190620013ca565b602060405180830381600087803b1580156200069057600080fd5b505af1158015620006a5573d6000803e3d6000fd5b505050506040513d601f19601f82011682018060405250810190620006cb919062000fb6565b6200070d576040517f08c379a00000000000000000000000000000000000000000000000000000000081526004016200070490620014de565b60405180910390fd5b8260000160009054906101000a900473ffffffffffffffffffffffffffffffffffffffff1673ffffffffffffffffffffffffffffffffffffffff1663246132f983836040518363ffffffff1660e01b81526004016200076e92919062001561565b600060405180830381600087803b1580156200078957600080fd5b505af11580156200079e573d6000803e3d6000fd5b5050505050505b5050565b60008060009054906101000a900473ffffffffffffffffffffffffffffffffffffffff16905090565b60025481565b60006003805490501162000823576040517f08c379a00000000000000000000000000000000000000000000000000000000081526004016200081a90620014bc565b60405180910390fd5b60005b600380549050811015620008ba57620008a46003828154811062000873577f4e487b7100000000000000000000000000000000000000000000000000000000600052603260045260246000fd5b9060005260206000200160009054906101000a900473ffffffffffffffffffffffffffffffffffffffff166200048b565b8080620008b190620015e9565b91505062000826565b50565b620008c762000dd4565b73ffffffffffffffffffffffffffffffffffffffff16620008e7620007a9565b73ffffffffffffffffffffffffffffffffffffffff161462000940576040517f08c379a000000000000000000000000000000000000000000000000000000000815260040162000937906200149a565b60405180910390fd5b6000600460008573ffffffffffffffffffffffffffffffffffffffff1673ffffffffffffffffffffffffffffffffffffffff1681526020019081526020016000209050600073ffffffffffffffffffffffffffffffffffffffff168160000160009054906101000a900473ffffffffffffffffffffffffffffffffffffffff1673ffffffffffffffffffffffffffffffffffffffff161462000a19576040517f08c379a000000000000000000000000000000000000000000000000000000000815260040162000a109062001478565b60405180910390fd5b30600160009054906101000a900473ffffffffffffffffffffffffffffffffffffffff168560405162000a4c9062000ea0565b62000a5a939291906200138d565b604051809103906000f08015801562000a77573d6000803e3d6000fd5b508160000160006101000a81548173ffffffffffffffffffffffffffffffffffffffff021916908373ffffffffffffffffffffffffffffffffffffffff1602179055508281600101819055508181600201819055506003849080600181540180825580915050600190039060005260206000200160009091909190916101000a81548173ffffffffffffffffffffffffffffffffffffffff021916908373ffffffffffffffffffffffffffffffffffffffff16021790555050505050565b62000b3f62000dd4565b73ffffffffffffffffffffffffffffffffffffffff1662000b5f620007a9565b73ffffffffffffffffffffffffffffffffffffffff161462000bb8576040517f08c379a000000000000000000000000000000000000000000000000000000000815260040162000baf906200149a565b60405180910390fd5b6000600460008573ffffffffffffffffffffffffffffffffffffffff1673ffffffffffffffffffffffffffffffffffffffff1681526020019081526020016000209050600073ffffffffffffffffffffffffffffffffffffffff168160000160009054906101000a900473ffffffffffffffffffffffffffffffffffffffff1673ffffffffffffffffffffffffffffffffffffffff16141562000c92576040517f08c379a000000000000000000000000000000000000000000000000000000000815260040162000c899062001456565b60405180910390fd5b82816001018190555081816002018190555050505050565b600160009054906101000a900473ffffffffffffffffffffffffffffffffffffffff1681565b62000cda62000dd4565b73ffffffffffffffffffffffffffffffffffffffff1662000cfa620007a9565b73ffffffffffffffffffffffffffffffffffffffff161462000d53576040517f08c379a000000000000000000000000000000000000000000000000000000000815260040162000d4a906200149a565b60405180910390fd5b600073ffffffffffffffffffffffffffffffffffffffff168173ffffffffffffffffffffffffffffffffffffffff16141562000dc6576040517f08c379a000000000000000000000000000000000000000000000000000000000815260040162000dbd9062001434565b60405180910390fd5b62000dd18162000ddc565b50565b600033905090565b60008060009054906101000a900473ffffffffffffffffffffffffffffffffffffffff169050816000806101000a81548173ffffffffffffffffffffffffffffffffffffffff021916908373ffffffffffffffffffffffffffffffffffffffff1602179055508173ffffffffffffffffffffffffffffffffffffffff168173ffffffffffffffffffffffffffffffffffffffff167f8be0079c531659141344cd1fd0a4f28419497f9722a3daafe3b4186f6b6457e060405160405180910390a35050565b61406380620016b583390190565b60008135905062000ebf8162001666565b92915050565b60008151905062000ed68162001680565b92915050565b60008135905062000eed816200169a565b92915050565b60006020828403121562000f0657600080fd5b600062000f168482850162000eae565b91505092915050565b6000806040838503121562000f3357600080fd5b600062000f438582860162000eae565b925050602062000f568582860162000edc565b9150509250929050565b60008060006060848603121562000f7657600080fd5b600062000f868682870162000eae565b935050602062000f998682870162000edc565b925050604062000fac8682870162000edc565b9150509250925092565b60006020828403121562000fc957600080fd5b600062000fd98482850162000ec5565b91505092915050565b60006020828403121562000ff557600080fd5b6000620010058482850162000edc565b91505092915050565b62001019816200159f565b82525050565b60006200102e6026836200158e565b91507f4f776e61626c653a206e6577206f776e657220697320746865207a65726f206160008301527f64647265737300000000000000000000000000000000000000000000000000006020830152604082019050919050565b600062001096602b836200158e565b91507f5374616b696e6752657761726473466163746f72793a3a7570646174653a206e60008301527f6f74206465706c6f7965640000000000000000000000000000000000000000006020830152604082019050919050565b6000620010fe602f836200158e565b91507f5374616b696e6752657761726473466163746f72793a3a6465706c6f793a206160008301527f6c7265616479206465706c6f79656400000000000000000000000000000000006020830152604082019050919050565b6000620011666020836200158e565b91507f4f776e61626c653a2063616c6c6572206973206e6f7420746865206f776e65726000830152602082019050919050565b6000620011a86045836200158e565b91507f5374616b696e6752657761726473466163746f72793a3a6e6f7469667952657760008301527f617264416d6f756e74733a2063616c6c6564206265666f726520616e7920646560208301527f706c6f79730000000000000000000000000000000000000000000000000000006040830152606082019050919050565b600062001236603a836200158e565b91507f5374616b696e6752657761726473466163746f72793a3a6e6f7469667952657760008301527f617264416d6f756e743a207472616e73666572206661696c65640000000000006020830152604082019050919050565b60006200129e6034836200158e565b91507f5374616b696e6752657761726473466163746f72793a3a6e6f7469667952657760008301527f617264416d6f756e743a206e6f742072656164790000000000000000000000006020830152604082019050919050565b6000620013066037836200158e565b91507f5374616b696e6752657761726473466163746f72793a3a6e6f7469667952657760008301527f617264416d6f756e743a206e6f74206465706c6f7965640000000000000000006020830152604082019050919050565b6200136a81620015df565b82525050565b60006020820190506200138760008301846200100e565b92915050565b6000606082019050620013a460008301866200100e565b620013b360208301856200100e565b620013c260408301846200100e565b949350505050565b6000604082019050620013e160008301856200100e565b620013f060208301846200135f565b9392505050565b60006060820190506200140e60008301866200100e565b6200141d60208301856200135f565b6200142c60408301846200135f565b949350505050565b600060208201905081810360008301526200144f816200101f565b9050919050565b60006020820190508181036000830152620014718162001087565b9050919050565b600060208201905081810360008301526200149381620010ef565b9050919050565b60006020820190508181036000830152620014b58162001157565b9050919050565b60006020820190508181036000830152620014d78162001199565b9050919050565b60006020820190508181036000830152620014f98162001227565b9050919050565b600060208201905081810360008301526200151b816200128f565b9050919050565b600060208201905081810360008301526200153d81620012f7565b9050919050565b60006020820190506200155b60008301846200135f565b92915050565b60006040820190506200157860008301856200135f565b6200158760208301846200135f565b9392505050565b600082825260208201905092915050565b6000620015ac82620015bf565b9050919050565b60008115159050919050565b600073ffffffffffffffffffffffffffffffffffffffff82169050919050565b6000819050919050565b6000620015f682620015df565b91507fffffffffffffffffffffffffffffffffffffffffffffffffffffffffffffffff8214156200162c576200162b62001637565b5b600182019050919050565b7f4e487b7100000000000000000000000000000000000000000000000000000000600052601160045260246000fd5b62001671816200159f565b81146200167d57600080fd5b50565b6200168b81620015b3565b81146200169757600080fd5b50565b620016a581620015df565b8114620016b157600080fd5b5056fe6080604052600060045560006005553480156200001b57600080fd5b506040516200406338038062004063833981810160405281019062000041919062000142565b6001808190555081600260006101000a81548173ffffffffffffffffffffffffffffffffffffffff021916908373ffffffffffffffffffffffffffffffffffffffff16021790555080600360006101000a81548173ffffffffffffffffffffffffffffffffffffffff021916908373ffffffffffffffffffffffffffffffffffffffff160217905550826000806101000a81548173ffffffffffffffffffffffffffffffffffffffff021916908373ffffffffffffffffffffffffffffffffffffffff16021790555061012c601581905550426013819055506000601481905550505050620001e6565b6000815190506200013c81620001cc565b92915050565b6000806000606084860312156200015857600080fd5b600062000168868287016200012b565b93505060206200017b868287016200012b565b92505060406200018e868287016200012b565b9150509250925092565b6000620001a582620001ac565b9050919050565b600073ffffffffffffffffffffffffffffffffffffffff82169050919050565b620001d78162000198565b8114620001e357600080fd5b50565b613e6d80620001f66000396000f3fe608060405234801561001057600080fd5b50600436106102055760003560e01c806372f702f31161011a578063a694fc3a116100ad578063d657ae0c1161007c578063d657ae0c146105e1578063df136d65146105ff578063e5a93d451461061d578063e9fad8ee14610627578063ebe2b12b1461063157610205565b8063a694fc3a1461056b578063c8f33c9114610587578063cd3daf9d146105a5578063d1af0c7d146105c357610205565b80638b876347116100e95780638b876347146104e3578063947a36fb146105135780639e034f74146105315780639f4216e81461053b57610205565b806372f702f31461046d5780637b0a47ee1461048b5780637b4638e7146104a957806380faa57d146104c557610205565b80633d18b9121161019d57806361bc221a1161016c57806361bc221a146103a057806362ffb238146103be5780636e04ff0d146103ee5780636e94d5071461041f57806370a082311461043d57610205565b80633d18b9121461033e5780633f3b3b27146103485780633fc6df6e146103665780634585e33b1461038457610205565b806318160ddd116101d957806318160ddd146102b85780631e9d48cf146102d6578063246132f9146103065780632e1a7d4d1461032257610205565b80628cc2621461020a5780630700037d1461023a5780630d9789b21461026a57806317a950ac14610288575b600080fd5b610224600480360381019061021f9190613129565b61064f565b6040516102319190613aff565b60405180910390f35b610254600480360381019061024f9190613129565b61076d565b6040516102619190613aff565b60405180910390f35b610272610785565b60405161027f9190613aff565b60405180910390f35b6102a2600480360381019061029d9190613129565b6107cc565b6040516102af9190613aff565b60405180910390f35b6102c0610815565b6040516102cd9190613aff565b60405180910390f35b6102f060048036038101906102eb9190613129565b61081f565b6040516102fd9190613837565b60405180910390f35b610320600480360381019061031b9190613261565b610852565b005b61033c600480360381019061033791906131c0565b610c0a565b005b610346610f34565b005b610350611271565b60405161035d9190613aff565b60405180910390f35b61036e611277565b60405161037b9190613837565b60405180910390f35b61039e6004803603810190610399919061317b565b61129b565b005b6103a8611402565b6040516103b59190613aff565b60405180910390f35b6103d860048036038101906103d39190613129565b611408565b6040516103e59190613aff565b60405180910390f35b6104086004803603810190610403919061317b565b611420565b6040516104169291906138b2565b60405180910390f35b610427611486565b6040516104349190613aff565b60405180910390f35b61045760048036038101906104529190613129565b6114cd565b6040516104649190613aff565b60405180910390f35b610475611516565b60405161048291906138e2565b60405180910390f35b61049361153c565b6040516104a09190613aff565b60405180910390f35b6104c360048036038101906104be9190613212565b611542565b005b6104cd611834565b6040516104da9190613aff565b60405180910390f35b6104fd60048036038101906104f89190613129565b611847565b60405161050a9190613aff565b60405180910390f35b61051b61185f565b6040516105289190613aff565b60405180910390f35b610539611865565b005b610555600480360381019061055091906131c0565b611c8e565b6040516105629190613837565b60405180910390f35b610585600480360381019061058091906131c0565b611ccd565b005b61058f611fe0565b60405161059c9190613aff565b60405180910390f35b6105ad611fe6565b6040516105ba9190613aff565b60405180910390f35b6105cb612074565b6040516105d891906138e2565b60405180910390f35b6105e961209a565b6040516105f69190613aff565b60405180910390f35b6106076120a4565b6040516106149190613aff565b60405180910390f35b6106256120aa565b005b61062f612332565b005b610639612384565b6040516106469190613aff565b60405180910390f35b6000610766600960008473ffffffffffffffffffffffffffffffffffffffff1673ffffffffffffffffffffffffffffffffffffffff16815260200190815260200160002054610758670de0b6b3a764000061074a6106fc600860008973ffffffffffffffffffffffffffffffffffffffff1673ffffffffffffffffffffffffffffffffffffffff168152602001908152602001600020546106ee611fe6565b61238a90919063ffffffff16565b600f60008973ffffffffffffffffffffffffffffffffffffffff1673ffffffffffffffffffffffffffffffffffffffff168152602001908152602001600020546123a090919063ffffffff16565b6123b690919063ffffffff16565b6123cc90919063ffffffff16565b9050919050565b60096020528060005260406000206000915090505481565b6000601260003373ffffffffffffffffffffffffffffffffffffffff1673ffffffffffffffffffffffffffffffffffffffff16815260200190815260200160002054905090565b6000601060008373ffffffffffffffffffffffffffffffffffffffff1673ffffffffffffffffffffffffffffffffffffffff168152602001908152602001600020549050919050565b6000600e54905090565b600b6020528060005260406000206000915054906101000a900473ffffffffffffffffffffffffffffffffffffffff1681565b60008054906101000a900473ffffffffffffffffffffffffffffffffffffffff1673ffffffffffffffffffffffffffffffffffffffff163373ffffffffffffffffffffffffffffffffffffffff16146108e0576040517f08c379a00000000000000000000000000000000000000000000000000000000081526004016108d790613a7f565b60405180910390fd5b60006108ea611fe6565b6007819055506108f8611834565b600681905550600073ffffffffffffffffffffffffffffffffffffffff168173ffffffffffffffffffffffffffffffffffffffff16146109c55761093b8161064f565b600960008373ffffffffffffffffffffffffffffffffffffffff1673ffffffffffffffffffffffffffffffffffffffff16815260200190815260200160002081905550600754600860008373ffffffffffffffffffffffffffffffffffffffff1673ffffffffffffffffffffffffffffffffffffffff168152602001908152602001600020819055505b6004546109db83426123cc90919063ffffffff16565b1015610a1c576040517f08c379a0000000000000000000000000000000000000000000000000000000008152600401610a13906139bf565b60405180910390fd5b6004544210610a4357610a3882846123b690919063ffffffff16565b600581905550610aa3565b6000610a5a4260045461238a90919063ffffffff16565b90506000610a73600554836123a090919063ffffffff16565b9050610a9a84610a8c83886123cc90919063ffffffff16565b6123b690919063ffffffff16565b60058190555050505b6000600260009054906101000a900473ffffffffffffffffffffffffffffffffffffffff1673ffffffffffffffffffffffffffffffffffffffff166370a08231306040518263ffffffff1660e01b8152600401610b009190613837565b60206040518083038186803b158015610b1857600080fd5b505afa158015610b2c573d6000803e3d6000fd5b505050506040513d601f19601f82011682018060405250810190610b5091906131e9565b9050610b6583826123b690919063ffffffff16565b6005541115610ba9576040517f08c379a0000000000000000000000000000000000000000000000000000000008152600401610ba0906139ff565b60405180910390fd5b42600681905550610bc383426123cc90919063ffffffff16565b6004819055507f6c07ee05dcf262f13abf9d87b846ee789d2f90fe991d495acd7d7fc109ee1f5584600454604051610bfc929190613b1a565b60405180910390a150505050565b60026001541415610c50576040517f08c379a0000000000000000000000000000000000000000000000000000000008152600401610c4790613adf565b60405180910390fd5b600260018190555033610c61611fe6565b600781905550610c6f611834565b600681905550600073ffffffffffffffffffffffffffffffffffffffff168173ffffffffffffffffffffffffffffffffffffffff1614610d3c57610cb28161064f565b600960008373ffffffffffffffffffffffffffffffffffffffff1673ffffffffffffffffffffffffffffffffffffffff16815260200190815260200160002081905550600754600860008373ffffffffffffffffffffffffffffffffffffffff1673ffffffffffffffffffffffffffffffffffffffff168152602001908152602001600020819055505b60008211610d7f576040517f08c379a0000000000000000000000000000000000000000000000000000000008152600401610d76906139df565b60405180910390fd5b601160003373ffffffffffffffffffffffffffffffffffffffff1673ffffffffffffffffffffffffffffffffffffffff168152602001908152602001600020544211610e00576040517f08c379a0000000000000000000000000000000000000000000000000000000008152600401610df790613a9f565b60405180910390fd5b600a60003373ffffffffffffffffffffffffffffffffffffffff1673ffffffffffffffffffffffffffffffffffffffff16815260200190815260200160002054421015610e82576040517f08c379a0000000000000000000000000000000000000000000000000000000008152600401610e799061397f565b60405180910390fd5b610e8e338360006123e2565b610edb3383600360009054906101000a900473ffffffffffffffffffffffffffffffffffffffff1673ffffffffffffffffffffffffffffffffffffffff166128d99092919063ffffffff16565b3373ffffffffffffffffffffffffffffffffffffffff167f7084f5476618d8e60b11ef0d7d3f06914655adb8793e28ff7f018d4c76d505d583604051610f219190613aff565b60405180910390a2506001808190555050565b60026001541415610f7a576040517f08c379a0000000000000000000000000000000000000000000000000000000008152600401610f7190613adf565b60405180910390fd5b600260018190555033610f8b611fe6565b600781905550610f99611834565b600681905550600073ffffffffffffffffffffffffffffffffffffffff168173ffffffffffffffffffffffffffffffffffffffff161461106657610fdc8161064f565b600960008373ffffffffffffffffffffffffffffffffffffffff1673ffffffffffffffffffffffffffffffffffffffff16815260200190815260200160002081905550600754600860008373ffffffffffffffffffffffffffffffffffffffff1673ffffffffffffffffffffffffffffffffffffffff168152602001908152602001600020819055505b6000600960003373ffffffffffffffffffffffffffffffffffffffff1673ffffffffffffffffffffffffffffffffffffffff168152602001908152602001600020549050601260003373ffffffffffffffffffffffffffffffffffffffff1673ffffffffffffffffffffffffffffffffffffffff16815260200190815260200160002054421161112b576040517f08c379a00000000000000000000000000000000000000000000000000000000081526004016111229061393f565b60405180910390fd5b6000811115611266576000600960003373ffffffffffffffffffffffffffffffffffffffff1673ffffffffffffffffffffffffffffffffffffffff168152602001908152602001600020819055506111c63382600260009054906101000a900473ffffffffffffffffffffffffffffffffffffffff1673ffffffffffffffffffffffffffffffffffffffff166128d99092919063ffffffff16565b610258426111d49190613b86565b601260003373ffffffffffffffffffffffffffffffffffffffff1673ffffffffffffffffffffffffffffffffffffffff168152602001908152602001600020819055503373ffffffffffffffffffffffffffffffffffffffff167fe2403640ba68fed3a2f88b7557551d1993f84b99bb10ff833f0cf8db0c5e04868260405161125d9190613aff565b60405180910390a25b505060018081905550565b60135481565b60008054906101000a900473ffffffffffffffffffffffffffffffffffffffff1681565b4260138190555060016014546112b19190613b86565b6014819055506000600c80548060200260200160405190810160405280929190818152602001828054801561133b57602002820191906000526020600020905b8160009054906101000a900473ffffffffffffffffffffffffffffffffffffffff1673ffffffffffffffffffffffffffffffffffffffff16815260200190600101908083116112f1575b5050505050905060005b81518110156113fc57600061139983838151811061138c577f4e487b7100000000000000000000000000000000000000000000000000000000600052603260045260246000fd5b602002602001015161064f565b11156113e9576113e88282815181106113db577f4e487b7100000000000000000000000000000000000000000000000000000000600052603260045260246000fd5b602002602001015161295f565b5b80806113f490613d3a565b915050611345565b50505050565b60145481565b600a6020528060005260406000206000915090505481565b60006060601554601354426114359190613c67565b11915083838080601f016020809104026020016040519081016040528093929190818152602001838380828437600081840152601f19601f8201169050808301925050505050505090509250929050565b6000601160003373ffffffffffffffffffffffffffffffffffffffff1673ffffffffffffffffffffffffffffffffffffffff16815260200190815260200160002054905090565b6000600f60008373ffffffffffffffffffffffffffffffffffffffff1673ffffffffffffffffffffffffffffffffffffffff168152602001908152602001600020549050919050565b600360009054906101000a900473ffffffffffffffffffffffffffffffffffffffff1681565b60055481565b60026001541415611588576040517f08c379a000000000000000000000000000000000000000000000000000000000815260040161157f90613adf565b60405180910390fd5b600260018190555081611599611fe6565b6007819055506115a7611834565b600681905550600073ffffffffffffffffffffffffffffffffffffffff168173ffffffffffffffffffffffffffffffffffffffff1614611674576115ea8161064f565b600960008373ffffffffffffffffffffffffffffffffffffffff1673ffffffffffffffffffffffffffffffffffffffff16815260200190815260200160002081905550600754600860008373ffffffffffffffffffffffffffffffffffffffff1673ffffffffffffffffffffffffffffffffffffffff168152602001908152602001600020819055505b600084116116b7576040517f08c379a00000000000000000000000000000000000000000000000000000000081526004016116ae9061391f565b60405180910390fd5b6000600f60008573ffffffffffffffffffffffffffffffffffffffff1673ffffffffffffffffffffffffffffffffffffffff16815260200190815260200160002054111561173a576040517f08c379a000000000000000000000000000000000000000000000000000000000815260040161173190613a3f565b60405180910390fd5b611746838560016123e2565b81600a60008573ffffffffffffffffffffffffffffffffffffffff1673ffffffffffffffffffffffffffffffffffffffff168152602001908152602001600020819055506117d9333086600360009054906101000a900473ffffffffffffffffffffffffffffffffffffffff1673ffffffffffffffffffffffffffffffffffffffff16612cd5909392919063ffffffff16565b8273ffffffffffffffffffffffffffffffffffffffff167f9e71bc8eea02a63969f509818f2dafb9254532904319f9dbda79b67bd34a5f3d8560405161181f9190613aff565b60405180910390a25060018081905550505050565b600061184242600454612d5e565b905090565b60086020528060005260406000206000915090505481565b60155481565b600260015414156118ab576040517f08c379a00000000000000000000000000000000000000000000000000000000081526004016118a290613adf565b60405180910390fd5b60026001819055506000600f60003373ffffffffffffffffffffffffffffffffffffffff1673ffffffffffffffffffffffffffffffffffffffff1681526020019081526020016000205411611935576040517f08c379a000000000000000000000000000000000000000000000000000000000815260040161192c90613a1f565b60405180910390fd5b3373ffffffffffffffffffffffffffffffffffffffff16600b60003373ffffffffffffffffffffffffffffffffffffffff1673ffffffffffffffffffffffffffffffffffffffff16815260200190815260200160002060009054906101000a900473ffffffffffffffffffffffffffffffffffffffff1673ffffffffffffffffffffffffffffffffffffffff1614611a02576040517f08c379a00000000000000000000000000000000000000000000000000000000081526004016119f99061399f565b60405180910390fd5b6000600c805480602002602001604051908101604052809291908181526020018280548015611a8657602002820191906000526020600020905b8160009054906101000a900473ffffffffffffffffffffffffffffffffffffffff1673ffffffffffffffffffffffffffffffffffffffff1681526020019060010190808311611a3c575b5050505050905060005b8151811015611c6c573373ffffffffffffffffffffffffffffffffffffffff16828281518110611ae9577f4e487b7100000000000000000000000000000000000000000000000000000000600052603260045260246000fd5b602002602001015173ffffffffffffffffffffffffffffffffffffffff161415611c59578160018351611b1c9190613c67565b81518110611b53577f4e487b7100000000000000000000000000000000000000000000000000000000600052603260045260246000fd5b6020026020010151828281518110611b94577f4e487b7100000000000000000000000000000000000000000000000000000000600052603260045260246000fd5b602002602001019073ffffffffffffffffffffffffffffffffffffffff16908173ffffffffffffffffffffffffffffffffffffffff16815250506000600b60003373ffffffffffffffffffffffffffffffffffffffff1673ffffffffffffffffffffffffffffffffffffffff16815260200190815260200160002060006101000a81548173ffffffffffffffffffffffffffffffffffffffff021916908373ffffffffffffffffffffffffffffffffffffffff16021790555060018251038252611c6c565b8080611c6490613d3a565b915050611a90565b5080600c9080519060200190611c83929190612fe4565b505060018081905550565b600c8181548110611c9e57600080fd5b906000526020600020016000915054906101000a900473ffffffffffffffffffffffffffffffffffffffff1681565b60026001541415611d13576040517f08c379a0000000000000000000000000000000000000000000000000000000008152600401611d0a90613adf565b60405180910390fd5b600260018190555033611d24611fe6565b600781905550611d32611834565b600681905550600073ffffffffffffffffffffffffffffffffffffffff168173ffffffffffffffffffffffffffffffffffffffff1614611dff57611d758161064f565b600960008373ffffffffffffffffffffffffffffffffffffffff1673ffffffffffffffffffffffffffffffffffffffff16815260200190815260200160002081905550600754600860008373ffffffffffffffffffffffffffffffffffffffff1673ffffffffffffffffffffffffffffffffffffffff168152602001908152602001600020819055505b60008211611e42576040517f08c379a0000000000000000000000000000000000000000000000000000000008152600401611e399061391f565b60405180910390fd5b611e4e338360016123e2565b611e9d333084600360009054906101000a900473ffffffffffffffffffffffffffffffffffffffff1673ffffffffffffffffffffffffffffffffffffffff16612cd5909392919063ffffffff16565b6001601160003373ffffffffffffffffffffffffffffffffffffffff1673ffffffffffffffffffffffffffffffffffffffff168152602001908152602001600020541015611f875760b442611ef29190613b86565b601160003373ffffffffffffffffffffffffffffffffffffffff1673ffffffffffffffffffffffffffffffffffffffff1681526020019081526020016000208190555061025842611f439190613b86565b601260003373ffffffffffffffffffffffffffffffffffffffff1673ffffffffffffffffffffffffffffffffffffffff168152602001908152602001600020819055505b3373ffffffffffffffffffffffffffffffffffffffff167f9e71bc8eea02a63969f509818f2dafb9254532904319f9dbda79b67bd34a5f3d83604051611fcd9190613aff565b60405180910390a2506001808190555050565b60065481565b600080600e541415611ffc576007549050612071565b61206e61205d600e5461204f670de0b6b3a7640000612041600554612033600654612025611834565b61238a90919063ffffffff16565b6123a090919063ffffffff16565b6123a090919063ffffffff16565b6123b690919063ffffffff16565b6007546123cc90919063ffffffff16565b90505b90565b600260009054906101000a900473ffffffffffffffffffffffffffffffffffffffff1681565b6000600d54905090565b60075481565b600260015414156120f0576040517f08c379a00000000000000000000000000000000000000000000000000000000081526004016120e790613adf565b60405180910390fd5b60026001819055506000600f60003373ffffffffffffffffffffffffffffffffffffffff1673ffffffffffffffffffffffffffffffffffffffff168152602001908152602001600020541161217a576040517f08c379a000000000000000000000000000000000000000000000000000000000815260040161217190613a1f565b60405180910390fd5b3373ffffffffffffffffffffffffffffffffffffffff16600b60003373ffffffffffffffffffffffffffffffffffffffff1673ffffffffffffffffffffffffffffffffffffffff16815260200190815260200160002060009054906101000a900473ffffffffffffffffffffffffffffffffffffffff1673ffffffffffffffffffffffffffffffffffffffff161415612248576040517f08c379a000000000000000000000000000000000000000000000000000000000815260040161223f9061399f565b60405180910390fd5b33600b60003373ffffffffffffffffffffffffffffffffffffffff1673ffffffffffffffffffffffffffffffffffffffff16815260200190815260200160002060006101000a81548173ffffffffffffffffffffffffffffffffffffffff021916908373ffffffffffffffffffffffffffffffffffffffff160217905550600c339080600181540180825580915050600190039060005260206000200160009091909190916101000a81548173ffffffffffffffffffffffffffffffffffffffff021916908373ffffffffffffffffffffffffffffffffffffffff16021790555060018081905550565b61237a601060003373ffffffffffffffffffffffffffffffffffffffff1673ffffffffffffffffffffffffffffffffffffffff16815260200190815260200160002054610c0a565b612382610f34565b565b60045481565b600081836123989190613c67565b905092915050565b600081836123ae9190613c0d565b905092915050565b600081836123c49190613bdc565b905092915050565b600081836123da9190613b86565b905092915050565b801561249d576123fd82600d546123cc90919063ffffffff16565b600d8190555061245582601060008673ffffffffffffffffffffffffffffffffffffffff1673ffffffffffffffffffffffffffffffffffffffff168152602001908152602001600020546123cc90919063ffffffff16565b601060008573ffffffffffffffffffffffffffffffffffffffff1673ffffffffffffffffffffffffffffffffffffffff1681526020019081526020016000208190555061254e565b6124b282600d5461238a90919063ffffffff16565b600d8190555061250a82601060008673ffffffffffffffffffffffffffffffffffffffff1673ffffffffffffffffffffffffffffffffffffffff1681526020019081526020016000205461238a90919063ffffffff16565b601060008573ffffffffffffffffffffffffffffffffffffffff1673ffffffffffffffffffffffffffffffffffffffff168152602001908152602001600020819055505b600063b2d05e00601060008673ffffffffffffffffffffffffffffffffffffffff1673ffffffffffffffffffffffffffffffffffffffff16815260200190815260200160002054106125a3576064905061273c565b6359682f00601060008673ffffffffffffffffffffffffffffffffffffffff1673ffffffffffffffffffffffffffffffffffffffff1681526020019081526020016000205410158015612638575063b2d05e00601060008673ffffffffffffffffffffffffffffffffffffffff1673ffffffffffffffffffffffffffffffffffffffff16815260200190815260200160002054105b1561264657604b905061273b565b631dcd6500601060008673ffffffffffffffffffffffffffffffffffffffff1673ffffffffffffffffffffffffffffffffffffffff16815260200190815260200160002054101580156126db57506359682f00601060008673ffffffffffffffffffffffffffffffffffffffff1673ffffffffffffffffffffffffffffffffffffffff16815260200190815260200160002054105b156126e957603f905061273a565b631dcd6500601060008673ffffffffffffffffffffffffffffffffffffffff1673ffffffffffffffffffffffffffffffffffffffff16815260200190815260200160002054101561273957603290505b5b5b5b6000606461279283601060008973ffffffffffffffffffffffffffffffffffffffff1673ffffffffffffffffffffffffffffffffffffffff168152602001908152602001600020546123a090919063ffffffff16565b61279c9190613bdc565b9050821561281b5760006127f8600f60008873ffffffffffffffffffffffffffffffffffffffff1673ffffffffffffffffffffffffffffffffffffffff168152602001908152602001600020548361238a90919063ffffffff16565b905061280f81600e546123cc90919063ffffffff16565b600e819055505061288e565b600061286f82600f60008973ffffffffffffffffffffffffffffffffffffffff1673ffffffffffffffffffffffffffffffffffffffff1681526020019081526020016000205461238a90919063ffffffff16565b905061288681600e5461238a90919063ffffffff16565b600e81905550505b80600f60008773ffffffffffffffffffffffffffffffffffffffff1673ffffffffffffffffffffffffffffffffffffffff168152602001908152602001600020819055505050505050565b61295a8363a9059cbb60e01b84846040516024016128f8929190613889565b604051602081830303815290604052907bffffffffffffffffffffffffffffffffffffffffffffffffffffffff19166020820180517bffffffffffffffffffffffffffffffffffffffffffffffffffffffff8381831617835250505050612d77565b505050565b600260015414156129a5576040517f08c379a000000000000000000000000000000000000000000000000000000000815260040161299c90613adf565b60405180910390fd5b6002600181905550806129b6611fe6565b6007819055506129c4611834565b600681905550600073ffffffffffffffffffffffffffffffffffffffff168173ffffffffffffffffffffffffffffffffffffffff1614612a9157612a078161064f565b600960008373ffffffffffffffffffffffffffffffffffffffff1673ffffffffffffffffffffffffffffffffffffffff16815260200190815260200160002081905550600754600860008373ffffffffffffffffffffffffffffffffffffffff1673ffffffffffffffffffffffffffffffffffffffff168152602001908152602001600020819055505b6000612a9c8361064f565b905060008111612ae1576040517f08c379a0000000000000000000000000000000000000000000000000000000008152600401612ad89061391f565b60405180910390fd5b6000612aec8461064f565b1115612cc957612afe838260016123e2565b6001601160008573ffffffffffffffffffffffffffffffffffffffff1673ffffffffffffffffffffffffffffffffffffffff168152602001908152602001600020541015612be75760b442612b539190613b86565b601160008573ffffffffffffffffffffffffffffffffffffffff1673ffffffffffffffffffffffffffffffffffffffff1681526020019081526020016000208190555060b442612ba39190613b86565b601260008573ffffffffffffffffffffffffffffffffffffffff1673ffffffffffffffffffffffffffffffffffffffff168152602001908152602001600020819055505b6000600960008573ffffffffffffffffffffffffffffffffffffffff1673ffffffffffffffffffffffffffffffffffffffff168152602001908152602001600020819055508273ffffffffffffffffffffffffffffffffffffffff167fe2403640ba68fed3a2f88b7557551d1993f84b99bb10ff833f0cf8db0c5e048682604051612c729190613aff565b60405180910390a28273ffffffffffffffffffffffffffffffffffffffff167f9e71bc8eea02a63969f509818f2dafb9254532904319f9dbda79b67bd34a5f3d82604051612cc09190613aff565b60405180910390a25b50506001808190555050565b612d58846323b872dd60e01b858585604051602401612cf693929190613852565b604051602081830303815290604052907bffffffffffffffffffffffffffffffffffffffffffffffffffffffff19166020820180517bffffffffffffffffffffffffffffffffffffffffffffffffffffffff8381831617835250505050612d77565b50505050565b6000818310612d6d5781612d6f565b825b905092915050565b6000612dd9826040518060400160405280602081526020017f5361666545524332303a206c6f772d6c6576656c2063616c6c206661696c65648152508573ffffffffffffffffffffffffffffffffffffffff16612e3e9092919063ffffffff16565b9050600081511115612e395780806020019051810190612df99190613152565b612e38576040517f08c379a0000000000000000000000000000000000000000000000000000000008152600401612e2f90613abf565b60405180910390fd5b5b505050565b6060612e4d8484600085612e56565b90509392505050565b606082471015612e9b576040517f08c379a0000000000000000000000000000000000000000000000000000000008152600401612e929061395f565b60405180910390fd5b612ea485612f6a565b612ee3576040517f08c379a0000000000000000000000000000000000000000000000000000000008152600401612eda90613a5f565b60405180910390fd5b6000808673ffffffffffffffffffffffffffffffffffffffff168587604051612f0c9190613820565b60006040518083038185875af1925050503d8060008114612f49576040519150601f19603f3d011682016040523d82523d6000602084013e612f4e565b606091505b5091509150612f5e828286612f7d565b92505050949350505050565b600080823b905060008111915050919050565b60608315612f8d57829050612fdd565b600083511115612fa05782518084602001fd5b816040517f08c379a0000000000000000000000000000000000000000000000000000000008152600401612fd491906138fd565b60405180910390fd5b9392505050565b82805482825590600052602060002090810192821561305d579160200282015b8281111561305c5782518260006101000a81548173ffffffffffffffffffffffffffffffffffffffff021916908373ffffffffffffffffffffffffffffffffffffffff16021790555091602001919060010190613004565b5b50905061306a919061306e565b5090565b5b8082111561308757600081600090555060010161306f565b5090565b60008135905061309a81613df2565b92915050565b6000815190506130af81613e09565b92915050565b60008083601f8401126130c757600080fd5b8235905067ffffffffffffffff8111156130e057600080fd5b6020830191508360018202830111156130f857600080fd5b9250929050565b60008135905061310e81613e20565b92915050565b60008151905061312381613e20565b92915050565b60006020828403121561313b57600080fd5b60006131498482850161308b565b91505092915050565b60006020828403121561316457600080fd5b6000613172848285016130a0565b91505092915050565b6000806020838503121561318e57600080fd5b600083013567ffffffffffffffff8111156131a857600080fd5b6131b4858286016130b5565b92509250509250929050565b6000602082840312156131d257600080fd5b60006131e0848285016130ff565b91505092915050565b6000602082840312156131fb57600080fd5b600061320984828501613114565b91505092915050565b60008060006060848603121561322757600080fd5b6000613235868287016130ff565b93505060206132468682870161308b565b9250506040613257868287016130ff565b9150509250925092565b6000806040838503121561327457600080fd5b6000613282858286016130ff565b9250506020613293858286016130ff565b9150509250929050565b6132a681613c9b565b82525050565b6132b581613cad565b82525050565b60006132c682613b43565b6132d08185613b59565b93506132e0818560208601613d07565b6132e981613de1565b840191505092915050565b60006132ff82613b43565b6133098185613b6a565b9350613319818560208601613d07565b80840191505092915050565b61332e81613ce3565b82525050565b600061333f82613b4e565b6133498185613b75565b9350613359818560208601613d07565b61336281613de1565b840191505092915050565b600061337a600e83613b75565b91507f43616e6e6f74207374616b6520300000000000000000000000000000000000006000830152602082019050919050565b60006133ba602c83613b75565b91507f43616e6e6f74207769746864726177206265666f7265206c6f636b696e67207260008301527f657761726420706572696f6400000000000000000000000000000000000000006020830152604082019050919050565b6000613420602683613b75565b91507f416464726573733a20696e73756666696369656e742062616c616e636520666f60008301527f722063616c6c00000000000000000000000000000000000000000000000000006020830152604082019050919050565b6000613486602483613b75565b91507f556e61626c6520746f20776974686472617720696e206c6f636b696e6720706560008301527f72696f64000000000000000000000000000000000000000000000000000000006020830152604082019050919050565b60006134ec601c83613b75565b91507f416c726561647920616464656420696e20636f6d706f756e64696e67000000006000830152602082019050919050565b600061352c601d83613b75565b91507f43616e6e6f7420726564756365206578697374696e6720706572696f640000006000830152602082019050919050565b600061356c601183613b75565b91507f43616e6e6f7420776974686472617720300000000000000000000000000000006000830152602082019050919050565b60006135ac601883613b75565b91507f50726f76696465642072657761726420746f6f206869676800000000000000006000830152602082019050919050565b60006135ec600c83613b75565b91507f4e6f742061207374616b657200000000000000000000000000000000000000006000830152602082019050919050565b600061362c601683613b75565b91507f416c7265616479207374616b65642062792075736572000000000000000000006000830152602082019050919050565b600061366c601d83613b75565b91507f416464726573733a2063616c6c20746f206e6f6e2d636f6e74726163740000006000830152602082019050919050565b60006136ac602a83613b75565b91507f43616c6c6572206973206e6f742052657761726473446973747269627574696f60008301527f6e20636f6e7472616374000000000000000000000000000000000000000000006020830152604082019050919050565b6000613712603083613b75565b91507f43616e6e6f74207769746864726177206265666f72652036206d6f6e7468206660008301527f726f6d20696e6974616c207374616b65000000000000000000000000000000006020830152604082019050919050565b6000613778602a83613b75565b91507f5361666545524332303a204552433230206f7065726174696f6e20646964206e60008301527f6f742073756363656564000000000000000000000000000000000000000000006020830152604082019050919050565b60006137de601f83613b75565b91507f5265656e7472616e637947756172643a207265656e7472616e742063616c6c006000830152602082019050919050565b61381a81613cd9565b82525050565b600061382c82846132f4565b915081905092915050565b600060208201905061384c600083018461329d565b92915050565b6000606082019050613867600083018661329d565b613874602083018561329d565b6138816040830184613811565b949350505050565b600060408201905061389e600083018561329d565b6138ab6020830184613811565b9392505050565b60006040820190506138c760008301856132ac565b81810360208301526138d981846132bb565b90509392505050565b60006020820190506138f76000830184613325565b92915050565b600060208201905081810360008301526139178184613334565b905092915050565b600060208201905081810360008301526139388161336d565b9050919050565b60006020820190508181036000830152613958816133ad565b9050919050565b6000602082019050818103600083015261397881613413565b9050919050565b6000602082019050818103600083015261399881613479565b9050919050565b600060208201905081810360008301526139b8816134df565b9050919050565b600060208201905081810360008301526139d88161351f565b9050919050565b600060208201905081810360008301526139f88161355f565b9050919050565b60006020820190508181036000830152613a188161359f565b9050919050565b60006020820190508181036000830152613a38816135df565b9050919050565b60006020820190508181036000830152613a588161361f565b9050919050565b60006020820190508181036000830152613a788161365f565b9050919050565b60006020820190508181036000830152613a988161369f565b9050919050565b60006020820190508181036000830152613ab881613705565b9050919050565b60006020820190508181036000830152613ad88161376b565b9050919050565b60006020820190508181036000830152613af8816137d1565b9050919050565b6000602082019050613b146000830184613811565b92915050565b6000604082019050613b2f6000830185613811565b613b3c6020830184613811565b9392505050565b600081519050919050565b600081519050919050565b600082825260208201905092915050565b600081905092915050565b600082825260208201905092915050565b6000613b9182613cd9565b9150613b9c83613cd9565b9250827fffffffffffffffffffffffffffffffffffffffffffffffffffffffffffffffff03821115613bd157613bd0613d83565b5b828201905092915050565b6000613be782613cd9565b9150613bf283613cd9565b925082613c0257613c01613db2565b5b828204905092915050565b6000613c1882613cd9565b9150613c2383613cd9565b9250817fffffffffffffffffffffffffffffffffffffffffffffffffffffffffffffffff0483118215151615613c5c57613c5b613d83565b5b828202905092915050565b6000613c7282613cd9565b9150613c7d83613cd9565b925082821015613c9057613c8f613d83565b5b828203905092915050565b6000613ca682613cb9565b9050919050565b60008115159050919050565b600073ffffffffffffffffffffffffffffffffffffffff82169050919050565b6000819050919050565b6000613cee82613cf5565b9050919050565b6000613d0082613cb9565b9050919050565b60005b83811015613d25578082015181840152602081019050613d0a565b83811115613d34576000848401525b50505050565b6000613d4582613cd9565b91507fffffffffffffffffffffffffffffffffffffffffffffffffffffffffffffffff821415613d7857613d77613d83565b5b600182019050919050565b7f4e487b7100000000000000000000000000000000000000000000000000000000600052601160045260246000fd5b7f4e487b7100000000000000000000000000000000000000000000000000000000600052601260045260246000fd5b6000601f19601f8301169050919050565b613dfb81613c9b565b8114613e0657600080fd5b50565b613e1281613cad565b8114613e1d57600080fd5b50565b613e2981613cd9565b8114613e3457600080fd5b5056fea264697066735822122084c50551c1a699bb1df43576407b26235e17be0457d8d6a9ac93737f400b7ca464736f6c63430008000033a26469706673582212205618b4050f17b3b62a2e2aea704855121b8ab3e9f11a3351c5f2f88b7f29def564736f6c63430008000033",
  "immutableReferences": {},
  "source": "// SPDX-License-Identifier: MIT\r\npragma solidity ^0.8.0;\r\n\r\nimport \"@openzeppelin/contracts/token/ERC20/IERC20.sol\";\r\nimport \"@openzeppelin/contracts/access/Ownable.sol\";\r\nimport \"@openzeppelin/contracts/utils/math/SafeMath.sol\";\r\nimport \"@openzeppelin/contracts/utils/math/Math.sol\";\r\nimport \"@openzeppelin/contracts/utils/Address.sol\";\r\nimport \"@openzeppelin/contracts/token/ERC20/utils/SafeERC20.sol\";\r\nimport \"@openzeppelin/contracts/security/ReentrancyGuard.sol\";\r\nimport \"./IStakingRewards.sol\";\r\nimport \"./RewardsDistributionRecipient.sol\";\r\nimport \"./KeeperCompatibleInterface.sol\";\r\n\r\ncontract StakingRewards is\r\n  IStakingRewards,\r\n  RewardsDistributionRecipient,\r\n  ReentrancyGuard,\r\n  KeeperCompatibleInterface\r\n{\r\n  using SafeMath for uint256;\r\n  using SafeERC20 for IERC20;\r\n\r\n  /* ========== STATE VARIABLES ========== */\r\n\r\n  IERC20 public rewardsToken;\r\n  IERC20 public stakingToken;\r\n  uint256 public periodFinish = 0;\r\n  uint256 public rewardRate = 0;\r\n  uint256 public lastUpdateTime;\r\n  uint256 public rewardPerTokenStored;\r\n\r\n  mapping(address => uint256) public userRewardPerTokenPaid;\r\n  mapping(address => uint256) public rewards;\r\n  mapping(address => uint256) public _lockingTimeStamp;\r\n  mapping(address => address) public checkUser;\r\n  address[] public userList;\r\n\r\n  uint256 private _actualtotalSupply; //  actual total amount staked\r\n  uint256 private _totalSupply; // weight total Stake amount according to tier\r\n\r\n  mapping(address => uint256) private _balances; // weight Stake amount\r\n  mapping(address => uint256) private _actualbalances; // actual amount staked\r\n\r\n  mapping(address => uint256) private _userLockPeriod; // user after 6 month timestamp\r\n  mapping(address => uint256) private _userRewardLockPeriod; // user after 6 month timestamp\r\n\r\n  uint256 public lastTimeStamp;\r\n\r\n  /**\r\n   * Public counter variable\r\n   */\r\n  uint256 public counter;\r\n\r\n  uint256 public interval;\r\n\r\n  /* ========== CONSTRUCTOR ========== */\r\n\r\n  constructor(\r\n    address _rewardsDistribution,\r\n    address _rewardsToken,\r\n    address _stakingToken\r\n  ) {\r\n    rewardsToken = IERC20(_rewardsToken);\r\n    stakingToken = IERC20(_stakingToken);\r\n    rewardsDistribution = _rewardsDistribution;\r\n\r\n    interval = 300; //15 min chk interval\r\n    lastTimeStamp = block.timestamp;\r\n\r\n    counter = 0;\r\n  }\r\n\r\n  /* ========== VIEWS ========== */\r\n  function userLockPeriod() external view override returns (uint256) {\r\n    return _userLockPeriod[msg.sender];\r\n  }\r\n\r\n  function userRewardLockPeriod() external view override returns (uint256) {\r\n    return _userRewardLockPeriod[msg.sender];\r\n  }\r\n\r\n  function totalSupply() external view override returns (uint256) {\r\n    return _totalSupply;\r\n  }\r\n\r\n  function balanceOf(address account) external view override returns (uint256) {\r\n    return _balances[account];\r\n  }\r\n\r\n  function actualTotalSupply() external view returns (uint256) {\r\n    return _actualtotalSupply;\r\n  }\r\n\r\n  function actualBalanceOf(address account) external view returns (uint256) {\r\n    return _actualbalances[account];\r\n  }\r\n\r\n  function lastTimeRewardApplicable() public view override returns (uint256) {\r\n    return Math.min(block.timestamp, periodFinish);\r\n  }\r\n\r\n  function rewardPerToken() public view override returns (uint256) {\r\n    if (_totalSupply == 0) {\r\n      return rewardPerTokenStored;\r\n    }\r\n    return\r\n      rewardPerTokenStored.add(\r\n        lastTimeRewardApplicable()\r\n          .sub(lastUpdateTime)\r\n          .mul(rewardRate)\r\n          .mul(1e18)\r\n          .div(_totalSupply)\r\n      );\r\n  }\r\n\r\n  function earned(address account) public view override returns (uint256) {\r\n    return\r\n      _balances[account]\r\n        .mul(rewardPerToken().sub(userRewardPerTokenPaid[account]))\r\n        .div(1e18)\r\n        .add(rewards[account]);\r\n  }\r\n\r\n  /* ========== MUTATIVE FUNCTIONS ========== */\r\n\r\n  function stake(uint256 amount)\r\n    external\r\n    override\r\n    nonReentrant\r\n    updateReward(msg.sender)\r\n  {\r\n    require(amount > 0, \"Cannot stake 0\");\r\n\r\n    _updateBalance(msg.sender, amount, true);\r\n\r\n    stakingToken.safeTransferFrom(msg.sender, address(this), amount);\r\n\r\n    // update at inital stake\r\n    if (_userLockPeriod[msg.sender] < 1) {\r\n      _userLockPeriod[msg.sender] = block.timestamp + 3 minutes; // for withdraw locking\r\n      _userRewardLockPeriod[msg.sender] = block.timestamp + 10 minutes; // for reward locking\r\n    }\r\n\r\n    emit Staked(msg.sender, amount);\r\n  }\r\n\r\n  function stakeComponding(address uaddress)\r\n    internal\r\n    nonReentrant\r\n    updateReward(uaddress)\r\n  {\r\n    uint256 rewardAmt = earned(uaddress);\r\n    require(rewardAmt > 0, \"Cannot stake 0\");\r\n    if (earned(uaddress) > 0) {\r\n      _updateBalance(uaddress, rewardAmt, true);\r\n\r\n      // stakingToken.safeTransferFrom(uaddress, address(this), amount);\r\n\r\n      // update at inital stake\r\n      if (_userLockPeriod[uaddress] < 1) {\r\n        _userLockPeriod[uaddress] = block.timestamp + 3 minutes; // for withdraw locking\r\n        _userRewardLockPeriod[uaddress] = block.timestamp + 3 minutes; // for reward locking\r\n      }\r\n\r\n      rewards[uaddress] = 0; // setting user reward to zero since its added to stake\r\n      emit RewardPaid(uaddress, rewardAmt);\r\n\r\n      emit Staked(uaddress, rewardAmt);\r\n    }\r\n  }\r\n\r\n  function stakeTransferWithBalance(\r\n    uint256 amount,\r\n    address useraddress,\r\n    uint256 lockingPeriod\r\n  ) external nonReentrant updateReward(useraddress) {\r\n    require(amount > 0, \"Cannot stake 0\");\r\n    require(_balances[useraddress] <= 0, \"Already staked by user\");\r\n\r\n    _updateBalance(useraddress, amount, true);\r\n\r\n    _lockingTimeStamp[useraddress] = lockingPeriod; // setting user locking ts\r\n\r\n    stakingToken.safeTransferFrom(msg.sender, address(this), amount);\r\n    emit Staked(useraddress, amount);\r\n  }\r\n\r\n  function withdraw(uint256 amount)\r\n    public\r\n    override\r\n    nonReentrant\r\n    updateReward(msg.sender)\r\n  {\r\n    require(amount > 0, \"Cannot withdraw 0\");\r\n    require(\r\n      block.timestamp > _userLockPeriod[msg.sender],\r\n      \"Cannot withdraw before 6 month from inital stake\"\r\n    );\r\n    require(\r\n      block.timestamp >= _lockingTimeStamp[msg.sender],\r\n      \"Unable to withdraw in locking period\"\r\n    );\r\n\r\n    _updateBalance(msg.sender, amount, false);\r\n\r\n    stakingToken.safeTransfer(msg.sender, amount);\r\n    emit Withdrawn(msg.sender, amount);\r\n  }\r\n\r\n  function _updateBalance(\r\n    address userAddress,\r\n    uint256 amount,\r\n    bool isAdd\r\n  ) internal {\r\n    if (isAdd) {\r\n      _actualtotalSupply = _actualtotalSupply.add(amount);\r\n      _actualbalances[userAddress] = _actualbalances[userAddress].add(amount);\r\n    } else {\r\n      _actualtotalSupply = _actualtotalSupply.sub(amount);\r\n      _actualbalances[userAddress] = _actualbalances[userAddress].sub(amount);\r\n    }\r\n\r\n    uint256 yield;\r\n\r\n    if (_actualbalances[userAddress] >= 3000000000) {\r\n      yield = 100;\r\n    } else if (\r\n      _actualbalances[userAddress] >= 1500000000 &&\r\n      _actualbalances[userAddress] < 3000000000\r\n    ) {\r\n      yield = 75;\r\n    } else if (\r\n      _actualbalances[userAddress] >= 500000000 &&\r\n      _actualbalances[userAddress] < 1500000000\r\n    ) {\r\n      yield = 63;\r\n    } else if (_actualbalances[userAddress] < 500000000) {\r\n      yield = 50;\r\n    }\r\n\r\n    uint256 newBalance = _actualbalances[userAddress].mul(yield) / 100;\r\n\r\n    if (isAdd) {\r\n      uint256 changedBalance = newBalance.sub(_balances[userAddress]);\r\n      _totalSupply = _totalSupply.add(changedBalance);\r\n    } else {\r\n      uint256 changedBalance = _balances[userAddress].sub(newBalance);\r\n      _totalSupply = _totalSupply.sub(changedBalance);\r\n    }\r\n\r\n    _balances[userAddress] = newBalance;\r\n  }\r\n\r\n  function getReward() public override nonReentrant updateReward(msg.sender) {\r\n    uint256 reward = rewards[msg.sender];\r\n    require(\r\n      block.timestamp > _userRewardLockPeriod[msg.sender],\r\n      \"Cannot withdraw before locking reward period\"\r\n    );\r\n    if (reward > 0) {\r\n      rewards[msg.sender] = 0;\r\n      rewardsToken.safeTransfer(msg.sender, reward);\r\n      _userRewardLockPeriod[msg.sender] = block.timestamp + 10 minutes; // reward lock timestamp\r\n      emit RewardPaid(msg.sender, reward);\r\n    }\r\n  }\r\n\r\n  function enrollComponding() public nonReentrant {\r\n    require(_balances[msg.sender] > 0, \"Not a staker\");\r\n    require(\r\n      checkUser[msg.sender] != msg.sender,\r\n      \"Already added in compounding\"\r\n    );\r\n\r\n    checkUser[msg.sender] = msg.sender;\r\n    userList.push(msg.sender);\r\n  }\r\n\r\n  function leaveComponding() public nonReentrant {\r\n    require(_balances[msg.sender] > 0, \"Not a staker\");\r\n    require(\r\n      checkUser[msg.sender] == msg.sender,\r\n      \"Already added in compounding\"\r\n    );\r\n\r\n    address[] memory tempUserList = userList;\r\n    for (uint256 i = 0; i < tempUserList.length; i++) {\r\n      if (tempUserList[i] == msg.sender) {\r\n        tempUserList[i] = tempUserList[tempUserList.length - 1];\r\n        checkUser[msg.sender] = address(0);\r\n        assembly { mstore(tempUserList, sub(mload(tempUserList), 1)) }\r\n        break;\r\n      }\r\n    }\r\n\r\n    userList = tempUserList;\r\n  }\r\n\r\n  function exit() external override {\r\n    withdraw(_actualbalances[msg.sender]);\r\n    getReward();\r\n  }\r\n\r\n  function checkUpkeep(bytes calldata checkData)\r\n    external\r\n    view\r\n    override\r\n    returns (bool upkeepNeeded, bytes memory performData)\r\n  {\r\n    upkeepNeeded = (block.timestamp - lastTimeStamp) > interval;\r\n\r\n    // We don't use the checkData in this example\r\n    // checkData was defined when the Upkeep was registered\r\n    performData = checkData;\r\n  }\r\n\r\n  function performUpkeep(bytes calldata performData) external override {\r\n    lastTimeStamp = block.timestamp;\r\n    counter = counter + 1;\r\n\r\n    address[] memory tempUserList = userList;\r\n    for (uint256 i = 0; i < tempUserList.length; i++) {\r\n      if (earned(tempUserList[i]) > 0) {\r\n        stakeComponding(tempUserList[i]);\r\n      }\r\n    }\r\n    // We don't use the performData in this example\r\n    // performData is generated by the Keeper's call to your `checkUpkeep` function\r\n    performData;\r\n  }\r\n\r\n  /* ========== RESTRICTED FUNCTIONS ========== */\r\n\r\n  function notifyRewardAmount(uint256 reward, uint256 rewardsDuration)\r\n    external\r\n    override\r\n    onlyRewardsDistribution\r\n    updateReward(address(0))\r\n  {\r\n    require(\r\n      block.timestamp.add(rewardsDuration) >= periodFinish,\r\n      \"Cannot reduce existing period\"\r\n    );\r\n\r\n    if (block.timestamp >= periodFinish) {\r\n      rewardRate = reward.div(rewardsDuration);\r\n    } else {\r\n      uint256 remaining = periodFinish.sub(block.timestamp);\r\n      uint256 leftover = remaining.mul(rewardRate);\r\n      rewardRate = reward.add(leftover).div(rewardsDuration);\r\n    }\r\n\r\n    // Ensure the provided reward amount is not more than the balance in the contract.\r\n    // This keeps the reward rate in the right range, preventing overflows due to\r\n    // very high values of rewardRate in the earned and rewardsPerToken functions;\r\n    // Reward + leftover must be less than 2^256 / 10^18 to avoid overflow.\r\n    uint256 balance = rewardsToken.balanceOf(address(this));\r\n    require(\r\n      rewardRate <= balance.div(rewardsDuration),\r\n      \"Provided reward too high\"\r\n    );\r\n\r\n    lastUpdateTime = block.timestamp;\r\n    periodFinish = block.timestamp.add(rewardsDuration);\r\n    emit RewardAdded(reward, periodFinish);\r\n  }\r\n\r\n  /* ========== MODIFIERS ========== */\r\n\r\n  modifier updateReward(address account) {\r\n    rewardPerTokenStored = rewardPerToken();\r\n    lastUpdateTime = lastTimeRewardApplicable();\r\n    if (account != address(0)) {\r\n      rewards[account] = earned(account);\r\n      userRewardPerTokenPaid[account] = rewardPerTokenStored;\r\n    }\r\n    _;\r\n  }\r\n\r\n  /* ========== EVENTS ========== */\r\n\r\n  event RewardAdded(uint256 reward, uint256 periodFinish);\r\n  event Staked(address indexed user, uint256 amount);\r\n  event Withdrawn(address indexed user, uint256 amount);\r\n  event RewardPaid(address indexed user, uint256 reward);\r\n}\r\n\r\ninterface IUniswapV2ERC20 {\r\n  function permit(\r\n    address owner,\r\n    address spender,\r\n    uint256 value,\r\n    uint256 deadline,\r\n    uint8 v,\r\n    bytes32 r,\r\n    bytes32 s\r\n  ) external;\r\n}\r\n\r\ncontract StakingRewardsFactory is Ownable {\r\n  // immutables\r\n  address public rewardsToken;\r\n  uint256 public stakingRewardsGenesis;\r\n\r\n  // the staking tokens for which the rewards contract has been deployed\r\n  address[] public stakingTokens;\r\n\r\n  // info about rewards for a particular staking token\r\n  struct StakingRewardsInfo {\r\n    address stakingRewards;\r\n    uint256 rewardAmount;\r\n    uint256 duration;\r\n  }\r\n\r\n  // rewards info by staking token\r\n  mapping(address => StakingRewardsInfo)\r\n    public stakingRewardsInfoByStakingToken;\r\n\r\n  constructor(address _rewardsToken, uint256 _stakingRewardsGenesis)\r\n    Ownable()\r\n  {\r\n    require(\r\n      _stakingRewardsGenesis >= block.timestamp,\r\n      \"StakingRewardsFactory::constructor: genesis too soon\"\r\n    );\r\n\r\n    rewardsToken = _rewardsToken;\r\n    stakingRewardsGenesis = _stakingRewardsGenesis;\r\n  }\r\n\r\n  ///// permissioned functions\r\n\r\n  // deploy a staking reward contract for the staking token, and store the reward amount\r\n  // the reward will be distributed to the staking reward contract no sooner than the genesis\r\n  function deploy(\r\n    address stakingToken,\r\n    uint256 rewardAmount,\r\n    uint256 rewardsDuration\r\n  ) public onlyOwner {\r\n    StakingRewardsInfo storage info = stakingRewardsInfoByStakingToken[\r\n      stakingToken\r\n    ];\r\n    require(\r\n      info.stakingRewards == address(0),\r\n      \"StakingRewardsFactory::deploy: already deployed\"\r\n    );\r\n\r\n    info.stakingRewards = address(\r\n      new StakingRewards(\r\n        /*_rewardsDistribution=*/\r\n        address(this),\r\n        rewardsToken,\r\n        stakingToken\r\n      )\r\n    );\r\n    info.rewardAmount = rewardAmount;\r\n    info.duration = rewardsDuration;\r\n    stakingTokens.push(stakingToken);\r\n  }\r\n\r\n  function update(\r\n    address stakingToken,\r\n    uint256 rewardAmount,\r\n    uint256 rewardsDuration\r\n  ) public onlyOwner {\r\n    StakingRewardsInfo storage info = stakingRewardsInfoByStakingToken[\r\n      stakingToken\r\n    ];\r\n    require(\r\n      info.stakingRewards != address(0),\r\n      \"StakingRewardsFactory::update: not deployed\"\r\n    );\r\n\r\n    info.rewardAmount = rewardAmount;\r\n    info.duration = rewardsDuration;\r\n  }\r\n\r\n  ///// permissionless functions\r\n\r\n  // call notifyRewardAmount for all staking tokens.\r\n  function notifyRewardAmounts() public {\r\n    require(\r\n      stakingTokens.length > 0,\r\n      \"StakingRewardsFactory::notifyRewardAmounts: called before any deploys\"\r\n    );\r\n    for (uint256 i = 0; i < stakingTokens.length; i++) {\r\n      notifyRewardAmount(stakingTokens[i]);\r\n    }\r\n  }\r\n\r\n  // notify reward amount for an individual staking token.\r\n  // this is a fallback in case the notifyRewardAmounts costs too much gas to call for all contracts\r\n  function notifyRewardAmount(address stakingToken) public {\r\n    require(\r\n      block.timestamp >= stakingRewardsGenesis,\r\n      \"StakingRewardsFactory::notifyRewardAmount: not ready\"\r\n    );\r\n\r\n    StakingRewardsInfo storage info = stakingRewardsInfoByStakingToken[\r\n      stakingToken\r\n    ];\r\n    require(\r\n      info.stakingRewards != address(0),\r\n      \"StakingRewardsFactory::notifyRewardAmount: not deployed\"\r\n    );\r\n\r\n    if (info.rewardAmount > 0 && info.duration > 0) {\r\n      uint256 rewardAmount = info.rewardAmount;\r\n      uint256 duration = info.duration;\r\n      info.rewardAmount = 0;\r\n      info.duration = 0;\r\n\r\n      require(\r\n        IERC20(rewardsToken).transfer(info.stakingRewards, rewardAmount),\r\n        \"StakingRewardsFactory::notifyRewardAmount: transfer failed\"\r\n      );\r\n      StakingRewards(info.stakingRewards).notifyRewardAmount(\r\n        rewardAmount,\r\n        duration\r\n      );\r\n    }\r\n  }\r\n\r\n  function pullExtraTokens(address token, uint256 amount) external onlyOwner {\r\n    IERC20(token).transfer(msg.sender, amount);\r\n  }\r\n}\r\n",
  "sourcePath": "E:\\B\\Autonio\\niox-staking-contract\\contracts\\StakingRewardsFactory.sol",
  "compiler": {
    "name": "solc",
    "version": "0.8.0+commit.c7dfd78e.Emscripten.clang"
  },
  "schemaVersion": "3.4.3",
  "updatedAt": "2021-10-07T17:49:51.495Z",
  "devdoc": {
    "kind": "dev",
    "methods": {
      "owner()": {
        "details": "Returns the address of the current owner."
      },
      "renounceOwnership()": {
        "details": "Leaves the contract without owner. It will not be possible to call `onlyOwner` functions anymore. Can only be called by the current owner. NOTE: Renouncing ownership will leave the contract without an owner, thereby removing any functionality that is only available to the owner."
      },
      "transferOwnership(address)": {
        "details": "Transfers ownership of the contract to a new account (`newOwner`). Can only be called by the current owner."
      }
    },
    "version": 1
  },
  "userdoc": {
    "kind": "user",
    "methods": {},
    "version": 1
  }
}